{
  "transactions": [
    {
      "hash": "0xa75e797ed59bd8d008374626f11868ca8c87d3b6809a4c9c205eda0551312e24",
      "transactionType": "CALL",
      "contractName": null,
      "contractAddress": "0x34925d9406fa4d4a5e2c20bbbcbee4e3e14d34f8",
      "function": "setGameConfig((uint40,uint40,uint256,uint256,uint256,uint256,uint40,uint256))",
      "arguments": [
        "(172800, 172800, 16, 30000000000000000000, 600000000, 100000000000000000, 100, 7000)"
      ],
      "transaction": {
        "from": "0x221ba23331e5395f2018edafc2e0e9ff2acb1ada",
        "to": "0x34925d9406fa4d4a5e2c20bbbcbee4e3e14d34f8",
        "gas": "0xfe38",
        "value": "0x0",
        "input": "0x1624f9c1000000000000000000000000000000000000000000000000000000000002a300000000000000000000000000000000000000000000000000000000000002a3000000000000000000000000000000000000000000000000000000000000000010000000000000000000000000000000000000000000000001a055690d9db800000000000000000000000000000000000000000000000000000000000023c34600000000000000000000000000000000000000000000000000016345785d8a000000000000000000000000000000000000000000000000000000000000000000640000000000000000000000000000000000000000000000000000000000001b58",
        "nonce": "0x25",
        "chainId": "0x4268"
      },
      "additionalContracts": [],
      "isFixedGasLimit": false
    }
  ],
  "receipts": [
    {
      "status": "0x1",
      "cumulativeGasUsed": "0x37cf87",
      "logs": [
        {
          "address": "0x34925d9406fa4d4a5e2c20bbbcbee4e3e14d34f8",
          "topics": [
            "0x60f21b569939931e3524b877e78d6a73606dbe09288de5f92ae92e3f98d98f19"
          ],
          "data": "0x000000000000000000000000000000000000000000000000000000000002a300000000000000000000000000000000000000000000000000000000000002a3000000000000000000000000000000000000000000000000000000000000000010000000000000000000000000000000000000000000000001a055690d9db800000000000000000000000000000000000000000000000000000000000023c34600000000000000000000000000000000000000000000000000016345785d8a000000000000000000000000000000000000000000000000000000000000000000640000000000000000000000000000000000000000000000000000000000001b58",
          "blockHash": "0x0c3fa3053c2d9296fc95cea0bd54987e1f0e474833fe6e95a6ae305050c64d5c",
          "blockNumber": "0x1f9bdb",
          "transactionHash": "0xa75e797ed59bd8d008374626f11868ca8c87d3b6809a4c9c205eda0551312e24",
          "transactionIndex": "0x14",
          "logIndex": "0x1d",
          "removed": false
        }
      ],
      "logsBloom": "0x00400000000000000000000000000000000000000000000000000000000000008000000000000000000000000000000000000000000001000000000100000000000000000000000000000000000000000000000000000000000000000000000000000000000000000000000000000000000000000002000000000000000000000000000000000000000000000000000000000000000000000000000000000000000000000000000000000000000000000000000000000000000000000000000000000000000000000000000000000000000000020000000000000000000000000000000000000000000000000000000000000000000000000000000000000000",
      "type": "0x0",
      "transactionHash": "0xa75e797ed59bd8d008374626f11868ca8c87d3b6809a4c9c205eda0551312e24",
      "transactionIndex": "0x14",
      "blockHash": "0x0c3fa3053c2d9296fc95cea0bd54987e1f0e474833fe6e95a6ae305050c64d5c",
      "blockNumber": "0x1f9bdb",
      "gasUsed": "0xb80e",
      "effectiveGasPrice": "0x7f19ff",
      "from": "0x221ba23331e5395f2018edafc2e0e9ff2acb1ada",
      "to": "0x34925d9406fa4d4a5e2c20bbbcbee4e3e14d34f8",
      "contractAddress": null
    }
  ],
  "libraries": [],
  "pending": [],
  "returns": {},
  "timestamp": 1722849208,
  "chain": 17000,
  "commit": "47dc7c3"
}