{
  "transactions": [
    {
      "hash": "0x4083715ec0a515c04f9a699049703da0a03a2f8d009711bdaddd56ae153c28ae",
      "transactionType": "CALL",
      "contractName": null,
      "contractAddress": "0xf6fc2726013b1a9b3171c78f3599017e7ca0bd79",
      "function": "setGameConfig((uint40,uint40,uint256,uint256,uint256,uint256,uint40,uint256))",
      "arguments": [
        "(172800, 172800, 16, 30000000000000000000, 600000000000000000000000000, 100000000000000000, 100, 7000)"
      ],
      "transaction": {
        "from": "0x221ba23331e5395f2018edafc2e0e9ff2acb1ada",
        "to": "0xf6fc2726013b1a9b3171c78f3599017e7ca0bd79",
        "gas": "0x3df08",
        "value": "0x0",
        "input": "0x1624f9c1000000000000000000000000000000000000000000000000000000000002a300000000000000000000000000000000000000000000000000000000000002a3000000000000000000000000000000000000000000000000000000000000000010000000000000000000000000000000000000000000000001a055690d9db80000000000000000000000000000000000000000000001f04ef12cb04cf158000000000000000000000000000000000000000000000000000000016345785d8a000000000000000000000000000000000000000000000000000000000000000000640000000000000000000000000000000000000000000000000000000000001b58",
        "nonce": "0x3f",
        "chainId": "0x4268"
      },
      "additionalContracts": [],
      "isFixedGasLimit": false
    }
  ],
  "receipts": [
    {
      "status": "0x1",
      "cumulativeGasUsed": "0xc36c87",
      "logs": [
        {
          "address": "0xf6fc2726013b1a9b3171c78f3599017e7ca0bd79",
          "topics": [
            "0x60f21b569939931e3524b877e78d6a73606dbe09288de5f92ae92e3f98d98f19"
          ],
          "data": "0x000000000000000000000000000000000000000000000000000000000002a300000000000000000000000000000000000000000000000000000000000002a3000000000000000000000000000000000000000000000000000000000000000010000000000000000000000000000000000000000000000001a055690d9db80000000000000000000000000000000000000000000001f04ef12cb04cf158000000000000000000000000000000000000000000000000000000016345785d8a000000000000000000000000000000000000000000000000000000000000000000640000000000000000000000000000000000000000000000000000000000001b58",
          "blockHash": "0xe0341709aaa799cf99cf11be33fa095101288bc49c8e020793751d1cc0988ced",
          "blockNumber": "0x1fe672",
          "transactionHash": "0x4083715ec0a515c04f9a699049703da0a03a2f8d009711bdaddd56ae153c28ae",
          "transactionIndex": "0x57",
          "logIndex": "0xcb",
          "removed": false
        }
      ],
      "logsBloom": "0x00000000000000000000000000000000000000000000000000000000000000000000000000000000000000000000000000000000000000000000000100000000000000000000000000000000000000000000000000000000000000000000000000000000000000000000000000000000000000000002000000000000000000000000000000000000000000000000000000000000000000000000000000000000000000000000000000040000000000000000000000000000000000000000000000000000000000000000000000000000000000020000000000000000000000000000000000000000000000000000000002000000000000400000000000000000",
      "type": "0x0",
      "transactionHash": "0x4083715ec0a515c04f9a699049703da0a03a2f8d009711bdaddd56ae153c28ae",
      "transactionIndex": "0x57",
      "blockHash": "0xe0341709aaa799cf99cf11be33fa095101288bc49c8e020793751d1cc0988ced",
      "blockNumber": "0x1fe672",
      "gasUsed": "0x2cd7e",
      "effectiveGasPrice": "0x128fd",
      "from": "0x221ba23331e5395f2018edafc2e0e9ff2acb1ada",
      "to": "0xf6fc2726013b1a9b3171c78f3599017e7ca0bd79",
      "contractAddress": null
    }
  ],
  "libraries": [],
  "pending": [],
  "returns": {},
  "timestamp": 1723097540,
  "chain": 17000,
  "commit": "ae1a7f7"
}