{
  "transactions": [
    {
      "hash": "0xf94cb3a0a089c25e6acfda0930a5aca193fbc9f30a23436a04f4e1f7932d67ef",
      "transactionType": "CALL",
      "contractName": null,
      "contractAddress": "0xa42290534f481a16ac46f596051d5ce9f76672e3",
      "function": "setGameConfig((uint40,uint40,uint256,uint256,uint256,uint256,uint40,uint256))",
      "arguments": [
        "(172800, 172800, 16, 30000000000000000000, 600000000000000000000000000, 100000000000000000, 100, 7000)"
      ],
      "transaction": {
        "from": "0x221ba23331e5395f2018edafc2e0e9ff2acb1ada",
        "to": "0xa42290534f481a16ac46f596051d5ce9f76672e3",
        "gas": "0xfe9c",
        "value": "0x0",
        "input": "0x1624f9c1000000000000000000000000000000000000000000000000000000000002a300000000000000000000000000000000000000000000000000000000000002a3000000000000000000000000000000000000000000000000000000000000000010000000000000000000000000000000000000000000000001a055690d9db80000000000000000000000000000000000000000000001f04ef12cb04cf158000000000000000000000000000000000000000000000000000000016345785d8a000000000000000000000000000000000000000000000000000000000000000000640000000000000000000000000000000000000000000000000000000000001b58",
        "nonce": "0x31",
        "chainId": "0x4268"
      },
      "additionalContracts": [],
      "isFixedGasLimit": false
    }
  ],
  "receipts": [
    {
      "status": "0x1",
      "cumulativeGasUsed": "0x4f8208",
      "logs": [
        {
          "address": "0xa42290534f481a16ac46f596051d5ce9f76672e3",
          "topics": [
            "0x60f21b569939931e3524b877e78d6a73606dbe09288de5f92ae92e3f98d98f19"
          ],
          "data": "0x000000000000000000000000000000000000000000000000000000000002a300000000000000000000000000000000000000000000000000000000000002a3000000000000000000000000000000000000000000000000000000000000000010000000000000000000000000000000000000000000000001a055690d9db80000000000000000000000000000000000000000000001f04ef12cb04cf158000000000000000000000000000000000000000000000000000000016345785d8a000000000000000000000000000000000000000000000000000000000000000000640000000000000000000000000000000000000000000000000000000000001b58",
          "blockHash": "0x6854b2bc38f7b8638b683d8c26408f5f967821f6a1c5b042a0062c406211783e",
          "blockNumber": "0x1f9c23",
          "transactionHash": "0xf94cb3a0a089c25e6acfda0930a5aca193fbc9f30a23436a04f4e1f7932d67ef",
          "transactionIndex": "0x28",
          "logIndex": "0x40",
          "removed": false
        }
      ],
      "logsBloom": "0x00000000000000000000000000000000000000000000000000000000000000000000000000000000000000000000000000000000010000000000000100000000000000000000080000000000000000000000000000000000000000000000000000000000000000000000000000000000000000000002000000000000000000000000000000000000000000000000000000000000010000000000000000000000000000000000000000000000000000000000000000000000000000000000000000000000000000000000000000000000000000020000000000000000000000000000000000000000000000000000000000000000000000000000000000000000",
      "type": "0x0",
      "transactionHash": "0xf94cb3a0a089c25e6acfda0930a5aca193fbc9f30a23436a04f4e1f7932d67ef",
      "transactionIndex": "0x28",
      "blockHash": "0x6854b2bc38f7b8638b683d8c26408f5f967821f6a1c5b042a0062c406211783e",
      "blockNumber": "0x1f9c23",
      "gasUsed": "0xb856",
      "effectiveGasPrice": "0x11774",
      "from": "0x221ba23331e5395f2018edafc2e0e9ff2acb1ada",
      "to": "0xa42290534f481a16ac46f596051d5ce9f76672e3",
      "contractAddress": null
    }
  ],
  "libraries": [],
  "pending": [],
  "returns": {},
  "timestamp": 1722850154,
  "chain": 17000,
  "commit": "47dc7c3"
}