{
  "transactions": [
    {
      "hash": "0x10053703d9f011ae554679903f3802acdaac19632a35bdc6c0649c454b2ff2b7",
      "transactionType": "CALL",
      "contractName": null,
      "contractAddress": "0xa42290534f481a16ac46f596051d5ce9f76672e3",
      "function": "setGameConfig((uint40,uint40,uint256,uint256,uint256,uint256,uint40,uint256))",
      "arguments": [
        "(172800, 172800, 16, 30000000000000000000, 600000000, 100000000000000000, 100, 7000)"
      ],
      "transaction": {
        "from": "0x221ba23331e5395f2018edafc2e0e9ff2acb1ada",
        "to": "0xa42290534f481a16ac46f596051d5ce9f76672e3",
        "gas": "0x418fd",
        "value": "0x0",
        "input": "0x1624f9c1000000000000000000000000000000000000000000000000000000000002a300000000000000000000000000000000000000000000000000000000000002a3000000000000000000000000000000000000000000000000000000000000000010000000000000000000000000000000000000000000000001a055690d9db800000000000000000000000000000000000000000000000000000000000023c34600000000000000000000000000000000000000000000000000016345785d8a000000000000000000000000000000000000000000000000000000000000000000640000000000000000000000000000000000000000000000000000000000001b58",
        "nonce": "0x2d",
        "chainId": "0x4268"
      },
      "additionalContracts": [],
      "isFixedGasLimit": false
    },
    {
      "hash": "0xc508accc85c4bb6d691521309489190ccd811c70a99763b3268c2076c93ed34f",
      "transactionType": "CALL",
      "contractName": null,
      "contractAddress": "0xa42290534f481a16ac46f596051d5ce9f76672e3",
      "function": "startGame()",
      "arguments": [],
      "transaction": {
        "from": "0x221ba23331e5395f2018edafc2e0e9ff2acb1ada",
        "to": "0xa42290534f481a16ac46f596051d5ce9f76672e3",
        "gas": "0x2cab3",
        "value": "0x0",
        "input": "0xd65ab5f2",
        "nonce": "0x2e",
        "chainId": "0x4268"
      },
      "additionalContracts": [],
      "isFixedGasLimit": false
    }
  ],
  "receipts": [
    {
      "status": "0x1",
      "cumulativeGasUsed": "0x456c4a",
      "logs": [
        {
          "address": "0xa42290534f481a16ac46f596051d5ce9f76672e3",
          "topics": [
            "0x60f21b569939931e3524b877e78d6a73606dbe09288de5f92ae92e3f98d98f19"
          ],
          "data": "0x000000000000000000000000000000000000000000000000000000000002a300000000000000000000000000000000000000000000000000000000000002a3000000000000000000000000000000000000000000000000000000000000000010000000000000000000000000000000000000000000000001a055690d9db800000000000000000000000000000000000000000000000000000000000023c34600000000000000000000000000000000000000000000000000016345785d8a000000000000000000000000000000000000000000000000000000000000000000640000000000000000000000000000000000000000000000000000000000001b58",
          "blockHash": "0xed61d46ec6f2b38c8e83a6b7be89ed7a2c3d3636e7101d0dfd4e0b1e6689768a",
          "blockNumber": "0x1f9bf9",
          "transactionHash": "0x10053703d9f011ae554679903f3802acdaac19632a35bdc6c0649c454b2ff2b7",
          "transactionIndex": "0x1b",
          "logIndex": "0x29",
          "removed": false
        }
      ],
      "logsBloom": "0x00000000000000000000000000000000000000000000000000000000000000000000000000000000000000000000000000000000010000000000000100000000000000000000080000000000000000000000000000000000000000000000000000000000000000000000000000000000000000000002000000000000000000000000000000000000000000000000000000000000010000000000000000000000000000000000000000000000000000000000000000000000000000000000000000000000000000000000000000000000000000020000000000000000000000000000000000000000000000000000000000000000000000000000000000000000",
      "type": "0x0",
      "transactionHash": "0x10053703d9f011ae554679903f3802acdaac19632a35bdc6c0649c454b2ff2b7",
      "transactionIndex": "0x1b",
      "blockHash": "0xed61d46ec6f2b38c8e83a6b7be89ed7a2c3d3636e7101d0dfd4e0b1e6689768a",
      "blockNumber": "0x1f9bf9",
      "gasUsed": "0x2cd42",
      "effectiveGasPrice": "0x74008f",
      "from": "0x221ba23331e5395f2018edafc2e0e9ff2acb1ada",
      "to": "0xa42290534f481a16ac46f596051d5ce9f76672e3",
      "contractAddress": null
    },
    {
      "status": "0x1",
      "cumulativeGasUsed": "0x4771b9",
      "logs": [
        {
          "address": "0xa42290534f481a16ac46f596051d5ce9f76672e3",
          "topics": [
            "0xdb9e40af5354afdd91663c104f930b000f6777440e2a1b87b4d869f7e4a24b62",
            "0x0000000000000000000000000000000000000000000000000000000000000001"
          ],
          "data": "0x",
          "blockHash": "0xed61d46ec6f2b38c8e83a6b7be89ed7a2c3d3636e7101d0dfd4e0b1e6689768a",
          "blockNumber": "0x1f9bf9",
          "transactionHash": "0xc508accc85c4bb6d691521309489190ccd811c70a99763b3268c2076c93ed34f",
          "transactionIndex": "0x1c",
          "logIndex": "0x2a",
          "removed": false
        }
      ],
      "logsBloom": "0x00000000000000000000000000000000000000000000000000000000000000000000000000000000000000000000000000000000010020000000000000040000000000000000080000000000000000000000000000040000000000000000000000000000000000000000000000000000000000000000000000000000000000000000000000000000000000000000000000000008010000000000000000000000000000000000000000000000000000000000000000000000000000000000000000000000000000000000000000000000000000000000000000000000000040800000000000000000000000000000000000000000000000000000000000000000",
      "type": "0x0",
      "transactionHash": "0xc508accc85c4bb6d691521309489190ccd811c70a99763b3268c2076c93ed34f",
      "transactionIndex": "0x1c",
      "blockHash": "0xed61d46ec6f2b38c8e83a6b7be89ed7a2c3d3636e7101d0dfd4e0b1e6689768a",
      "blockNumber": "0x1f9bf9",
      "gasUsed": "0x2056f",
      "effectiveGasPrice": "0x74008f",
      "from": "0x221ba23331e5395f2018edafc2e0e9ff2acb1ada",
      "to": "0xa42290534f481a16ac46f596051d5ce9f76672e3",
      "contractAddress": null
    }
  ],
  "libraries": [],
  "pending": [],
  "returns": {},
  "timestamp": 1722849639,
  "chain": 17000,
  "commit": "47dc7c3"
}