{
  "transactions": [
    {
      "hash": "0x497133d105b9d6a42a0071acded205e204475600c5619f0e8e6d053e697fd06d",
      "transactionType": "CALL",
      "contractName": null,
      "contractAddress": "0xb628f35dda1c65a87f57608cdbf5db9ca74377cd",
      "function": "setGameConfig((uint40,uint40,uint256,uint256,uint256,uint256,uint40,uint256))",
      "arguments": [
        "(172800, 172800, 16, 30000000000000000000, 60000000, 200000000000000000, 100, 7000)"
      ],
      "transaction": {
        "from": "0x221ba23331e5395f2018edafc2e0e9ff2acb1ada",
        "to": "0xb628f35dda1c65a87f57608cdbf5db9ca74377cd",
        "gas": "0x418fd",
        "value": "0x0",
        "input": "0x1624f9c1000000000000000000000000000000000000000000000000000000000002a300000000000000000000000000000000000000000000000000000000000002a3000000000000000000000000000000000000000000000000000000000000000010000000000000000000000000000000000000000000000001a055690d9db80000000000000000000000000000000000000000000000000000000000000393870000000000000000000000000000000000000000000000000002c68af0bb14000000000000000000000000000000000000000000000000000000000000000000640000000000000000000000000000000000000000000000000000000000001b58",
        "nonce": "0x19",
        "chainId": "0x4268"
      },
      "additionalContracts": [],
      "isFixedGasLimit": false
    },
    {
      "hash": "0x02a6c2aaafc3b50fa736bbcbd4d5ebb254badb9dfd1362383d3de7ebae9ef735",
      "transactionType": "CALL",
      "contractName": null,
      "contractAddress": "0xb628f35dda1c65a87f57608cdbf5db9ca74377cd",
      "function": "startGame()",
      "arguments": [],
      "transaction": {
        "from": "0x221ba23331e5395f2018edafc2e0e9ff2acb1ada",
        "to": "0xb628f35dda1c65a87f57608cdbf5db9ca74377cd",
        "gas": "0x2ca3a",
        "value": "0x0",
        "input": "0xd65ab5f2",
        "nonce": "0x1a",
        "chainId": "0x4268"
      },
      "additionalContracts": [],
      "isFixedGasLimit": false
    }
  ],
  "receipts": [
    {
      "status": "0x1",
      "cumulativeGasUsed": "0x6d2ba4",
      "logs": [
        {
          "address": "0xb628f35dda1c65a87f57608cdbf5db9ca74377cd",
          "topics": [
            "0x60f21b569939931e3524b877e78d6a73606dbe09288de5f92ae92e3f98d98f19"
          ],
          "data": "0x000000000000000000000000000000000000000000000000000000000002a300000000000000000000000000000000000000000000000000000000000002a3000000000000000000000000000000000000000000000000000000000000000010000000000000000000000000000000000000000000000001a055690d9db80000000000000000000000000000000000000000000000000000000000000393870000000000000000000000000000000000000000000000000002c68af0bb14000000000000000000000000000000000000000000000000000000000000000000640000000000000000000000000000000000000000000000000000000000001b58",
          "blockHash": "0x33ac7a3d8b36b455eea60ba9a15ee98d04d66cb5db24f8ca0c8913c9b01a93cc",
          "blockNumber": "0x1f4e0f",
          "transactionHash": "0x497133d105b9d6a42a0071acded205e204475600c5619f0e8e6d053e697fd06d",
          "transactionIndex": "0x3c",
          "logIndex": "0x54",
          "removed": false
        }
      ],
      "logsBloom": "0x00000000000000000000000000000000000000000000000000000000000000000000000000000000000000000000000000000000000000000000000100000000000000000000000000000000000000001000000000000000000000000000000000000000000000000000000000000000000000000002000000000000000000000000000000000000000000400000000000000000000000000000000000000000000000000000000000000000000000000000000000000000000000000000000000000000000000000000000000000000000000020000000200000000000000000000000000000000000000000000000000000000000000000000000000000000",
      "type": "0x0",
      "transactionHash": "0x497133d105b9d6a42a0071acded205e204475600c5619f0e8e6d053e697fd06d",
      "transactionIndex": "0x3c",
      "blockHash": "0x33ac7a3d8b36b455eea60ba9a15ee98d04d66cb5db24f8ca0c8913c9b01a93cc",
      "blockNumber": "0x1f4e0f",
      "gasUsed": "0x2cd42",
      "effectiveGasPrice": "0x882",
      "from": "0x221ba23331e5395f2018edafc2e0e9ff2acb1ada",
      "to": "0xb628f35dda1c65a87f57608cdbf5db9ca74377cd",
      "contractAddress": null
    },
    {
      "status": "0x1",
      "cumulativeGasUsed": "0x6f82c3",
      "logs": [
        {
          "address": "0xb628f35dda1c65a87f57608cdbf5db9ca74377cd",
          "topics": [
            "0xdb9e40af5354afdd91663c104f930b000f6777440e2a1b87b4d869f7e4a24b62",
            "0x0000000000000000000000000000000000000000000000000000000000000001"
          ],
          "data": "0x",
          "blockHash": "0x33ac7a3d8b36b455eea60ba9a15ee98d04d66cb5db24f8ca0c8913c9b01a93cc",
          "blockNumber": "0x1f4e0f",
          "transactionHash": "0x02a6c2aaafc3b50fa736bbcbd4d5ebb254badb9dfd1362383d3de7ebae9ef735",
          "transactionIndex": "0x3e",
          "logIndex": "0x55",
          "removed": false
        }
      ],
      "logsBloom": "0x00000000000000000000000000000000000000000000000000000000000000000000000000000000000000000000000000000000000020000000000000040000000000000000000000000000000000001000000000040000000000000000000000000000000000000000000000000000000000000000000000000000000000000000000000000000000000400000000000000008000000000000000000000000000000000000000000000000000000000000000000000000000000000000000000000000000000000000000000000000000000000000000200000000000040800000000000000000000000000000000000000000000000000000000000000000",
      "type": "0x0",
      "transactionHash": "0x02a6c2aaafc3b50fa736bbcbd4d5ebb254badb9dfd1362383d3de7ebae9ef735",
      "transactionIndex": "0x3e",
      "blockHash": "0x33ac7a3d8b36b455eea60ba9a15ee98d04d66cb5db24f8ca0c8913c9b01a93cc",
      "blockNumber": "0x1f4e0f",
      "gasUsed": "0x20517",
      "effectiveGasPrice": "0x882",
      "from": "0x221ba23331e5395f2018edafc2e0e9ff2acb1ada",
      "to": "0xb628f35dda1c65a87f57608cdbf5db9ca74377cd",
      "contractAddress": null
    }
  ],
  "libraries": [],
  "pending": [],
  "returns": {},
  "timestamp": 1722591484,
  "chain": 17000,
  "commit": "8f6e260"
}