{
  "transactions": [
    {
      "hash": "0x0fd9d4cb2aa5cc57ff1ba8f8816508dfe544dfdcc93754ff0af77d45cc3b73f5",
      "transactionType": "CALL",
      "contractName": null,
      "contractAddress": "0x5de23b2917b9dc03425f72281c189b140a7d5524",
      "function": "setGameConfig((uint40,uint40,uint256,uint256,uint256,uint256,uint40,uint256,(uint256,uint256,uint256)))",
      "arguments": [
        "(172800, 172800, 16, 1000000000000000000, 600000000000000000000000000, 100000000000000000, 100, 7000, (200, 300, 500))"
      ],
      "transaction": {
        "from": "0x221ba23331e5395f2018edafc2e0e9ff2acb1ada",
        "to": "0x5de23b2917b9dc03425f72281c189b140a7d5524",
        "gas": "0x54ea1",
        "value": "0x0",
        "input": "0x3ce017a8000000000000000000000000000000000000000000000000000000000002a300000000000000000000000000000000000000000000000000000000000002a30000000000000000000000000000000000000000000000000000000000000000100000000000000000000000000000000000000000000000000de0b6b3a7640000000000000000000000000000000000000000000001f04ef12cb04cf158000000000000000000000000000000000000000000000000000000016345785d8a000000000000000000000000000000000000000000000000000000000000000000640000000000000000000000000000000000000000000000000000000000001b5800000000000000000000000000000000000000000000000000000000000000c8000000000000000000000000000000000000000000000000000000000000012c00000000000000000000000000000000000000000000000000000000000001f4",
        "nonce": "0x53",
        "chainId": "0x4268"
      },
      "additionalContracts": [],
      "isFixedGasLimit": false
    },
    {
      "hash": "0x64c43d51d3988cb1ba9deeeaaa38f1ef9acbf36c7c3c479fb16fe460c200adac",
      "transactionType": "CALL",
      "contractName": null,
      "contractAddress": "0x5de23b2917b9dc03425f72281c189b140a7d5524",
      "function": "startGame()",
      "arguments": [],
      "transaction": {
        "from": "0x221ba23331e5395f2018edafc2e0e9ff2acb1ada",
        "to": "0x5de23b2917b9dc03425f72281c189b140a7d5524",
        "gas": "0x4a67d",
        "value": "0x0",
        "input": "0xd65ab5f2",
        "nonce": "0x54",
        "chainId": "0x4268"
      },
      "additionalContracts": [],
      "isFixedGasLimit": false
    }
  ],
  "receipts": [
    {
      "status": "0x1",
      "cumulativeGasUsed": "0x326259",
      "logs": [
        {
          "address": "0x5de23b2917b9dc03425f72281c189b140a7d5524",
          "topics": [
            "0xdb340365a1fa6f3b9183dd0f199837cf3ef34d811b8be93dfbdccaac15cbf48a"
          ],
          "data": "0x000000000000000000000000000000000000000000000000000000000002a300000000000000000000000000000000000000000000000000000000000002a30000000000000000000000000000000000000000000000000000000000000000100000000000000000000000000000000000000000000000000de0b6b3a7640000000000000000000000000000000000000000000001f04ef12cb04cf158000000000000000000000000000000000000000000000000000000016345785d8a000000000000000000000000000000000000000000000000000000000000000000640000000000000000000000000000000000000000000000000000000000001b5800000000000000000000000000000000000000000000000000000000000000c8000000000000000000000000000000000000000000000000000000000000012c00000000000000000000000000000000000000000000000000000000000001f4",
          "blockHash": "0x406595b2ec4304e052c91cd4f60fbbb55f52ca49fb2e2d66d7c59427aa7d599a",
          "blockNumber": "0x209c42",
          "transactionHash": "0x0fd9d4cb2aa5cc57ff1ba8f8816508dfe544dfdcc93754ff0af77d45cc3b73f5",
          "transactionIndex": "0x12",
          "logIndex": "0x3d",
          "removed": false
        }
      ],
      "logsBloom": "0x00000000000000000000000000000000000000000000000000000000000000000000000000000000000000000000000000000000000000000000000000000000000000000000000000080000000000000000000000000000000000000000000000000000000000000000000000000000000000000000000000000000000000000000000000800000000000000000000000000000040000000000000000000000000000000000000000000000000000000000000000000000000000000000000000000000000000200000000000000000000000000000000000000000000000008000000000000000000000000000000000000000000000000004000000000000",
      "type": "0x0",
      "transactionHash": "0x0fd9d4cb2aa5cc57ff1ba8f8816508dfe544dfdcc93754ff0af77d45cc3b73f5",
      "transactionIndex": "0x12",
      "blockHash": "0x406595b2ec4304e052c91cd4f60fbbb55f52ca49fb2e2d66d7c59427aa7d599a",
      "blockNumber": "0x209c42",
      "gasUsed": "0x3d7a0",
      "effectiveGasPrice": "0x1176e",
      "from": "0x221ba23331e5395f2018edafc2e0e9ff2acb1ada",
      "to": "0x5de23b2917b9dc03425f72281c189b140a7d5524",
      "contractAddress": null
    },
    {
      "status": "0x1",
      "cumulativeGasUsed": "0x35905c",
      "logs": [
        {
          "address": "0x5de23b2917b9dc03425f72281c189b140a7d5524",
          "topics": [
            "0xdb9e40af5354afdd91663c104f930b000f6777440e2a1b87b4d869f7e4a24b62",
            "0x0000000000000000000000000000000000000000000000000000000000000001"
          ],
          "data": "0x",
          "blockHash": "0x406595b2ec4304e052c91cd4f60fbbb55f52ca49fb2e2d66d7c59427aa7d599a",
          "blockNumber": "0x209c42",
          "transactionHash": "0x64c43d51d3988cb1ba9deeeaaa38f1ef9acbf36c7c3c479fb16fe460c200adac",
          "transactionIndex": "0x13",
          "logIndex": "0x3e",
          "removed": false
        }
      ],
      "logsBloom": "0x00000000000000000000000000000000000000000000000000000000000000000000000000000000000000000000000000000000000020000000000000040000000000000000000000000000000000000000000000040000000000000000000000000000000000000000000000000000000000000000000000000000000000000000000000800000000000000000000000000008000000000000000000000000000000000000000000000000000000000000000000000000000000000000000000000000000000000000000000000000000000000000000000000000000040808000000000000000000000000000000000000000000000000004000000000000",
      "type": "0x0",
      "transactionHash": "0x64c43d51d3988cb1ba9deeeaaa38f1ef9acbf36c7c3c479fb16fe460c200adac",
      "transactionIndex": "0x13",
      "blockHash": "0x406595b2ec4304e052c91cd4f60fbbb55f52ca49fb2e2d66d7c59427aa7d599a",
      "blockNumber": "0x209c42",
      "gasUsed": "0x32e03",
      "effectiveGasPrice": "0x1176e",
      "from": "0x221ba23331e5395f2018edafc2e0e9ff2acb1ada",
      "to": "0x5de23b2917b9dc03425f72281c189b140a7d5524",
      "contractAddress": null
    }
  ],
  "libraries": [],
  "pending": [],
  "returns": {},
  "timestamp": 1723715849,
  "chain": 17000,
  "commit": "63b0347"
}