{
  "transactions": [
    {
      "hash": "0x05e9dfd7db1cee700dbbc24c517c705b20fd4ffe1193dd0e6f4c3551e131cf8c",
      "transactionType": "CALL",
      "contractName": null,
      "contractAddress": "0xfbd83f5ed8355159b00894dbe07a292b317473a6",
      "function": "setGameConfig((uint40,uint40,uint256,uint256,uint256,uint256,uint24,uint40,uint256))",
      "arguments": [
        "(172800, 172800, 16, 30000000000000000000, 60000000, 200000000000000000, 100, 100, 7000)"
      ],
      "transaction": {
        "from": "0x221ba23331e5395f2018edafc2e0e9ff2acb1ada",
        "to": "0xfbd83f5ed8355159b00894dbe07a292b317473a6",
        "gas": "0x3e35a",
        "value": "0x0",
        "input": "0xd51d703f000000000000000000000000000000000000000000000000000000000002a300000000000000000000000000000000000000000000000000000000000002a3000000000000000000000000000000000000000000000000000000000000000010000000000000000000000000000000000000000000000001a055690d9db80000000000000000000000000000000000000000000000000000000000000393870000000000000000000000000000000000000000000000000002c68af0bb140000000000000000000000000000000000000000000000000000000000000000006400000000000000000000000000000000000000000000000000000000000000640000000000000000000000000000000000000000000000000000000000001b58",
        "nonce": "0x11",
        "chainId": "0x4268"
      },
      "additionalContracts": [],
      "isFixedGasLimit": false
    },
    {
      "hash": "0x9347dc86724421e5639d211b59df2b9f83891e278aa09d23b481b46bc701ce8d",
      "transactionType": "CALL",
      "contractName": null,
      "contractAddress": "0xfbd83f5ed8355159b00894dbe07a292b317473a6",
      "function": "startGame()",
      "arguments": [],
      "transaction": {
        "from": "0x221ba23331e5395f2018edafc2e0e9ff2acb1ada",
        "to": "0xfbd83f5ed8355159b00894dbe07a292b317473a6",
        "gas": "0x34944",
        "value": "0x0",
        "input": "0xd65ab5f2",
        "nonce": "0x12",
        "chainId": "0x4268"
      },
      "additionalContracts": [],
      "isFixedGasLimit": false
    }
  ],
  "receipts": [
    {
      "status": "0x1",
      "cumulativeGasUsed": "0x74bf2a",
      "logs": [
        {
          "address": "0xfbd83f5ed8355159b00894dbe07a292b317473a6",
          "topics": [
            "0x0eb7c406d4301bd414f8f79f015f51e298cd925258b636122adc58fbb38dca2d"
          ],
          "data": "0x000000000000000000000000000000000000000000000000000000000002a300000000000000000000000000000000000000000000000000000000000002a3000000000000000000000000000000000000000000000000000000000000000010000000000000000000000000000000000000000000000001a055690d9db80000000000000000000000000000000000000000000000000000000000000393870000000000000000000000000000000000000000000000000002c68af0bb140000000000000000000000000000000000000000000000000000000000000000006400000000000000000000000000000000000000000000000000000000000000640000000000000000000000000000000000000000000000000000000000001b58",
          "blockHash": "0x77c1b5f6bde38f842e9a3dcf2bc2dd3c23c97daf11fbd416cd07ff8501d75b2e",
          "blockNumber": "0x1f4685",
          "transactionHash": "0x05e9dfd7db1cee700dbbc24c517c705b20fd4ffe1193dd0e6f4c3551e131cf8c",
          "transactionIndex": "0x42",
          "logIndex": "0x32",
          "removed": false
        }
      ],
      "logsBloom": "0x00000000000000000000000000000000000000000000000000000000000000000000000000000000000000000000000000000000000000000000000000000000000000000000000000000000000000000000000000000000000000000000000000000000204000000000000010000000000000000000000000000000000000000000000000000000000000000000000000000000000000000000000002000000000000000000000000000000000000000000000000000000000000000000000000000000000000000004000000000000000000000000000000000000000000000000000000000000001000000000000000000000000000000000000000000000",
      "type": "0x0",
      "transactionHash": "0x05e9dfd7db1cee700dbbc24c517c705b20fd4ffe1193dd0e6f4c3551e131cf8c",
      "transactionIndex": "0x42",
      "blockHash": "0x77c1b5f6bde38f842e9a3dcf2bc2dd3c23c97daf11fbd416cd07ff8501d75b2e",
      "blockNumber": "0x1f4685",
      "gasUsed": "0x2d09f",
      "effectiveGasPrice": "0x8715c7",
      "from": "0x221ba23331e5395f2018edafc2e0e9ff2acb1ada",
      "to": "0xfbd83f5ed8355159b00894dbe07a292b317473a6",
      "contractAddress": null
    },
    {
      "status": "0x1",
      "cumulativeGasUsed": "0x77203a",
      "logs": [
        {
          "address": "0xfbd83f5ed8355159b00894dbe07a292b317473a6",
          "topics": [
            "0xdb9e40af5354afdd91663c104f930b000f6777440e2a1b87b4d869f7e4a24b62",
            "0x0000000000000000000000000000000000000000000000000000000000000001"
          ],
          "data": "0x",
          "blockHash": "0x77c1b5f6bde38f842e9a3dcf2bc2dd3c23c97daf11fbd416cd07ff8501d75b2e",
          "blockNumber": "0x1f4685",
          "transactionHash": "0x9347dc86724421e5639d211b59df2b9f83891e278aa09d23b481b46bc701ce8d",
          "transactionIndex": "0x43",
          "logIndex": "0x33",
          "removed": false
        }
      ],
      "logsBloom": "0x00000000000000000000000000000000000000000000000000000000000000000000000000000000000000000000000000000000000020000000000000040000000000000000000000000000000000000000000000040000000000000000000000000000004000000000000000000000000000000000000000000000000000000000000000000000000000000000000000000008000000000000000000000000000000000000000000000000000000000000000000000000000000000000000000000000000000000004000000000000000000000000000000000000000040800000000000000000001000000000000000000000000000000000000000000000",
      "type": "0x0",
      "transactionHash": "0x9347dc86724421e5639d211b59df2b9f83891e278aa09d23b481b46bc701ce8d",
      "transactionIndex": "0x43",
      "blockHash": "0x77c1b5f6bde38f842e9a3dcf2bc2dd3c23c97daf11fbd416cd07ff8501d75b2e",
      "blockNumber": "0x1f4685",
      "gasUsed": "0x26110",
      "effectiveGasPrice": "0x8715c7",
      "from": "0x221ba23331e5395f2018edafc2e0e9ff2acb1ada",
      "to": "0xfbd83f5ed8355159b00894dbe07a292b317473a6",
      "contractAddress": null
    }
  ],
  "libraries": [],
  "pending": [],
  "returns": {},
  "timestamp": 1722566839,
  "chain": 17000,
  "commit": "2b0e276"
}