{
  "transactions": [
    {
      "hash": "0x97697b12cd51a47b902ae8a24171475d2967dd545058b2635efd4ea381fccf78",
      "transactionType": "CALL",
      "contractName": null,
      "contractAddress": "0x636268bb397f1cea45a83f9315f6fd5ad97f6e7a",
      "function": "setGameConfig((uint40,uint40,uint256,uint256,uint256,uint256,uint40,uint256,(uint256,uint256,uint256)))",
      "arguments": [
        "(172800, 172800, 16, 1000000000000000000, 600000000000000000000000000, 100000000000000000, 10, 7000, (200, 300, 500))"
      ],
      "transaction": {
        "from": "0x221ba23331e5395f2018edafc2e0e9ff2acb1ada",
        "to": "0x636268bb397f1cea45a83f9315f6fd5ad97f6e7a",
        "gas": "0x56a29",
        "value": "0x0",
        "input": "0x3ce017a8000000000000000000000000000000000000000000000000000000000002a300000000000000000000000000000000000000000000000000000000000002a30000000000000000000000000000000000000000000000000000000000000000100000000000000000000000000000000000000000000000000de0b6b3a7640000000000000000000000000000000000000000000001f04ef12cb04cf158000000000000000000000000000000000000000000000000000000016345785d8a0000000000000000000000000000000000000000000000000000000000000000000a0000000000000000000000000000000000000000000000000000000000001b5800000000000000000000000000000000000000000000000000000000000000c8000000000000000000000000000000000000000000000000000000000000012c00000000000000000000000000000000000000000000000000000000000001f4",
        "nonce": "0x63",
        "chainId": "0x4268"
      },
      "additionalContracts": [],
      "isFixedGasLimit": false
    },
    {
      "hash": "0x84a1d2d17837431dc0e88170ed7c2b66413fd9b735227ed9f4efbff2abe6e6b2",
      "transactionType": "CALL",
      "contractName": null,
      "contractAddress": "0x636268bb397f1cea45a83f9315f6fd5ad97f6e7a",
      "function": "startGame()",
      "arguments": [],
      "transaction": {
        "from": "0x221ba23331e5395f2018edafc2e0e9ff2acb1ada",
        "to": "0x636268bb397f1cea45a83f9315f6fd5ad97f6e7a",
        "gas": "0x47fad",
        "value": "0x0",
        "input": "0xd65ab5f2",
        "nonce": "0x64",
        "chainId": "0x4268"
      },
      "additionalContracts": [],
      "isFixedGasLimit": false
    }
  ],
  "receipts": [
    {
      "status": "0x1",
      "cumulativeGasUsed": "0x839487",
      "logs": [
        {
          "address": "0x636268bb397f1cea45a83f9315f6fd5ad97f6e7a",
          "topics": [
            "0xdb340365a1fa6f3b9183dd0f199837cf3ef34d811b8be93dfbdccaac15cbf48a"
          ],
          "data": "0x000000000000000000000000000000000000000000000000000000000002a300000000000000000000000000000000000000000000000000000000000002a30000000000000000000000000000000000000000000000000000000000000000100000000000000000000000000000000000000000000000000de0b6b3a7640000000000000000000000000000000000000000000001f04ef12cb04cf158000000000000000000000000000000000000000000000000000000016345785d8a0000000000000000000000000000000000000000000000000000000000000000000a0000000000000000000000000000000000000000000000000000000000001b5800000000000000000000000000000000000000000000000000000000000000c8000000000000000000000000000000000000000000000000000000000000012c00000000000000000000000000000000000000000000000000000000000001f4",
          "blockHash": "0xb3c9165dc23f4aacdc61f11803cd595e3a164d55d32c4926a0aa3c2f8c318fee",
          "blockNumber": "0x2115ea",
          "transactionHash": "0x97697b12cd51a47b902ae8a24171475d2967dd545058b2635efd4ea381fccf78",
          "transactionIndex": "0x2a",
          "logIndex": "0x49",
          "removed": false
        }
      ],
      "logsBloom": "0x00000000000000000000000000000000000000000000000000000000000000000000000000000000000000000000000000000000000000000000000000000000000000000000000000080000000000000000000000000000000000000000000000000800000000000000000000000000000000000000000000000000000000000000000000000000000000000000000000000001040000000000000000000000000000000000000000000000000000000000000000000000000000000000000000000000000000200000000000000000000000000000000000000000000000000000000000000000000000000000000400000000000000000000000000000000",
      "type": "0x0",
      "transactionHash": "0x97697b12cd51a47b902ae8a24171475d2967dd545058b2635efd4ea381fccf78",
      "transactionIndex": "0x2a",
      "blockHash": "0xb3c9165dc23f4aacdc61f11803cd595e3a164d55d32c4926a0aa3c2f8c318fee",
      "blockNumber": "0x2115ea",
      "gasUsed": "0x3eb8f",
      "effectiveGasPrice": "0x100945",
      "from": "0x221ba23331e5395f2018edafc2e0e9ff2acb1ada",
      "to": "0x636268bb397f1cea45a83f9315f6fd5ad97f6e7a",
      "contractAddress": null
    },
    {
      "status": "0x1",
      "cumulativeGasUsed": "0x86d653",
      "logs": [
        {
          "address": "0x636268bb397f1cea45a83f9315f6fd5ad97f6e7a",
          "topics": [
            "0xdb9e40af5354afdd91663c104f930b000f6777440e2a1b87b4d869f7e4a24b62",
            "0x0000000000000000000000000000000000000000000000000000000000000001"
          ],
          "data": "0x",
          "blockHash": "0xb3c9165dc23f4aacdc61f11803cd595e3a164d55d32c4926a0aa3c2f8c318fee",
          "blockNumber": "0x2115ea",
          "transactionHash": "0x84a1d2d17837431dc0e88170ed7c2b66413fd9b735227ed9f4efbff2abe6e6b2",
          "transactionIndex": "0x2b",
          "logIndex": "0x4a",
          "removed": false
        }
      ],
      "logsBloom": "0x00000000000000000000000000000000000000000000000000000000000000000000000000000000000000000000000000000000000020000000000000040000000000000000000000000000000000000000000000040000000000000000000000000800000000000000000000000000000000000000000000000000000000000000000000000000000000000000000000000009000000000000000000000000000000000000000000000000000000000000000000000000000000000000000000000000000000000000000000000000000000000000000000000000000040800000000000000000000000000000000400000000000000000000000000000000",
      "type": "0x0",
      "transactionHash": "0x84a1d2d17837431dc0e88170ed7c2b66413fd9b735227ed9f4efbff2abe6e6b2",
      "transactionIndex": "0x2b",
      "blockHash": "0xb3c9165dc23f4aacdc61f11803cd595e3a164d55d32c4926a0aa3c2f8c318fee",
      "blockNumber": "0x2115ea",
      "gasUsed": "0x341cc",
      "effectiveGasPrice": "0x100945",
      "from": "0x221ba23331e5395f2018edafc2e0e9ff2acb1ada",
      "to": "0x636268bb397f1cea45a83f9315f6fd5ad97f6e7a",
      "contractAddress": null
    }
  ],
  "libraries": [],
  "pending": [],
  "returns": {},
  "timestamp": 1724131550,
  "chain": 17000,
  "commit": "63b0347"
}