{
  "transactions": [
    {
      "hash": "0x596d30d65c1fdb31179418963c954ba8d6b8f2dfecb4730dcb4e2d78abd53910",
      "transactionType": "CALL",
      "contractName": null,
      "contractAddress": "0x34925d9406fa4d4a5e2c20bbbcbee4e3e14d34f8",
      "function": "setGameConfig((uint40,uint40,uint256,uint256,uint256,uint256,uint40,uint256))",
      "arguments": [
        "(172800, 172800, 16, 30000000000000000000, 60000000, 100000000000000000, 100, 7000)"
      ],
      "transaction": {
        "from": "0x221ba23331e5395f2018edafc2e0e9ff2acb1ada",
        "to": "0x34925d9406fa4d4a5e2c20bbbcbee4e3e14d34f8",
        "gas": "0xfe38",
        "value": "0x0",
        "input": "0x1624f9c1000000000000000000000000000000000000000000000000000000000002a300000000000000000000000000000000000000000000000000000000000002a3000000000000000000000000000000000000000000000000000000000000000010000000000000000000000000000000000000000000000001a055690d9db800000000000000000000000000000000000000000000000000000000000003938700000000000000000000000000000000000000000000000000016345785d8a000000000000000000000000000000000000000000000000000000000000000000640000000000000000000000000000000000000000000000000000000000001b58",
        "nonce": "0x23",
        "chainId": "0x4268"
      },
      "additionalContracts": [],
      "isFixedGasLimit": false
    }
  ],
  "receipts": [
    {
      "status": "0x1",
      "cumulativeGasUsed": "0x2a2bf9",
      "logs": [
        {
          "address": "0x34925d9406fa4d4a5e2c20bbbcbee4e3e14d34f8",
          "topics": [
            "0x60f21b569939931e3524b877e78d6a73606dbe09288de5f92ae92e3f98d98f19"
          ],
          "data": "0x000000000000000000000000000000000000000000000000000000000002a300000000000000000000000000000000000000000000000000000000000002a3000000000000000000000000000000000000000000000000000000000000000010000000000000000000000000000000000000000000000001a055690d9db800000000000000000000000000000000000000000000000000000000000003938700000000000000000000000000000000000000000000000000016345785d8a000000000000000000000000000000000000000000000000000000000000000000640000000000000000000000000000000000000000000000000000000000001b58",
          "blockHash": "0x543430aad783946514de65c99f6e202c493936c9edefbfbc7c6ab91a6455595b",
          "blockNumber": "0x1f99e2",
          "transactionHash": "0x596d30d65c1fdb31179418963c954ba8d6b8f2dfecb4730dcb4e2d78abd53910",
          "transactionIndex": "0x12",
          "logIndex": "0x1a",
          "removed": false
        }
      ],
      "logsBloom": "0x00400000000000000000000000000000000000000000000000000000000000008000000000000000000000000000000000000000000001000000000100000000000000000000000000000000000000000000000000000000000000000000000000000000000000000000000000000000000000000002000000000000000000000000000000000000000000000000000000000000000000000000000000000000000000000000000000000000000000000000000000000000000000000000000000000000000000000000000000000000000000020000000000000000000000000000000000000000000000000000000000000000000000000000000000000000",
      "type": "0x0",
      "transactionHash": "0x596d30d65c1fdb31179418963c954ba8d6b8f2dfecb4730dcb4e2d78abd53910",
      "transactionIndex": "0x12",
      "blockHash": "0x543430aad783946514de65c99f6e202c493936c9edefbfbc7c6ab91a6455595b",
      "blockNumber": "0x1f99e2",
      "gasUsed": "0xb80e",
      "effectiveGasPrice": "0x17af0",
      "from": "0x221ba23331e5395f2018edafc2e0e9ff2acb1ada",
      "to": "0x34925d9406fa4d4a5e2c20bbbcbee4e3e14d34f8",
      "contractAddress": null
    }
  ],
  "libraries": [],
  "pending": [],
  "returns": {},
  "timestamp": 1722842703,
  "chain": 17000,
  "commit": "47dc7c3"
}