{
  "transactions": [
    {
      "hash": "0x41e4f0370b1391707afd1301261f2dbd687e0d1fbb3dc66777b0448df1795e2e",
      "transactionType": "CALL",
      "contractName": null,
      "contractAddress": "0xf6fc2726013b1a9b3171c78f3599017e7ca0bd79",
      "function": "setGameConfig((uint40,uint40,uint256,uint256,uint256,uint256,uint40,uint256))",
      "arguments": [
        "(172800, 172800, 16, 10000000000000000000, 600000000000000000000000000, 100000000000000000, 100, 7000)"
      ],
      "transaction": {
        "from": "0x221ba23331e5395f2018edafc2e0e9ff2acb1ada",
        "to": "0xf6fc2726013b1a9b3171c78f3599017e7ca0bd79",
        "gas": "0xfe7a",
        "value": "0x0",
        "input": "0x1624f9c1000000000000000000000000000000000000000000000000000000000002a300000000000000000000000000000000000000000000000000000000000002a30000000000000000000000000000000000000000000000000000000000000000100000000000000000000000000000000000000000000000008ac7230489e80000000000000000000000000000000000000000000001f04ef12cb04cf158000000000000000000000000000000000000000000000000000000016345785d8a000000000000000000000000000000000000000000000000000000000000000000640000000000000000000000000000000000000000000000000000000000001b58",
        "nonce": "0x45",
        "chainId": "0x4268"
      },
      "additionalContracts": [],
      "isFixedGasLimit": false
    }
  ],
  "receipts": [
    {
      "status": "0x1",
      "cumulativeGasUsed": "0x306bc3",
      "logs": [
        {
          "address": "0xf6fc2726013b1a9b3171c78f3599017e7ca0bd79",
          "topics": [
            "0x60f21b569939931e3524b877e78d6a73606dbe09288de5f92ae92e3f98d98f19"
          ],
          "data": "0x000000000000000000000000000000000000000000000000000000000002a300000000000000000000000000000000000000000000000000000000000002a30000000000000000000000000000000000000000000000000000000000000000100000000000000000000000000000000000000000000000008ac7230489e80000000000000000000000000000000000000000000001f04ef12cb04cf158000000000000000000000000000000000000000000000000000000016345785d8a000000000000000000000000000000000000000000000000000000000000000000640000000000000000000000000000000000000000000000000000000000001b58",
          "blockHash": "0x68d94484fc2bc1ac70d00e156495aba5ed590d23f3386260ff996016f9dd7ab5",
          "blockNumber": "0x208309",
          "transactionHash": "0x41e4f0370b1391707afd1301261f2dbd687e0d1fbb3dc66777b0448df1795e2e",
          "transactionIndex": "0x16",
          "logIndex": "0x37",
          "removed": false
        }
      ],
      "logsBloom": "0x00000000000000000000000000000000000000000000000000000000000000000000000000000000000000000000000000000000000000000000000100000000000000000000000000000000000000000000000000000000000000000000000000000000000000000000000000000000000000000002000000000000000000000000000000000000000000000000000000000000000000000000000000000000000000000000000000040000000000000000000000000000000000000000000000000000000000000000000000000000000000020000000000000000000000000000000000000000000000000000000002000000000000400000000000000000",
      "type": "0x0",
      "transactionHash": "0x41e4f0370b1391707afd1301261f2dbd687e0d1fbb3dc66777b0448df1795e2e",
      "transactionIndex": "0x16",
      "blockHash": "0x68d94484fc2bc1ac70d00e156495aba5ed590d23f3386260ff996016f9dd7ab5",
      "blockNumber": "0x208309",
      "gasUsed": "0xb83e",
      "effectiveGasPrice": "0x2cdd98f",
      "from": "0x221ba23331e5395f2018edafc2e0e9ff2acb1ada",
      "to": "0xf6fc2726013b1a9b3171c78f3599017e7ca0bd79",
      "contractAddress": null
    }
  ],
  "libraries": [],
  "pending": [],
  "returns": {},
  "timestamp": 1723630157,
  "chain": 17000,
  "commit": "3aa012a"
}