{
  "transactions": [
    {
      "hash": "0x6d35e66f9954ced74cfe0da3a8f6fc84a5de90eebdcacbb635023438ce581bc3",
      "transactionType": "CALL",
      "contractName": null,
      "contractAddress": "0x34925d9406fa4d4a5e2c20bbbcbee4e3e14d34f8",
      "function": "setGameConfig((uint40,uint40,uint256,uint256,uint256,uint256,uint40,uint256))",
      "arguments": [
        "(172800, 172800, 16, 30000000000000000000, 60000000, 200000000000000000, 100, 7000)"
      ],
      "transaction": {
        "from": "0x221ba23331e5395f2018edafc2e0e9ff2acb1ada",
        "to": "0x34925d9406fa4d4a5e2c20bbbcbee4e3e14d34f8",
        "gas": "0x418fd",
        "value": "0x0",
        "input": "0x1624f9c1000000000000000000000000000000000000000000000000000000000002a300000000000000000000000000000000000000000000000000000000000002a3000000000000000000000000000000000000000000000000000000000000000010000000000000000000000000000000000000000000000001a055690d9db80000000000000000000000000000000000000000000000000000000000000393870000000000000000000000000000000000000000000000000002c68af0bb14000000000000000000000000000000000000000000000000000000000000000000640000000000000000000000000000000000000000000000000000000000001b58",
        "nonce": "0x21",
        "chainId": "0x4268"
      },
      "additionalContracts": [],
      "isFixedGasLimit": false
    },
    {
      "hash": "0x350d555638d78acf3613c061a80cd03b9f3e05c1672cdb72017c9e2a8133dcbf",
      "transactionType": "CALL",
      "contractName": null,
      "contractAddress": "0x34925d9406fa4d4a5e2c20bbbcbee4e3e14d34f8",
      "function": "startGame()",
      "arguments": [],
      "transaction": {
        "from": "0x221ba23331e5395f2018edafc2e0e9ff2acb1ada",
        "to": "0x34925d9406fa4d4a5e2c20bbbcbee4e3e14d34f8",
        "gas": "0x2cab3",
        "value": "0x0",
        "input": "0xd65ab5f2",
        "nonce": "0x22",
        "chainId": "0x4268"
      },
      "additionalContracts": [],
      "isFixedGasLimit": false
    }
  ],
  "receipts": [
    {
      "status": "0x1",
      "cumulativeGasUsed": "0x4e21c8",
      "logs": [
        {
          "address": "0x34925d9406fa4d4a5e2c20bbbcbee4e3e14d34f8",
          "topics": [
            "0x60f21b569939931e3524b877e78d6a73606dbe09288de5f92ae92e3f98d98f19"
          ],
          "data": "0x000000000000000000000000000000000000000000000000000000000002a300000000000000000000000000000000000000000000000000000000000002a3000000000000000000000000000000000000000000000000000000000000000010000000000000000000000000000000000000000000000001a055690d9db80000000000000000000000000000000000000000000000000000000000000393870000000000000000000000000000000000000000000000000002c68af0bb14000000000000000000000000000000000000000000000000000000000000000000640000000000000000000000000000000000000000000000000000000000001b58",
          "blockHash": "0xdcf8db0c3001e4f36d999af9df23c79d17d31beeb39afd806a6502ba2270d1a5",
          "blockNumber": "0x1f94a1",
          "transactionHash": "0x6d35e66f9954ced74cfe0da3a8f6fc84a5de90eebdcacbb635023438ce581bc3",
          "transactionIndex": "0xd",
          "logIndex": "0xe",
          "removed": false
        }
      ],
      "logsBloom": "0x00400000000000000000000000000000000000000000000000000000000000008000000000000000000000000000000000000000000001000000000100000000000000000000000000000000000000000000000000000000000000000000000000000000000000000000000000000000000000000002000000000000000000000000000000000000000000000000000000000000000000000000000000000000000000000000000000000000000000000000000000000000000000000000000000000000000000000000000000000000000000020000000000000000000000000000000000000000000000000000000000000000000000000000000000000000",
      "type": "0x0",
      "transactionHash": "0x6d35e66f9954ced74cfe0da3a8f6fc84a5de90eebdcacbb635023438ce581bc3",
      "transactionIndex": "0xd",
      "blockHash": "0xdcf8db0c3001e4f36d999af9df23c79d17d31beeb39afd806a6502ba2270d1a5",
      "blockNumber": "0x1f94a1",
      "gasUsed": "0x2cd42",
      "effectiveGasPrice": "0x11cb6",
      "from": "0x221ba23331e5395f2018edafc2e0e9ff2acb1ada",
      "to": "0x34925d9406fa4d4a5e2c20bbbcbee4e3e14d34f8",
      "contractAddress": null
    },
    {
      "status": "0x1",
      "cumulativeGasUsed": "0x502737",
      "logs": [
        {
          "address": "0x34925d9406fa4d4a5e2c20bbbcbee4e3e14d34f8",
          "topics": [
            "0xdb9e40af5354afdd91663c104f930b000f6777440e2a1b87b4d869f7e4a24b62",
            "0x0000000000000000000000000000000000000000000000000000000000000001"
          ],
          "data": "0x",
          "blockHash": "0xdcf8db0c3001e4f36d999af9df23c79d17d31beeb39afd806a6502ba2270d1a5",
          "blockNumber": "0x1f94a1",
          "transactionHash": "0x350d555638d78acf3613c061a80cd03b9f3e05c1672cdb72017c9e2a8133dcbf",
          "transactionIndex": "0xe",
          "logIndex": "0xf",
          "removed": false
        }
      ],
      "logsBloom": "0x00400000000000000000000000000000000000000000000000000000000000008000000000000000000000000000000000000000000021000000000000040000000000000000000000000000000000000000000000040000000000000000000000000000000000000000000000000000000000000000000000000000000000000000000000000000000000000000000000000008000000000000000000000000000000000000000000000000000000000000000000000000000000000000000000000000000000000000000000000000000000000000000000000000000040800000000000000000000000000000000000000000000000000000000000000000",
      "type": "0x0",
      "transactionHash": "0x350d555638d78acf3613c061a80cd03b9f3e05c1672cdb72017c9e2a8133dcbf",
      "transactionIndex": "0xe",
      "blockHash": "0xdcf8db0c3001e4f36d999af9df23c79d17d31beeb39afd806a6502ba2270d1a5",
      "blockNumber": "0x1f94a1",
      "gasUsed": "0x2056f",
      "effectiveGasPrice": "0x11cb6",
      "from": "0x221ba23331e5395f2018edafc2e0e9ff2acb1ada",
      "to": "0x34925d9406fa4d4a5e2c20bbbcbee4e3e14d34f8",
      "contractAddress": null
    }
  ],
  "libraries": [],
  "pending": [],
  "returns": {},
  "timestamp": 1722824967,
  "chain": 17000,
  "commit": "47dc7c3"
}