{
  "transactions": [
    {
      "hash": "0x6ccc4a1410e6397073b7335e7e97bedf863d8fc8843a2f1fa19207feb7ffacda",
      "transactionType": "CALL",
      "contractName": null,
      "contractAddress": "0x5de23b2917b9dc03425f72281c189b140a7d5524",
      "function": "setGameConfig((uint40,uint40,uint256,uint256,uint256,uint256,uint40,uint256,(uint256,uint256,uint256)))",
      "arguments": [
        "(172800, 172800, 16, 1000000000000000000, 600000000000000000000000000, 100000000000000000, 10, 7000, (200, 300, 500))"
      ],
      "transaction": {
        "from": "0x221ba23331e5395f2018edafc2e0e9ff2acb1ada",
        "to": "0x5de23b2917b9dc03425f72281c189b140a7d5524",
        "gas": "0x12c07",
        "value": "0x0",
        "input": "0x3ce017a8000000000000000000000000000000000000000000000000000000000002a300000000000000000000000000000000000000000000000000000000000002a30000000000000000000000000000000000000000000000000000000000000000100000000000000000000000000000000000000000000000000de0b6b3a7640000000000000000000000000000000000000000000001f04ef12cb04cf158000000000000000000000000000000000000000000000000000000016345785d8a0000000000000000000000000000000000000000000000000000000000000000000a0000000000000000000000000000000000000000000000000000000000001b5800000000000000000000000000000000000000000000000000000000000000c8000000000000000000000000000000000000000000000000000000000000012c00000000000000000000000000000000000000000000000000000000000001f4",
        "nonce": "0x55",
        "chainId": "0x4268"
      },
      "additionalContracts": [],
      "isFixedGasLimit": false
    }
  ],
  "receipts": [
    {
      "status": "0x1",
      "cumulativeGasUsed": "0x411554",
      "logs": [
        {
          "address": "0x5de23b2917b9dc03425f72281c189b140a7d5524",
          "topics": [
            "0xdb340365a1fa6f3b9183dd0f199837cf3ef34d811b8be93dfbdccaac15cbf48a"
          ],
          "data": "0x000000000000000000000000000000000000000000000000000000000002a300000000000000000000000000000000000000000000000000000000000002a30000000000000000000000000000000000000000000000000000000000000000100000000000000000000000000000000000000000000000000de0b6b3a7640000000000000000000000000000000000000000000001f04ef12cb04cf158000000000000000000000000000000000000000000000000000000016345785d8a0000000000000000000000000000000000000000000000000000000000000000000a0000000000000000000000000000000000000000000000000000000000001b5800000000000000000000000000000000000000000000000000000000000000c8000000000000000000000000000000000000000000000000000000000000012c00000000000000000000000000000000000000000000000000000000000001f4",
          "blockHash": "0xe5df06bd5fa2d2949a8351f63cfdfd5d0e1e995b6418bd5da0643cbc5e00791b",
          "blockNumber": "0x20b3a4",
          "transactionHash": "0x6ccc4a1410e6397073b7335e7e97bedf863d8fc8843a2f1fa19207feb7ffacda",
          "transactionIndex": "0x29",
          "logIndex": "0x37",
          "removed": false
        }
      ],
      "logsBloom": "0x00000000000000000000000000000000000000000000000000000000000000000000000000000000000000000000000000000000000000000000000000000000000000000000000000080000000000000000000000000000000000000000000000000000000000000000000000000000000000000000000000000000000000000000000000800000000000000000000000000000040000000000000000000000000000000000000000000000000000000000000000000000000000000000000000000000000000200000000000000000000000000000000000000000000000008000000000000000000000000000000000000000000000000004000000000000",
      "type": "0x0",
      "transactionHash": "0x6ccc4a1410e6397073b7335e7e97bedf863d8fc8843a2f1fa19207feb7ffacda",
      "transactionIndex": "0x29",
      "blockHash": "0xe5df06bd5fa2d2949a8351f63cfdfd5d0e1e995b6418bd5da0643cbc5e00791b",
      "blockNumber": "0x20b3a4",
      "gasUsed": "0xd938",
      "effectiveGasPrice": "0x1176f",
      "from": "0x221ba23331e5395f2018edafc2e0e9ff2acb1ada",
      "to": "0x5de23b2917b9dc03425f72281c189b140a7d5524",
      "contractAddress": null
    }
  ],
  "libraries": [],
  "pending": [],
  "returns": {},
  "timestamp": 1723796190,
  "chain": 17000,
  "commit": "63b0347"
}