{
  "transactions": [
    {
      "hash": "0xdbe1415d9819d4ea133e3281a6b300bcbc08225192afcb2505c9606e6ee6b81e",
      "transactionType": "CALL",
      "contractName": null,
      "contractAddress": "0x36116821b2c8ee41cc08c3bfd1adf8887a61e060",
      "function": "setOperator(address,bool)",
      "arguments": [
        "0xA8E2E17fB824ea1eE8eDc1D45c20d94800669b81",
        "true"
      ],
      "transaction": {
        "from": "0x221ba23331e5395f2018edafc2e0e9ff2acb1ada",
        "to": "0x36116821b2c8ee41cc08c3bfd1adf8887a61e060",
        "gas": "0x11e13",
        "value": "0x0",
        "input": "0x558a7297000000000000000000000000a8e2e17fb824ea1ee8edc1d45c20d94800669b810000000000000000000000000000000000000000000000000000000000000001",
        "nonce": "0x66",
        "chainId": "0xba9304"
      },
      "additionalContracts": [],
      "isFixedGasLimit": false
    },
    {
      "hash": "0x594e2d880aa4ec1460ef80dd73f58895b9379d4379960bfdfc231c8debbd0f2c",
      "transactionType": "CALL",
      "contractName": null,
      "contractAddress": "0x36116821b2c8ee41cc08c3bfd1adf8887a61e060",
      "function": "setOperator(address,bool)",
      "arguments": [
        "0x9035417DFF05753D6934cfe6370F549df38F2aCA",
        "true"
      ],
      "transaction": {
        "from": "0x221ba23331e5395f2018edafc2e0e9ff2acb1ada",
        "to": "0x36116821b2c8ee41cc08c3bfd1adf8887a61e060",
        "gas": "0xb2c5",
        "value": "0x0",
        "input": "0x558a72970000000000000000000000009035417dff05753d6934cfe6370f549df38f2aca0000000000000000000000000000000000000000000000000000000000000001",
        "nonce": "0x67",
        "chainId": "0xba9304"
      },
      "additionalContracts": [],
      "isFixedGasLimit": false
    },
    {
      "hash": "0x09349936f7b066c034ed1a5fea5c91ac06601d4bb77acd9deb397e148a37db68",
      "transactionType": "CALL",
      "contractName": null,
      "contractAddress": "0x36116821b2c8ee41cc08c3bfd1adf8887a61e060",
      "function": "setOperator(address,bool)",
      "arguments": [
        "0x221bA23331E5395F2018eDafc2E0E9fF2Acb1aDa",
        "true"
      ],
      "transaction": {
        "from": "0x221ba23331e5395f2018edafc2e0e9ff2acb1ada",
        "to": "0x36116821b2c8ee41cc08c3bfd1adf8887a61e060",
        "gas": "0xb2c5",
        "value": "0x0",
        "input": "0x558a7297000000000000000000000000221ba23331e5395f2018edafc2e0e9ff2acb1ada0000000000000000000000000000000000000000000000000000000000000001",
        "nonce": "0x68",
        "chainId": "0xba9304"
      },
      "additionalContracts": [],
      "isFixedGasLimit": false
    }
  ],
  "receipts": [
    {
      "status": "0x1",
      "cumulativeGasUsed": "0xcf1e",
      "logs": [
        {
          "address": "0x36116821b2c8ee41cc08c3bfd1adf8887a61e060",
          "topics": [
            "0x966c160e1c4dbc7df8d69af4ace01e9297c3cf016397b7914971f2fbfa32672d",
            "0x000000000000000000000000a8e2e17fb824ea1ee8edc1d45c20d94800669b81"
          ],
          "data": "0x0000000000000000000000000000000000000000000000000000000000000001",
          "blockHash": "0x9c03c146dec980f454447db2b479f28e48dcacc198a156e06d8f55e254808f90",
          "blockNumber": "0x64df5",
          "transactionHash": "0xdbe1415d9819d4ea133e3281a6b300bcbc08225192afcb2505c9606e6ee6b81e",
          "transactionIndex": "0x0",
          "logIndex": "0x0",
          "removed": false
        }
      ],
      "logsBloom": "0x00000000000000000000100040000000000000000000020000000000000000000000000000000000000000000000000000000000000000000000000000000000000000000000000000000000000000000000000000000000000000000000000000000000000000000000000000000000020000000000000000000000000000000000000000000000000000000000000000000000000000000000000000200000000040000000000000000000000000000000000000000000000000000000100000000000000000000000000000000000000000000000000000000000000000000000000000000000000000500000000000000000000000000000000000000000",
      "type": "0x0",
      "transactionHash": "0xdbe1415d9819d4ea133e3281a6b300bcbc08225192afcb2505c9606e6ee6b81e",
      "transactionIndex": "0x0",
      "blockHash": "0x9c03c146dec980f454447db2b479f28e48dcacc198a156e06d8f55e254808f90",
      "blockNumber": "0x64df5",
      "gasUsed": "0xcf1e",
      "effectiveGasPrice": "0x9502f9000",
      "from": "0x221ba23331e5395f2018edafc2e0e9ff2acb1ada",
      "to": "0x36116821b2c8ee41cc08c3bfd1adf8887a61e060",
      "contractAddress": null
    },
    {
      "status": "0x1",
      "cumulativeGasUsed": "0x1508c",
      "logs": [
        {
          "address": "0x36116821b2c8ee41cc08c3bfd1adf8887a61e060",
          "topics": [
            "0x966c160e1c4dbc7df8d69af4ace01e9297c3cf016397b7914971f2fbfa32672d",
            "0x0000000000000000000000009035417dff05753d6934cfe6370f549df38f2aca"
          ],
          "data": "0x0000000000000000000000000000000000000000000000000000000000000001",
          "blockHash": "0x9c03c146dec980f454447db2b479f28e48dcacc198a156e06d8f55e254808f90",
          "blockNumber": "0x64df5",
          "transactionHash": "0x594e2d880aa4ec1460ef80dd73f58895b9379d4379960bfdfc231c8debbd0f2c",
          "transactionIndex": "0x1",
          "logIndex": "0x1",
          "removed": false
        }
      ],
      "logsBloom": "0x00000000000000000000100040000000000000000000000000002000000000000000000000080000000000000000000000000000000000000000000000000000000000000000000000000000000000000000000000000000000000000000000000000000000000000000000000000000020000000000000000000000000000000010000000000000000000000000000000000000000000000000000000200000000040000000000000000000000000000000000000000000000000000000000000000000000000000000000000000000000000000000000000000000000000000000000000000000000000100000000000000000000000000000000000000000",
      "type": "0x0",
      "transactionHash": "0x594e2d880aa4ec1460ef80dd73f58895b9379d4379960bfdfc231c8debbd0f2c",
      "transactionIndex": "0x1",
      "blockHash": "0x9c03c146dec980f454447db2b479f28e48dcacc198a156e06d8f55e254808f90",
      "blockNumber": "0x64df5",
      "gasUsed": "0x816e",
      "effectiveGasPrice": "0x9502f9000",
      "from": "0x221ba23331e5395f2018edafc2e0e9ff2acb1ada",
      "to": "0x36116821b2c8ee41cc08c3bfd1adf8887a61e060",
      "contractAddress": null
    },
    {
      "status": "0x1",
      "cumulativeGasUsed": "0x1d1fa",
      "logs": [
        {
          "address": "0x36116821b2c8ee41cc08c3bfd1adf8887a61e060",
          "topics": [
            "0x966c160e1c4dbc7df8d69af4ace01e9297c3cf016397b7914971f2fbfa32672d",
            "0x000000000000000000000000221ba23331e5395f2018edafc2e0e9ff2acb1ada"
          ],
          "data": "0x0000000000000000000000000000000000000000000000000000000000000001",
          "blockHash": "0x9c03c146dec980f454447db2b479f28e48dcacc198a156e06d8f55e254808f90",
          "blockNumber": "0x64df5",
          "transactionHash": "0x09349936f7b066c034ed1a5fea5c91ac06601d4bb77acd9deb397e148a37db68",
          "transactionIndex": "0x2",
          "logIndex": "0x2",
          "removed": false
        }
      ],
      "logsBloom": "0x00000000000000000000100040000000000000000000000000000000000000100000000000000000000000000000000000000000000000000000400000000000000000002000000000000000000000000000000000000000000000000000000000000000000000000000000000000000020000000000000000000000000000000000000000000000000000000000000000000000000000000000000000200000000040000000000000000000000000000000000000000000000000000000000000000000000000000000000000000000000000000000000000000000000000000000000000000000000000100000000000000000000000000000000000000000",
      "type": "0x0",
      "transactionHash": "0x09349936f7b066c034ed1a5fea5c91ac06601d4bb77acd9deb397e148a37db68",
      "transactionIndex": "0x2",
      "blockHash": "0x9c03c146dec980f454447db2b479f28e48dcacc198a156e06d8f55e254808f90",
      "blockNumber": "0x64df5",
      "gasUsed": "0x816e",
      "effectiveGasPrice": "0x9502f9000",
      "from": "0x221ba23331e5395f2018edafc2e0e9ff2acb1ada",
      "to": "0x36116821b2c8ee41cc08c3bfd1adf8887a61e060",
      "contractAddress": null
    }
  ],
  "libraries": [],
  "pending": [],
  "returns": {},
  "timestamp": 1725932145,
  "chain": 12227332,
  "commit": "65e5b8f"
}