{
  "transactions": [
    {
      "hash": "0x2aaff68850e7fc61af006eb86ed6d35126dc91c959e3815666154573fc735444",
      "transactionType": "CALL",
      "contractName": null,
      "contractAddress": "0x6fef16c7d0c89a57e1f45a6abd6c4e3c5895623c",
      "function": "setOperator(address,bool)",
      "arguments": [
        "0x221bA23331E5395F2018eDafc2E0E9fF2Acb1aDa",
        "true"
      ],
      "transaction": {
        "from": "0x221ba23331e5395f2018edafc2e0e9ff2acb1ada",
        "to": "0x6fef16c7d0c89a57e1f45a6abd6c4e3c5895623c",
        "gas": "0xb34d",
        "value": "0x0",
        "input": "0x558a7297000000000000000000000000221ba23331e5395f2018edafc2e0e9ff2acb1ada0000000000000000000000000000000000000000000000000000000000000001",
        "nonce": "0xd",
        "chainId": "0xba9304"
      },
      "additionalContracts": [],
      "isFixedGasLimit": false
    },
    {
      "hash": "0x30fc526fbe31361b22ce43f7754892153c823295b84a0635ef8cd8ccadfa710f",
      "transactionType": "CALL",
      "contractName": null,
      "contractAddress": "0x6fef16c7d0c89a57e1f45a6abd6c4e3c5895623c",
      "function": "setOperator(address,bool)",
      "arguments": [
        "0x9035417DFF05753D6934cfe6370F549df38F2aCA",
        "true"
      ],
      "transaction": {
        "from": "0x221ba23331e5395f2018edafc2e0e9ff2acb1ada",
        "to": "0x6fef16c7d0c89a57e1f45a6abd6c4e3c5895623c",
        "gas": "0xb34d",
        "value": "0x0",
        "input": "0x558a72970000000000000000000000009035417dff05753d6934cfe6370f549df38f2aca0000000000000000000000000000000000000000000000000000000000000001",
        "nonce": "0xe",
        "chainId": "0xba9304"
      },
      "additionalContracts": [],
      "isFixedGasLimit": false
    },
    {
      "hash": "0xa45dbfca9ea507a1edcb461578876596450c2049b9a4fd82acee49eaf12573f8",
      "transactionType": "CALL",
      "contractName": null,
      "contractAddress": "0x3f05810c438e285dbf81516b44f267358ed94430",
      "function": "setFeeTo(address)",
      "arguments": [
        "0x6FEF16c7d0c89A57E1F45A6ABd6C4e3C5895623C"
      ],
      "transaction": {
        "from": "0x221ba23331e5395f2018edafc2e0e9ff2acb1ada",
        "to": "0x3f05810c438e285dbf81516b44f267358ed94430",
        "gas": "0x93b2",
        "value": "0x0",
        "input": "0xf46901ed0000000000000000000000006fef16c7d0c89a57e1f45a6abd6c4e3c5895623c",
        "nonce": "0xf",
        "chainId": "0xba9304"
      },
      "additionalContracts": [],
      "isFixedGasLimit": false
    }
  ],
  "receipts": [
    {
      "status": "0x1",
      "cumulativeGasUsed": "0x81d0",
      "logs": [
        {
          "address": "0x6fef16c7d0c89a57e1f45a6abd6c4e3c5895623c",
          "topics": [
            "0x966c160e1c4dbc7df8d69af4ace01e9297c3cf016397b7914971f2fbfa32672d",
            "0x000000000000000000000000221ba23331e5395f2018edafc2e0e9ff2acb1ada"
          ],
          "data": "0x0000000000000000000000000000000000000000000000000000000000000001",
          "blockHash": "0xa6636d4b2155ff44a2668e775d22a5a93f663a7b35e4f06986de98c77af0c2fc",
          "blockNumber": "0x4af4f",
          "transactionHash": "0x2aaff68850e7fc61af006eb86ed6d35126dc91c959e3815666154573fc735444",
          "transactionIndex": "0x0",
          "logIndex": "0x0",
          "removed": false
        }
      ],
      "logsBloom": "0x00000000000000000000100000000000000000000000000000000000000000100000000000000000000000000000000000000000000000000000400000000000000000002000000000000000000000000000000000000000000000000000000000000000000400000000000000000000020000000000000000000000000000000000000000020000000000000000000000000000000000000000000000000000000000000000000000000000000000000000000400000000000000000000000000000000000000000000000000000000000000000000000000000000000000000000000000000000000000100000000000000000000000000000000000000000",
      "type": "0x0",
      "transactionHash": "0x2aaff68850e7fc61af006eb86ed6d35126dc91c959e3815666154573fc735444",
      "transactionIndex": "0x0",
      "blockHash": "0xa6636d4b2155ff44a2668e775d22a5a93f663a7b35e4f06986de98c77af0c2fc",
      "blockNumber": "0x4af4f",
      "gasUsed": "0x81d0",
      "effectiveGasPrice": "0x9502f9000",
      "from": "0x221ba23331e5395f2018edafc2e0e9ff2acb1ada",
      "to": "0x6fef16c7d0c89a57e1f45a6abd6c4e3c5895623c",
      "contractAddress": null
    },
    {
      "status": "0x1",
      "cumulativeGasUsed": "0x103a0",
      "logs": [
        {
          "address": "0x6fef16c7d0c89a57e1f45a6abd6c4e3c5895623c",
          "topics": [
            "0x966c160e1c4dbc7df8d69af4ace01e9297c3cf016397b7914971f2fbfa32672d",
            "0x0000000000000000000000009035417dff05753d6934cfe6370f549df38f2aca"
          ],
          "data": "0x0000000000000000000000000000000000000000000000000000000000000001",
          "blockHash": "0xa6636d4b2155ff44a2668e775d22a5a93f663a7b35e4f06986de98c77af0c2fc",
          "blockNumber": "0x4af4f",
          "transactionHash": "0x30fc526fbe31361b22ce43f7754892153c823295b84a0635ef8cd8ccadfa710f",
          "transactionIndex": "0x1",
          "logIndex": "0x1",
          "removed": false
        }
      ],
      "logsBloom": "0x00000000000000000000100000000000000000000000000000002000000000000000000000080000000000000000000000000000000000000000000000000000000000000000000000000000000000000000000000000000000000000000000000000000000400000000000000000000020000000000000000000000000000000010000000020000000000000000000000000000000000000000000000000000000000000000000000000000000000000000000400000000000000000000000000000000000000000000000000000000000000000000000000000000000000000000000000000000000000100000000000000000000000000000000000000000",
      "type": "0x0",
      "transactionHash": "0x30fc526fbe31361b22ce43f7754892153c823295b84a0635ef8cd8ccadfa710f",
      "transactionIndex": "0x1",
      "blockHash": "0xa6636d4b2155ff44a2668e775d22a5a93f663a7b35e4f06986de98c77af0c2fc",
      "blockNumber": "0x4af4f",
      "gasUsed": "0x81d0",
      "effectiveGasPrice": "0x9502f9000",
      "from": "0x221ba23331e5395f2018edafc2e0e9ff2acb1ada",
      "to": "0x6fef16c7d0c89a57e1f45a6abd6c4e3c5895623c",
      "contractAddress": null
    },
    {
      "status": "0x1",
      "cumulativeGasUsed": "0x16e8f",
      "logs": [
        {
          "address": "0x3f05810c438e285dbf81516b44f267358ed94430",
          "topics": [
            "0x9887df018dfa75103faf0f1388028e55a1124783c285d8d2cbcf62a067a6b844",
            "0x0000000000000000000000006fef16c7d0c89a57e1f45a6abd6c4e3c5895623c"
          ],
          "data": "0x",
          "blockHash": "0xa6636d4b2155ff44a2668e775d22a5a93f663a7b35e4f06986de98c77af0c2fc",
          "blockNumber": "0x4af4f",
          "transactionHash": "0xa45dbfca9ea507a1edcb461578876596450c2049b9a4fd82acee49eaf12573f8",
          "transactionIndex": "0x2",
          "logIndex": "0x2",
          "removed": false
        }
      ],
      "logsBloom": "0x00000000000000000000000000000000000420000000001000000000000000000000000000000000000000200000000000000000000000000000000000000000000010000000000000000000000000000000000000000000000000000000000000000000000000000000000000000000000000000000000000000000000000000000000000000000000000000000000000000000000000100000000000000000000000000000000000000000000000000000000000000000000000000000000000000000002000000800000000000000200000000000000000000000000000000000000000000000000000000000000000000000000000000000000000000000",
      "type": "0x0",
      "transactionHash": "0xa45dbfca9ea507a1edcb461578876596450c2049b9a4fd82acee49eaf12573f8",
      "transactionIndex": "0x2",
      "blockHash": "0xa6636d4b2155ff44a2668e775d22a5a93f663a7b35e4f06986de98c77af0c2fc",
      "blockNumber": "0x4af4f",
      "gasUsed": "0x6aef",
      "effectiveGasPrice": "0x9502f9000",
      "from": "0x221ba23331e5395f2018edafc2e0e9ff2acb1ada",
      "to": "0x3f05810c438e285dbf81516b44f267358ed94430",
      "contractAddress": null
    }
  ],
  "libraries": [],
  "pending": [],
  "returns": {},
  "timestamp": 1724137582,
  "chain": 12227332,
  "commit": "63b0347"
}