{
  "transactions": [
    {
      "hash": "0x209d36d074714011a92d3dddd6e139fab3aeeaa8b6ffd2e84a070950ed1bfaa2",
      "transactionType": "CALL",
      "contractName": null,
      "contractAddress": "0xaca3a01b74f3823614218166c31e55e8d989c17c",
      "function": "setOperator(address,bool)",
      "arguments": [
        "0xA8E2E17fB824ea1eE8eDc1D45c20d94800669b81",
        "true"
      ],
      "transaction": {
        "from": "0x221ba23331e5395f2018edafc2e0e9ff2acb1ada",
        "to": "0xaca3a01b74f3823614218166c31e55e8d989c17c",
        "gas": "0x11e32",
        "value": "0x0",
        "input": "0x558a7297000000000000000000000000a8e2e17fb824ea1ee8edc1d45c20d94800669b810000000000000000000000000000000000000000000000000000000000000001",
        "nonce": "0x54",
        "chainId": "0xba9304"
      },
      "additionalContracts": [],
      "isFixedGasLimit": false
    },
    {
      "hash": "0x5cefec15d49cb9f620c1402cd0d29df5ccdb88ee2b831a89686189700cc58b93",
      "transactionType": "CALL",
      "contractName": null,
      "contractAddress": "0xaca3a01b74f3823614218166c31e55e8d989c17c",
      "function": "setOperator(address,bool)",
      "arguments": [
        "0x9035417DFF05753D6934cfe6370F549df38F2aCA",
        "true"
      ],
      "transaction": {
        "from": "0x221ba23331e5395f2018edafc2e0e9ff2acb1ada",
        "to": "0xaca3a01b74f3823614218166c31e55e8d989c17c",
        "gas": "0xb2e4",
        "value": "0x0",
        "input": "0x558a72970000000000000000000000009035417dff05753d6934cfe6370f549df38f2aca0000000000000000000000000000000000000000000000000000000000000001",
        "nonce": "0x55",
        "chainId": "0xba9304"
      },
      "additionalContracts": [],
      "isFixedGasLimit": false
    },
    {
      "hash": "0x984c01f7bb68a919f27f158d63aba6d50d27ee19f6c1749f790569f081b80062",
      "transactionType": "CALL",
      "contractName": null,
      "contractAddress": "0xaca3a01b74f3823614218166c31e55e8d989c17c",
      "function": "setOperator(address,bool)",
      "arguments": [
        "0x221bA23331E5395F2018eDafc2E0E9fF2Acb1aDa",
        "true"
      ],
      "transaction": {
        "from": "0x221ba23331e5395f2018edafc2e0e9ff2acb1ada",
        "to": "0xaca3a01b74f3823614218166c31e55e8d989c17c",
        "gas": "0xb2e4",
        "value": "0x0",
        "input": "0x558a7297000000000000000000000000221ba23331e5395f2018edafc2e0e9ff2acb1ada0000000000000000000000000000000000000000000000000000000000000001",
        "nonce": "0x56",
        "chainId": "0xba9304"
      },
      "additionalContracts": [],
      "isFixedGasLimit": false
    }
  ],
  "receipts": [
    {
      "status": "0x1",
      "cumulativeGasUsed": "0xcf34",
      "logs": [
        {
          "address": "0xaca3a01b74f3823614218166c31e55e8d989c17c",
          "topics": [
            "0x966c160e1c4dbc7df8d69af4ace01e9297c3cf016397b7914971f2fbfa32672d",
            "0x000000000000000000000000a8e2e17fb824ea1ee8edc1d45c20d94800669b81"
          ],
          "data": "0x0000000000000000000000000000000000000000000000000000000000000001",
          "blockHash": "0xb1789f46077a228c60647277e57535982a980a207112411284c2f47f1ae417ac",
          "blockNumber": "0x57ec6",
          "transactionHash": "0x209d36d074714011a92d3dddd6e139fab3aeeaa8b6ffd2e84a070950ed1bfaa2",
          "transactionIndex": "0x0",
          "logIndex": "0x0",
          "removed": false
        }
      ],
      "logsBloom": "0x00000000000000000000100000000000000000000000020001400000000000000000000000000000000000000000000000000000000000000000000000000000000000000000000000000000000000000000000000000000000000000000000000000000000000000000000000000000020000000200000000000000000000000000000000000000000000000000000000000000000000000000000000000000000000000000000000000000000000000000000000000000000000000000100000000000000000000000000000000000000000000000000000000000000000000000000000000000000000500000000000000000000000000000000000000000",
      "type": "0x0",
      "transactionHash": "0x209d36d074714011a92d3dddd6e139fab3aeeaa8b6ffd2e84a070950ed1bfaa2",
      "transactionIndex": "0x0",
      "blockHash": "0xb1789f46077a228c60647277e57535982a980a207112411284c2f47f1ae417ac",
      "blockNumber": "0x57ec6",
      "gasUsed": "0xcf34",
      "effectiveGasPrice": "0x9502f9000",
      "from": "0x221ba23331e5395f2018edafc2e0e9ff2acb1ada",
      "to": "0xaca3a01b74f3823614218166c31e55e8d989c17c",
      "contractAddress": null
    },
    {
      "status": "0x1",
      "cumulativeGasUsed": "0x150b8",
      "logs": [
        {
          "address": "0xaca3a01b74f3823614218166c31e55e8d989c17c",
          "topics": [
            "0x966c160e1c4dbc7df8d69af4ace01e9297c3cf016397b7914971f2fbfa32672d",
            "0x0000000000000000000000009035417dff05753d6934cfe6370f549df38f2aca"
          ],
          "data": "0x0000000000000000000000000000000000000000000000000000000000000001",
          "blockHash": "0xb1789f46077a228c60647277e57535982a980a207112411284c2f47f1ae417ac",
          "blockNumber": "0x57ec6",
          "transactionHash": "0x5cefec15d49cb9f620c1402cd0d29df5ccdb88ee2b831a89686189700cc58b93",
          "transactionIndex": "0x1",
          "logIndex": "0x1",
          "removed": false
        }
      ],
      "logsBloom": "0x00000000000000000000100000000000000000000000000001402000000000000000000000080000000000000000000000000000000000000000000000000000000000000000000000000000000000000000000000000000000000000000000000000000000000000000000000000000020000000200000000000000000000000010000000000000000000000000000000000000000000000000000000000000000000000000000000000000000000000000000000000000000000000000000000000000000000000000000000000000000000000000000000000000000000000000000000000000000000100000000000000000000000000000000000000000",
      "type": "0x0",
      "transactionHash": "0x5cefec15d49cb9f620c1402cd0d29df5ccdb88ee2b831a89686189700cc58b93",
      "transactionIndex": "0x1",
      "blockHash": "0xb1789f46077a228c60647277e57535982a980a207112411284c2f47f1ae417ac",
      "blockNumber": "0x57ec6",
      "gasUsed": "0x8184",
      "effectiveGasPrice": "0x9502f9000",
      "from": "0x221ba23331e5395f2018edafc2e0e9ff2acb1ada",
      "to": "0xaca3a01b74f3823614218166c31e55e8d989c17c",
      "contractAddress": null
    },
    {
      "status": "0x1",
      "cumulativeGasUsed": "0x1d23c",
      "logs": [
        {
          "address": "0xaca3a01b74f3823614218166c31e55e8d989c17c",
          "topics": [
            "0x966c160e1c4dbc7df8d69af4ace01e9297c3cf016397b7914971f2fbfa32672d",
            "0x000000000000000000000000221ba23331e5395f2018edafc2e0e9ff2acb1ada"
          ],
          "data": "0x0000000000000000000000000000000000000000000000000000000000000001",
          "blockHash": "0xb1789f46077a228c60647277e57535982a980a207112411284c2f47f1ae417ac",
          "blockNumber": "0x57ec6",
          "transactionHash": "0x984c01f7bb68a919f27f158d63aba6d50d27ee19f6c1749f790569f081b80062",
          "transactionIndex": "0x2",
          "logIndex": "0x2",
          "removed": false
        }
      ],
      "logsBloom": "0x00000000000000000000100000000000000000000000000001400000000000100000000000000000000000000000000000000000000000000000400000000000000000002000000000000000000000000000000000000000000000000000000000000000000000000000000000000000020000000200000000000000000000000000000000000000000000000000000000000000000000000000000000000000000000000000000000000000000000000000000000000000000000000000000000000000000000000000000000000000000000000000000000000000000000000000000000000000000000100000000000000000000000000000000000000000",
      "type": "0x0",
      "transactionHash": "0x984c01f7bb68a919f27f158d63aba6d50d27ee19f6c1749f790569f081b80062",
      "transactionIndex": "0x2",
      "blockHash": "0xb1789f46077a228c60647277e57535982a980a207112411284c2f47f1ae417ac",
      "blockNumber": "0x57ec6",
      "gasUsed": "0x8184",
      "effectiveGasPrice": "0x9502f9000",
      "from": "0x221ba23331e5395f2018edafc2e0e9ff2acb1ada",
      "to": "0xaca3a01b74f3823614218166c31e55e8d989c17c",
      "contractAddress": null
    }
  ],
  "libraries": [],
  "pending": [],
  "returns": {},
  "timestamp": 1724958021,
  "chain": 12227332,
  "commit": "1ce497a"
}