{
  "transactions": [
    {
      "hash": "0x13e1279ff3058322dbb3829e7b400968d538f0d934fde9168605431b3e8e369f",
      "transactionType": "CALL",
      "contractName": null,
      "contractAddress": "0xe721da2c547fce103c0fde8db6274b1525472127",
      "function": "setOperator(address,bool)",
      "arguments": [
        "0xA8E2E17fB824ea1eE8eDc1D45c20d94800669b81",
        "true"
      ],
      "transaction": {
        "from": "0x221ba23331e5395f2018edafc2e0e9ff2acb1ada",
        "to": "0xe721da2c547fce103c0fde8db6274b1525472127",
        "gas": "0x11e32",
        "value": "0x0",
        "input": "0x558a7297000000000000000000000000a8e2e17fb824ea1ee8edc1d45c20d94800669b810000000000000000000000000000000000000000000000000000000000000001",
        "nonce": "0x47",
        "chainId": "0xba9304"
      },
      "additionalContracts": [],
      "isFixedGasLimit": false
    }
  ],
  "receipts": [
    {
      "status": "0x1",
      "cumulativeGasUsed": "0xcf34",
      "logs": [
        {
          "address": "0xe721da2c547fce103c0fde8db6274b1525472127",
          "topics": [
            "0x966c160e1c4dbc7df8d69af4ace01e9297c3cf016397b7914971f2fbfa32672d",
            "0x000000000000000000000000a8e2e17fb824ea1ee8edc1d45c20d94800669b81"
          ],
          "data": "0x0000000000000000000000000000000000000000000000000000000000000001",
          "blockHash": "0x72acf7a28e1149390f2544f194329cf4622c4ae0d4a5f799426dbafae0f77fd8",
          "blockNumber": "0x567c4",
          "transactionHash": "0x13e1279ff3058322dbb3829e7b400968d538f0d934fde9168605431b3e8e369f",
          "transactionIndex": "0x0",
          "logIndex": "0x0",
          "removed": false
        }
      ],
      "logsBloom": "0x00000000000000000000100000000000000000000000020000000000000000000000000000000000000000000000000000000000000000000000000000000000000000000000000000000000000000000000000000000000000000000000000000000000000010000000000000000000020000000000000000000000000000000000000000000000000000000000000000000000000000000000000000000000000000000000000001000000000000000000000000000000000000000000100000000000000000000000000000000000000000000000000000000000000000000000000000000000000000500000000000000000000000000000000800000000",
      "type": "0x0",
      "transactionHash": "0x13e1279ff3058322dbb3829e7b400968d538f0d934fde9168605431b3e8e369f",
      "transactionIndex": "0x0",
      "blockHash": "0x72acf7a28e1149390f2544f194329cf4622c4ae0d4a5f799426dbafae0f77fd8",
      "blockNumber": "0x567c4",
      "gasUsed": "0xcf34",
      "effectiveGasPrice": "0x9502f9000",
      "from": "0x221ba23331e5395f2018edafc2e0e9ff2acb1ada",
      "to": "0xe721da2c547fce103c0fde8db6274b1525472127",
      "contractAddress": null
    }
  ],
  "libraries": [],
  "pending": [],
  "returns": {},
  "timestamp": 1724817350,
  "chain": 12227332,
  "commit": "1ce497a"
}