{
  "transactions": [
    {
      "hash": "0x8873b532d0e4c137059a072386983be54cbb29d657d99941f510cc851517022e",
      "transactionType": "CREATE",
      "contractName": "DexLauncherV2",
      "contractAddress": "0xf5d6c1ac69ffaad0bc14c020ceab07f4bfc3ccb3",
      "function": null,
      "arguments": [
        "0x1996bbe6e83880caBB23b70dC3BbA236d3b6ECb4",
        "0xA4e4Cf81944691fbE755eA848e4e40cf9d1A42d1",
        "0x1CE16390FD09040486221e912B87551E4e44Ab17"
      ],
      "transaction": {
        "from": "0x221ba23331e5395f2018edafc2e0e9ff2acb1ada",
        "gas": "0xedca8",
        "value": "0x0",
        "input": "0x60a080604052346101b057606081610c95803803809161001f828561020b565b8339810103126101b05761003281610242565b61004a604061004360208501610242565b9301610242565b33156101f8575f8054336001600160a01b0319821681178355604051949290916001600160a01b0316907f8be0079c531659141344cd1fd0a4f28419497f9722a3daafe3b4186f6b6457e09080a3600180556001600160a01b031692831580156101e7575b80156101d6575b6101c757600280546001600160a01b03199081168617909155600380546001600160a01b03938416921682179055608083905263095ea7b360e01b8452600484018590525f1960248501529116916020816044815f875af180156101bc57610175575b7fe1373c500e37616cebeca92746ffe45bf09ed22f4a8ffebc2432cf8f8aea170f606085858560405192835260208301526040820152a1604051610a3e90816102578239608051818181601c0152818161031901526107a10152f35b6020939193813d6020116101b4575b816101916020938361020b565b810103126101b057519182151583036101b05790929091506060610119565b5f80fd5b3d9150610184565b6040513d5f823e3d90fd5b630e52390960e41b5f5260045ffd5b506001600160a01b038216156100b6565b506001600160a01b038116156100af565b631e4fbdf760e01b5f525f60045260245ffd5b601f909101601f19168101906001600160401b0382119082101761022e57604052565b634e487b7160e01b5f52604160045260245ffd5b51906001600160a01b03821682036101b05756fe608080604052600436101561005b575b50361561001a575f80fd5b7f00000000000000000000000000000000000000000000000000000000000000006001600160a01b0316330361004c57005b63394f78ed60e21b5f5260045ffd5b5f3560e01c9081631d987be71461078f57508063558a72971461071257806359d0f713146106ea5780636f4d6317146102ba578063715018a61461026357806379388e411461022d5780638da5cb5b14610206578063a7c6402c146101de578063b02c43d01461015e5763f2fde38b146100d5575f61000f565b3461015a57602036600319011261015a576100ee6107d0565b6100f66107e6565b6001600160a01b03168015610147575f80546001600160a01b03198116831782556001600160a01b0316907f8be0079c531659141344cd1fd0a4f28419497f9722a3daafe3b4186f6b6457e09080a3005b631e4fbdf760e01b5f525f60045260245ffd5b5f80fd5b3461015a57602036600319011261015a57600480355f90815260208281526040918290208054600182015460028301546003840154939096015485516001600160a01b039384168152918316948201949094526fffffffffffffffffffffffffffffffff909516938501939093528216606084015216608082015260a090f35b3461015a575f36600319011261015a576003546040516001600160a01b039091168152602090f35b3461015a575f36600319011261015a575f546040516001600160a01b039091168152602090f35b3461015a57602036600319011261015a576102466107d0565b5060806040515f81525f60208201525f60408201525f6060820152f35b3461015a575f36600319011261015a5761027b6107e6565b5f80546001600160a01b0319811682556001600160a01b03167f8be0079c531659141344cd1fd0a4f28419497f9722a3daafe3b4186f6b6457e08280a3005b608036600319011261015a576102ce6107d0565b60243590335f52600560205260ff60405f205416156106db576001600160a01b0381168015610688576002546040516364e329cb60e11b81526001600160a01b0384811660048301527f0000000000000000000000000000000000000000000000000000000000000000808216602484015295919492602091869160449183915f91165af19384156105ca575f94610697575b506001600160a01b03841693841561068857604080516001600160a01b0385811682529290921660208301527f4f2ce4e40f623ca765fc0167a25cb7842ceaafb8d82d3dec26ca0d0e0d2d489691a15f8060405160208101906323b872dd60e01b8252336024820152306044820152846064820152606481526103e560848261080c565b519082865af16103f3610842565b81610659575b501561062e5760035460405163095ea7b360e01b602082019081526001600160a01b039092166024820152604481018390525f91829161044681606481015b03601f19810183528261080c565b519082865af1610454610842565b816105ff575b50156105d55760c492606060018060a01b03600354166040519586809263f305d71960e01b8252856004830152866024830152604435604483015260643560648301523360848301524260a483015234905af19182156105ca575f935f955f94610582575b509160809761053560c093877f3e77d130de3a006fbabf606d8e833366de76590300acc89b2403867d35a5fba6967fe9fd103741983a49fc0d0e667e5b04be38765fdf6af6fa15f0663bb792056b3060a08d6040519089825260208201528460408201528d60608201528f8c90820152a1610899565b90610541348983610899565b91604051938a85523360208601526040850152606084015260018060a01b03168983015260a0820152a1604051938452602084015260408301526060820152f35b9450925093506060833d6060116105c2575b816105a16060938361080c565b8101031261015a5782516020840151604090940151939490939260806104bf565b3d9150610594565b6040513d5f823e3d90fd5b60405162461bcd60e51b8152602060048201526002602482015261534160f01b6044820152606490fd5b8051801592508215610614575b50508661045a565b6106279250602080918301019101610881565b868061060c565b60405162461bcd60e51b815260206004820152600360248201526229aa2360e91b6044820152606490fd5b805180159250821561066e575b5050866103f9565b6106819250602080918301019101610881565b8680610666565b63e6c4247b60e01b5f5260045ffd5b9093506020813d6020116106d3575b816106b36020938361080c565b8101031261015a57516001600160a01b038116810361015a579285610361565b3d91506106a6565b633006171960e21b5f5260045ffd5b3461015a575f36600319011261015a576002546040516001600160a01b039091168152602090f35b3461015a57604036600319011261015a5761072b6107d0565b6024359081151580920361015a5760207f966c160e1c4dbc7df8d69af4ace01e9297c3cf016397b7914971f2fbfa32672d916107656107e6565b60018060a01b031692835f526005825260405f2060ff1981541660ff8316179055604051908152a2005b3461015a575f36600319011261015a577f00000000000000000000000000000000000000000000000000000000000000006001600160a01b03168152602090f35b600435906001600160a01b038216820361015a57565b5f546001600160a01b031633036107f957565b63118cdaa760e01b5f523360045260245ffd5b90601f8019910116810190811067ffffffffffffffff82111761082e57604052565b634e487b7160e01b5f52604160045260245ffd5b3d1561087c573d9067ffffffffffffffff821161082e5760405191610871601f8201601f19166020018461080c565b82523d5f602084013e565b606090565b9081602091031261015a5751801515810361015a5790565b5f9392918281106108a957505050565b909193505f8060018060a01b0360035416604051602081019163095ea7b360e01b83526024820152826044820152604481526108e660648261080c565b519082865af16108f4610842565b816109d9575b50156105d55783039283116109c55782670de0b6b3a7640000811161091d575050565b60405163a9059cbb60e01b6020820190815233602483015260448201929092525f928392909183906109528160648101610438565b51925af161095e610842565b81610996575b501561096c57565b60405162461bcd60e51b815260206004820152600260248201526114d560f21b6044820152606490fd5b80518015925082156109ab575b50505f610964565b6109be9250602080918301019101610881565b5f806109a3565b634e487b7160e01b5f52601160045260245ffd5b80518015925082156109ee575b50505f6108fa565b610a019250602080918301019101610881565b5f806109e656fea26469706673582212209a3f46be144185a2ea82e27853398c2c67e5909534644c0b6d78bd99350d7f5264736f6c634300081a00330000000000000000000000001996bbe6e83880cabb23b70dc3bba236d3b6ecb4000000000000000000000000a4e4cf81944691fbe755ea848e4e40cf9d1a42d10000000000000000000000001ce16390fd09040486221e912b87551e4e44ab17",
        "nonce": "0x24",
        "chainId": "0xba9304"
      },
      "additionalContracts": [],
      "isFixedGasLimit": false
    },
    {
      "hash": "0xec9ec044701fd13ede54f22967e3bf44f5fb00a82e3432de8d04fe82fd54b6bf",
      "transactionType": "CALL",
      "contractName": "DexLauncherV2",
      "contractAddress": "0xf5d6c1ac69ffaad0bc14c020ceab07f4bfc3ccb3",
      "function": "setOperator(address,bool)",
      "arguments": [
        "0x69a2698c3d1Cf2C348c319f318876EB3dC51402b",
        "true"
      ],
      "transaction": {
        "from": "0x221ba23331e5395f2018edafc2e0e9ff2acb1ada",
        "to": "0xf5d6c1ac69ffaad0bc14c020ceab07f4bfc3ccb3",
        "gas": "0x100f1",
        "value": "0x0",
        "input": "0x558a729700000000000000000000000069a2698c3d1cf2c348c319f318876eb3dc51402b0000000000000000000000000000000000000000000000000000000000000001",
        "nonce": "0x25",
        "chainId": "0xba9304"
      },
      "additionalContracts": [],
      "isFixedGasLimit": false
    },
    {
      "hash": "0xfda71f78ee3c14d88054b374e96c7b32fd5af7932d5c18b85a64dbd714611428",
      "transactionType": "CALL",
      "contractName": null,
      "contractAddress": "0x69a2698c3d1cf2c348c319f318876eb3dc51402b",
      "function": "updateDexLauncherV2(address)",
      "arguments": [
        "0xF5d6C1ac69FfaAD0bc14c020CEab07f4bfc3cCB3"
      ],
      "transaction": {
        "from": "0x221ba23331e5395f2018edafc2e0e9ff2acb1ada",
        "to": "0x69a2698c3d1cf2c348c319f318876eb3dc51402b",
        "gas": "0xc88f",
        "value": "0x0",
        "input": "0xfdd00022000000000000000000000000f5d6c1ac69ffaad0bc14c020ceab07f4bfc3ccb3",
        "nonce": "0x26",
        "chainId": "0xba9304"
      },
      "additionalContracts": [],
      "isFixedGasLimit": false
    }
  ],
  "receipts": [
    {
      "status": "0x1",
      "cumulativeGasUsed": "0xb6ea9",
      "logs": [
        {
          "address": "0xf5d6c1ac69ffaad0bc14c020ceab07f4bfc3ccb3",
          "topics": [
            "0x8be0079c531659141344cd1fd0a4f28419497f9722a3daafe3b4186f6b6457e0",
            "0x0000000000000000000000000000000000000000000000000000000000000000",
            "0x000000000000000000000000221ba23331e5395f2018edafc2e0e9ff2acb1ada"
          ],
          "data": "0x",
          "blockHash": "0xdd33ec2a377f9df6c2d41533683950a5bc620b685038c3ec55b28a71332f0307",
          "blockNumber": "0x4f503",
          "transactionHash": "0x8873b532d0e4c137059a072386983be54cbb29d657d99941f510cc851517022e",
          "transactionIndex": "0x0",
          "logIndex": "0x0",
          "removed": false
        },
        {
          "address": "0x1ce16390fd09040486221e912b87551e4e44ab17",
          "topics": [
            "0x8c5be1e5ebec7d5bd14f71427d1e84f3dd0314c0f7b2291e5b200ac8c7c3b925",
            "0x000000000000000000000000f5d6c1ac69ffaad0bc14c020ceab07f4bfc3ccb3",
            "0x0000000000000000000000001996bbe6e83880cabb23b70dc3bba236d3b6ecb4"
          ],
          "data": "0xffffffffffffffffffffffffffffffffffffffffffffffffffffffffffffffff",
          "blockHash": "0xdd33ec2a377f9df6c2d41533683950a5bc620b685038c3ec55b28a71332f0307",
          "blockNumber": "0x4f503",
          "transactionHash": "0x8873b532d0e4c137059a072386983be54cbb29d657d99941f510cc851517022e",
          "transactionIndex": "0x0",
          "logIndex": "0x1",
          "removed": false
        },
        {
          "address": "0xf5d6c1ac69ffaad0bc14c020ceab07f4bfc3ccb3",
          "topics": [
            "0xe1373c500e37616cebeca92746ffe45bf09ed22f4a8ffebc2432cf8f8aea170f"
          ],
          "data": "0x0000000000000000000000001996bbe6e83880cabb23b70dc3bba236d3b6ecb4000000000000000000000000a4e4cf81944691fbe755ea848e4e40cf9d1a42d10000000000000000000000001ce16390fd09040486221e912b87551e4e44ab17",
          "blockHash": "0xdd33ec2a377f9df6c2d41533683950a5bc620b685038c3ec55b28a71332f0307",
          "blockNumber": "0x4f503",
          "transactionHash": "0x8873b532d0e4c137059a072386983be54cbb29d657d99941f510cc851517022e",
          "transactionIndex": "0x0",
          "logIndex": "0x2",
          "removed": false
        }
      ],
      "logsBloom": "0x00000000000000000000000000000200000000000000000000800000000000100800000000000000000000000008000000000004000000000000400000200000000000012000000000000000000000000001000200000000000000000000000000000000020200000000000000000800000000000000000000000040000000400000000000000000000000000000000000000000000000004000000000000000020000000000000002000000000000020000000000000000000000000000000000000000008000000000000000000001000000010000000000000000000020000010000000000000008000000000000000000000000000000000000000000000",
      "type": "0x0",
      "transactionHash": "0x8873b532d0e4c137059a072386983be54cbb29d657d99941f510cc851517022e",
      "transactionIndex": "0x0",
      "blockHash": "0xdd33ec2a377f9df6c2d41533683950a5bc620b685038c3ec55b28a71332f0307",
      "blockNumber": "0x4f503",
      "gasUsed": "0xb6ea9",
      "effectiveGasPrice": "0x9502f9000",
      "from": "0x221ba23331e5395f2018edafc2e0e9ff2acb1ada",
      "to": null,
      "contractAddress": "0xf5d6c1ac69ffaad0bc14c020ceab07f4bfc3ccb3"
    },
    {
      "status": "0x1",
      "cumulativeGasUsed": "0xc28af",
      "logs": [
        {
          "address": "0xf5d6c1ac69ffaad0bc14c020ceab07f4bfc3ccb3",
          "topics": [
            "0x966c160e1c4dbc7df8d69af4ace01e9297c3cf016397b7914971f2fbfa32672d",
            "0x00000000000000000000000069a2698c3d1cf2c348c319f318876eb3dc51402b"
          ],
          "data": "0x0000000000000000000000000000000000000000000000000000000000000001",
          "blockHash": "0xdd33ec2a377f9df6c2d41533683950a5bc620b685038c3ec55b28a71332f0307",
          "blockNumber": "0x4f503",
          "transactionHash": "0xec9ec044701fd13ede54f22967e3bf44f5fb00a82e3432de8d04fe82fd54b6bf",
          "transactionIndex": "0x1",
          "logIndex": "0x3",
          "removed": false
        }
      ],
      "logsBloom": "0x00000000000000000000100000000000000000000000000000000000000000000000000000010000000000000000000000000000000000000000000000000000000000010000000000000000000000000000000200000000000000000000000000000000000000000000000000000000020000000000000000000000000000000000000000000000000000000000000000000000000000000000000000000000000000000000000000000000100000020000000000000000000000000000000000000000000000000000000000000000000000000000000000000000000001000000000000000000000000100000000000000000000000000000000000000000",
      "type": "0x0",
      "transactionHash": "0xec9ec044701fd13ede54f22967e3bf44f5fb00a82e3432de8d04fe82fd54b6bf",
      "transactionIndex": "0x1",
      "blockHash": "0xdd33ec2a377f9df6c2d41533683950a5bc620b685038c3ec55b28a71332f0307",
      "blockNumber": "0x4f503",
      "gasUsed": "0xba06",
      "effectiveGasPrice": "0x9502f9000",
      "from": "0x221ba23331e5395f2018edafc2e0e9ff2acb1ada",
      "to": "0xf5d6c1ac69ffaad0bc14c020ceab07f4bfc3ccb3",
      "contractAddress": null
    },
    {
      "status": "0x1",
      "cumulativeGasUsed": "0xcb1d2",
      "logs": [],
      "logsBloom": "0x00000000000000000000000000000000000000000000000000000000000000000000000000000000000000000000000000000000000000000000000000000000000000000000000000000000000000000000000000000000000000000000000000000000000000000000000000000000000000000000000000000000000000000000000000000000000000000000000000000000000000000000000000000000000000000000000000000000000000000000000000000000000000000000000000000000000000000000000000000000000000000000000000000000000000000000000000000000000000000000000000000000000000000000000000000000",
      "type": "0x0",
      "transactionHash": "0xfda71f78ee3c14d88054b374e96c7b32fd5af7932d5c18b85a64dbd714611428",
      "transactionIndex": "0x2",
      "blockHash": "0xdd33ec2a377f9df6c2d41533683950a5bc620b685038c3ec55b28a71332f0307",
      "blockNumber": "0x4f503",
      "gasUsed": "0x8923",
      "effectiveGasPrice": "0x9502f9000",
      "from": "0x221ba23331e5395f2018edafc2e0e9ff2acb1ada",
      "to": "0x69a2698c3d1cf2c348c319f318876eb3dc51402b",
      "contractAddress": null
    }
  ],
  "libraries": [],
  "pending": [],
  "returns": {},
  "timestamp": 1724332155,
  "chain": 12227332,
  "commit": "e6c51ff"
}