{
  "transactions": [
    {
      "hash": "0x82f19351c5abd34e26333996b67eea610d882f88e511b425552d2f70029848ea",
      "transactionType": "CALL",
      "contractName": null,
      "contractAddress": "0x8f0a68e46eafa5979e729ed96b71498ce2b01f34",
      "function": "approve(address,uint256)",
      "arguments": [
        "0x67fc9BA7E3BE08412405FCdB19Fa63f9C2F11182",
        "97360117309499531875016159"
      ],
      "transaction": {
        "from": "0x221ba23331e5395f2018edafc2e0e9ff2acb1ada",
        "to": "0x8f0a68e46eafa5979e729ed96b71498ce2b01f34",
        "gas": "0x9c46",
        "value": "0x0",
        "input": "0x095ea7b300000000000000000000000067fc9ba7e3be08412405fcdb19fa63f9c2f111820000000000000000000000000000000000000000005088ce88f71495ca435ddf",
        "nonce": "0x34",
        "chainId": "0xba9304"
      },
      "additionalContracts": [],
      "isFixedGasLimit": false
    },
    {
      "hash": "0xa3bafd2c2d5236952eb326bb6010b1d805109c8ff9de84f6588a7ed98ffb5c18",
      "transactionType": "CALL",
      "contractName": null,
      "contractAddress": "0x6fef16c7d0c89a57e1f45a6abd6c4e3c5895623c",
      "function": "presaleSellTokens(uint256,address,address)",
      "arguments": [
        "97360117309499531875016159",
        "0x8f0a68E46EAfa5979E729ed96b71498ce2B01f34",
        "0x221bA23331E5395F2018eDafc2E0E9fF2Acb1aDa"
      ],
      "transaction": {
        "from": "0x221ba23331e5395f2018edafc2e0e9ff2acb1ada",
        "to": "0x6fef16c7d0c89a57e1f45a6abd6c4e3c5895623c",
        "gas": "0x471ee",
        "value": "0x0",
        "input": "0xa117326c0000000000000000000000000000000000000000005088ce88f71495ca435ddf0000000000000000000000008f0a68e46eafa5979e729ed96b71498ce2b01f34000000000000000000000000221ba23331e5395f2018edafc2e0e9ff2acb1ada",
        "nonce": "0x35",
        "chainId": "0xba9304"
      },
      "additionalContracts": [],
      "isFixedGasLimit": false
    }
  ],
  "receipts": [
    {
      "status": "0x1",
      "cumulativeGasUsed": "0x7124",
      "logs": [
        {
          "address": "0x8f0a68e46eafa5979e729ed96b71498ce2b01f34",
          "topics": [
            "0x8c5be1e5ebec7d5bd14f71427d1e84f3dd0314c0f7b2291e5b200ac8c7c3b925",
            "0x000000000000000000000000221ba23331e5395f2018edafc2e0e9ff2acb1ada",
            "0x00000000000000000000000067fc9ba7e3be08412405fcdb19fa63f9c2f11182"
          ],
          "data": "0x0000000000000000000000000000000000000000005088ce88f71495ca435ddf",
          "blockHash": "0x5dcf02e64403fb20982bf731ebeaa19c9f68f3a5099b027a54a395f0ecdbc2dd",
          "blockNumber": "0x50d53",
          "transactionHash": "0x82f19351c5abd34e26333996b67eea610d882f88e511b425552d2f70029848ea",
          "transactionIndex": "0x0",
          "logIndex": "0x0",
          "removed": false
        }
      ],
      "logsBloom": "0x00000000000000000000000000000800000000000000000000000000000000100000400000000000000000000000000000000000000000000000400000200000400000002000000000000000000000000000000000000000000000000000000000000000400000000000000000000000000000000000000000000000000000000000000000000000000000000000000000000000000000000000000000000000020000000000000000000000000000000000000000000000000000000000000000000000000000000000000000000000000000000000000000000000000000000010000000004000000000020000000000000000000000000000000000000000",
      "type": "0x0",
      "transactionHash": "0x82f19351c5abd34e26333996b67eea610d882f88e511b425552d2f70029848ea",
      "transactionIndex": "0x0",
      "blockHash": "0x5dcf02e64403fb20982bf731ebeaa19c9f68f3a5099b027a54a395f0ecdbc2dd",
      "blockNumber": "0x50d53",
      "gasUsed": "0x7124",
      "effectiveGasPrice": "0x9502f9000",
      "from": "0x221ba23331e5395f2018edafc2e0e9ff2acb1ada",
      "to": "0x8f0a68e46eafa5979e729ed96b71498ce2b01f34",
      "contractAddress": null
    },
    {
      "status": "0x1",
      "cumulativeGasUsed": "0x37b37",
      "logs": [
        {
          "address": "0x8f0a68e46eafa5979e729ed96b71498ce2b01f34",
          "topics": [
            "0xddf252ad1be2c89b69c2b068fc378daa952ba7f163c4a11628f55a4df523b3ef",
            "0x000000000000000000000000221ba23331e5395f2018edafc2e0e9ff2acb1ada",
            "0x000000000000000000000000eeebc64d3a9dabc9787918e732311267f7867a2d"
          ],
          "data": "0x0000000000000000000000000000000000000000005088ce88f71495ca435ddf",
          "blockHash": "0x5dcf02e64403fb20982bf731ebeaa19c9f68f3a5099b027a54a395f0ecdbc2dd",
          "blockNumber": "0x50d53",
          "transactionHash": "0xa3bafd2c2d5236952eb326bb6010b1d805109c8ff9de84f6588a7ed98ffb5c18",
          "transactionIndex": "0x1",
          "logIndex": "0x1",
          "removed": false
        },
        {
          "address": "0x8f0a68e46eafa5979e729ed96b71498ce2b01f34",
          "topics": [
            "0x8c5be1e5ebec7d5bd14f71427d1e84f3dd0314c0f7b2291e5b200ac8c7c3b925",
            "0x000000000000000000000000221ba23331e5395f2018edafc2e0e9ff2acb1ada",
            "0x00000000000000000000000067fc9ba7e3be08412405fcdb19fa63f9c2f11182"
          ],
          "data": "0x0000000000000000000000000000000000000000000000000000000000000000",
          "blockHash": "0x5dcf02e64403fb20982bf731ebeaa19c9f68f3a5099b027a54a395f0ecdbc2dd",
          "blockNumber": "0x50d53",
          "transactionHash": "0xa3bafd2c2d5236952eb326bb6010b1d805109c8ff9de84f6588a7ed98ffb5c18",
          "transactionIndex": "0x1",
          "logIndex": "0x2",
          "removed": false
        },
        {
          "address": "0xeeebc64d3a9dabc9787918e732311267f7867a2d",
          "topics": [
            "0x298c349c742327269dc8de6ad66687767310c948ea309df826f5bd103e19d207"
          ],
          "data": "0x0000000000000000000000000000000000000000005088ce88f71495ca435ddf0000000000000000000000000000000000000000000000000000000000000000000000000000000000000000000000000000000000000000000000000000000000000000000000000000000000000000000000000000000089595059388bf105",
          "blockHash": "0x5dcf02e64403fb20982bf731ebeaa19c9f68f3a5099b027a54a395f0ecdbc2dd",
          "blockNumber": "0x50d53",
          "transactionHash": "0xa3bafd2c2d5236952eb326bb6010b1d805109c8ff9de84f6588a7ed98ffb5c18",
          "transactionIndex": "0x1",
          "logIndex": "0x3",
          "removed": false
        },
        {
          "address": "0x6fef16c7d0c89a57e1f45a6abd6c4e3c5895623c",
          "topics": [
            "0x30d10c187c911a5e29925455dfada372e9654a0ded064340fb47c7aa6bc6615d",
            "0x0000000000000000000000000000000000000000000000000000000000000001",
            "0x0000000000000000000000008f0a68e46eafa5979e729ed96b71498ce2b01f34",
            "0x000000000000000000000000221ba23331e5395f2018edafc2e0e9ff2acb1ada"
          ],
          "data": "0x000000000000000000000000221ba23331e5395f2018edafc2e0e9ff2acb1ada00000000000000000000000000000000000000000000000000000000000000000000000000000000000000000000000000000000005088ce88f71495ca435ddf00000000000000000000000000000000000000000000000089595059388bf105",
          "blockHash": "0x5dcf02e64403fb20982bf731ebeaa19c9f68f3a5099b027a54a395f0ecdbc2dd",
          "blockNumber": "0x50d53",
          "transactionHash": "0xa3bafd2c2d5236952eb326bb6010b1d805109c8ff9de84f6588a7ed98ffb5c18",
          "transactionIndex": "0x1",
          "logIndex": "0x4",
          "removed": false
        },
        {
          "address": "0x6fef16c7d0c89a57e1f45a6abd6c4e3c5895623c",
          "topics": [
            "0x0aa659086040921224f272d647abb7f10e23d6b14e6681234bc6af654538aabb",
            "0x000000000000000000000000221ba23331e5395f2018edafc2e0e9ff2acb1ada",
            "0x0000000000000000000000008f0a68e46eafa5979e729ed96b71498ce2b01f34",
            "0x0000000000000000000000000000000000000000000000000000000000000000"
          ],
          "data": "0x",
          "blockHash": "0x5dcf02e64403fb20982bf731ebeaa19c9f68f3a5099b027a54a395f0ecdbc2dd",
          "blockNumber": "0x50d53",
          "transactionHash": "0xa3bafd2c2d5236952eb326bb6010b1d805109c8ff9de84f6588a7ed98ffb5c18",
          "transactionIndex": "0x1",
          "logIndex": "0x5",
          "removed": false
        },
        {
          "address": "0x6fef16c7d0c89a57e1f45a6abd6c4e3c5895623c",
          "topics": [
            "0x850589c8de3d6a3f70010104b19031cc544d9cdedd77c4c847d627524b02a779",
            "0x0000000000000000000000008f0a68e46eafa5979e729ed96b71498ce2b01f34",
            "0x000000000000000000000000eeebc64d3a9dabc9787918e732311267f7867a2d"
          ],
          "data": "0x0000000000000000000000000000000000000000000000000000000000aedbe50000000000000000000000000000000000000000000000023335bcd7e9558d1f0000000000000000000000000000000000000000000000027fc4cbf76777ed8200000000000000000000000000000000000000000000000816b40f581d0e093f",
          "blockHash": "0x5dcf02e64403fb20982bf731ebeaa19c9f68f3a5099b027a54a395f0ecdbc2dd",
          "blockNumber": "0x50d53",
          "transactionHash": "0xa3bafd2c2d5236952eb326bb6010b1d805109c8ff9de84f6588a7ed98ffb5c18",
          "transactionIndex": "0x1",
          "logIndex": "0x6",
          "removed": false
        }
      ],
      "logsBloom": "0x00000000000000000000000008000800000000000100000800800000000000100040400000000000000010000000000000000000000000000000400000240200400000002008000000000008000000000000000000040002000000000000040000000000420400000000000000000800000000000000000000000010000000000000000000020000000000000000000000000000004100000000000000000008020000000000000000000000000000000000080400000000000000000000000000000002000080000000000000400000000040008000000000000000000060000050000000004040000000020000000000000200000000000000000000000000",
      "type": "0x0",
      "transactionHash": "0xa3bafd2c2d5236952eb326bb6010b1d805109c8ff9de84f6588a7ed98ffb5c18",
      "transactionIndex": "0x1",
      "blockHash": "0x5dcf02e64403fb20982bf731ebeaa19c9f68f3a5099b027a54a395f0ecdbc2dd",
      "blockNumber": "0x50d53",
      "gasUsed": "0x30a13",
      "effectiveGasPrice": "0x9502f9000",
      "from": "0x221ba23331e5395f2018edafc2e0e9ff2acb1ada",
      "to": "0x6fef16c7d0c89a57e1f45a6abd6c4e3c5895623c",
      "contractAddress": null
    }
  ],
  "libraries": [],
  "pending": [],
  "returns": {},
  "timestamp": 1724400053,
  "chain": 12227332,
  "commit": "e6c51ff"
}