{
  "transactions": [
    {
      "hash": "0x3026b0d695b67dddbf68a9d030fa920c3e15d579df350e7335e5f70c8eff6768",
      "transactionType": "CALL",
      "contractName": null,
      "contractAddress": "0xa42290534f481a16ac46f596051d5ce9f76672e3",
      "function": "presaleBuyTokens(address,address)",
      "arguments": [
        "0x27b0deCAC278C7b4beF69264CC9F1728CCE32eB7",
        "0x221bA23331E5395F2018eDafc2E0E9fF2Acb1aDa"
      ],
      "transaction": {
        "from": "0x221ba23331e5395f2018edafc2e0e9ff2acb1ada",
        "to": "0xa42290534f481a16ac46f596051d5ce9f76672e3",
        "gas": "0x44d07",
        "value": "0xde0b6b3a7640000",
        "input": "0xf74973da00000000000000000000000027b0decac278c7b4bef69264cc9f1728cce32eb7000000000000000000000000221ba23331e5395f2018edafc2e0e9ff2acb1ada",
        "nonce": "0x33",
        "chainId": "0x4268"
      },
      "additionalContracts": [],
      "isFixedGasLimit": false
    }
  ],
  "receipts": [
    {
      "status": "0x1",
      "cumulativeGasUsed": "0x4412e1",
      "logs": [
        {
          "address": "0x27b0decac278c7b4bef69264cc9f1728cce32eb7",
          "topics": [
            "0x8c5be1e5ebec7d5bd14f71427d1e84f3dd0314c0f7b2291e5b200ac8c7c3b925",
            "0x000000000000000000000000b6afb1b9172b17b260cb1644f25ab269af7a57b5",
            "0x00000000000000000000000068464666f698180d5e7ec2b7679c9f42847456cb"
          ],
          "data": "0x0000000000000000000000000000000000000000001a94e1e7a5fc05967a9910",
          "blockHash": "0xf1fedcdc07744efd7124eac4fb3024137b8f366da2b55e19910157eb504b1c90",
          "blockNumber": "0x1fb66d",
          "transactionHash": "0x3026b0d695b67dddbf68a9d030fa920c3e15d579df350e7335e5f70c8eff6768",
          "transactionIndex": "0x2e",
          "logIndex": "0x33",
          "removed": false
        },
        {
          "address": "0x27b0decac278c7b4bef69264cc9f1728cce32eb7",
          "topics": [
            "0xddf252ad1be2c89b69c2b068fc378daa952ba7f163c4a11628f55a4df523b3ef",
            "0x000000000000000000000000b6afb1b9172b17b260cb1644f25ab269af7a57b5",
            "0x000000000000000000000000221ba23331e5395f2018edafc2e0e9ff2acb1ada"
          ],
          "data": "0x0000000000000000000000000000000000000000001a94e1e7a5fc05967a9910",
          "blockHash": "0xf1fedcdc07744efd7124eac4fb3024137b8f366da2b55e19910157eb504b1c90",
          "blockNumber": "0x1fb66d",
          "transactionHash": "0x3026b0d695b67dddbf68a9d030fa920c3e15d579df350e7335e5f70c8eff6768",
          "transactionIndex": "0x2e",
          "logIndex": "0x34",
          "removed": false
        },
        {
          "address": "0x27b0decac278c7b4bef69264cc9f1728cce32eb7",
          "topics": [
            "0x8c5be1e5ebec7d5bd14f71427d1e84f3dd0314c0f7b2291e5b200ac8c7c3b925",
            "0x000000000000000000000000b6afb1b9172b17b260cb1644f25ab269af7a57b5",
            "0x00000000000000000000000068464666f698180d5e7ec2b7679c9f42847456cb"
          ],
          "data": "0x0000000000000000000000000000000000000000000000000000000000000000",
          "blockHash": "0xf1fedcdc07744efd7124eac4fb3024137b8f366da2b55e19910157eb504b1c90",
          "blockNumber": "0x1fb66d",
          "transactionHash": "0x3026b0d695b67dddbf68a9d030fa920c3e15d579df350e7335e5f70c8eff6768",
          "transactionIndex": "0x2e",
          "logIndex": "0x35",
          "removed": false
        },
        {
          "address": "0xb6afb1b9172b17b260cb1644f25ab269af7a57b5",
          "topics": [
            "0x298c349c742327269dc8de6ad66687767310c948ea309df826f5bd103e19d207"
          ],
          "data": "0x00000000000000000000000000000000000000000000000000000000000000000000000000000000000000000000000000000000001a94e1e7a5fc05967a99100000000000000000000000000000000000000000000000000dbd2fc137a300000000000000000000000000000000000000000000000000000000000000000000",
          "blockHash": "0xf1fedcdc07744efd7124eac4fb3024137b8f366da2b55e19910157eb504b1c90",
          "blockNumber": "0x1fb66d",
          "transactionHash": "0x3026b0d695b67dddbf68a9d030fa920c3e15d579df350e7335e5f70c8eff6768",
          "transactionIndex": "0x2e",
          "logIndex": "0x36",
          "removed": false
        },
        {
          "address": "0xa42290534f481a16ac46f596051d5ce9f76672e3",
          "topics": [
            "0x30d10c187c911a5e29925455dfada372e9654a0ded064340fb47c7aa6bc6615d",
            "0x0000000000000000000000000000000000000000000000000000000000000001",
            "0x00000000000000000000000027b0decac278c7b4bef69264cc9f1728cce32eb7",
            "0x000000000000000000000000221ba23331e5395f2018edafc2e0e9ff2acb1ada"
          ],
          "data": "0x000000000000000000000000221ba23331e5395f2018edafc2e0e9ff2acb1ada00000000000000000000000000000000000000000000000000000000000000010000000000000000000000000000000000000000001a94e1e7a5fc05967a99100000000000000000000000000000000000000000000000000dbd2fc137a30000",
          "blockHash": "0xf1fedcdc07744efd7124eac4fb3024137b8f366da2b55e19910157eb504b1c90",
          "blockNumber": "0x1fb66d",
          "transactionHash": "0x3026b0d695b67dddbf68a9d030fa920c3e15d579df350e7335e5f70c8eff6768",
          "transactionIndex": "0x2e",
          "logIndex": "0x37",
          "removed": false
        },
        {
          "address": "0xa42290534f481a16ac46f596051d5ce9f76672e3",
          "topics": [
            "0xec7216c180712276759063137d0140fceb9ae5e4a17dfb4e4ada37f5d6d74192",
            "0x000000000000000000000000221ba23331e5395f2018edafc2e0e9ff2acb1ada",
            "0x0000000000000000000000000000000000000000003736737b889afda4902574"
          ],
          "data": "0x",
          "blockHash": "0xf1fedcdc07744efd7124eac4fb3024137b8f366da2b55e19910157eb504b1c90",
          "blockNumber": "0x1fb66d",
          "transactionHash": "0x3026b0d695b67dddbf68a9d030fa920c3e15d579df350e7335e5f70c8eff6768",
          "transactionIndex": "0x2e",
          "logIndex": "0x38",
          "removed": false
        },
        {
          "address": "0xa42290534f481a16ac46f596051d5ce9f76672e3",
          "topics": [
            "0x501c4187eb209ae3707c179ec264635ff8cc1ccc3b3d16e434774e989967a3e2",
            "0x00000000000000000000000027b0decac278c7b4bef69264cc9f1728cce32eb7",
            "0x000000000000000000000000b6afb1b9172b17b260cb1644f25ab269af7a57b5"
          ],
          "data": "0x0000000000000000000000000000000000000000000000000000000001e01e540000000000000000000000000000000000000000000000001d70837d9bd3c00000000000000000000000000000000000000000000000000036f4bf04de8c0000",
          "blockHash": "0xf1fedcdc07744efd7124eac4fb3024137b8f366da2b55e19910157eb504b1c90",
          "blockNumber": "0x1fb66d",
          "transactionHash": "0x3026b0d695b67dddbf68a9d030fa920c3e15d579df350e7335e5f70c8eff6768",
          "transactionIndex": "0x2e",
          "logIndex": "0x39",
          "removed": false
        }
      ],
      "logsBloom": "0x0000000000000000000000000800000000000000000000000000000000080010000000000000008000000001010000000000002005000000000040000024000000000020280008004000000800000000000000000004000000000000000004000000000000000000000000000040000000000000000000000000001000000000000000001000000000000000000000000000000001400000800000000000000a020000000400000000000000000000010010000102000000000010000000008000000002000000000000000000000000000000008000000000000000000040000010040000000000000000000000000000001200002000000002000000000000",
      "type": "0x0",
      "transactionHash": "0x3026b0d695b67dddbf68a9d030fa920c3e15d579df350e7335e5f70c8eff6768",
      "transactionIndex": "0x2e",
      "blockHash": "0xf1fedcdc07744efd7124eac4fb3024137b8f366da2b55e19910157eb504b1c90",
      "blockNumber": "0x1fb66d",
      "gasUsed": "0x31d20",
      "effectiveGasPrice": "0x37b4c1",
      "from": "0x221ba23331e5395f2018edafc2e0e9ff2acb1ada",
      "to": "0xa42290534f481a16ac46f596051d5ce9f76672e3",
      "contractAddress": null
    }
  ],
  "libraries": [],
  "pending": [],
  "returns": {},
  "timestamp": 1722937974,
  "chain": 17000,
  "commit": "9eb6ede"
}