{
  "transactions": [
    {
      "hash": "0x7a3d6075c0a1c1d08a354c9df19dd45acee0e8284c907e0f58568b353bae2d0a",
      "transactionType": "CALL",
      "contractName": null,
      "contractAddress": "0xa42290534f481a16ac46f596051d5ce9f76672e3",
      "function": "presaleBuyTokens(address,address)",
      "arguments": [
        "0x27b0deCAC278C7b4beF69264CC9F1728CCE32eB7",
        "0x221bA23331E5395F2018eDafc2E0E9fF2Acb1aDa"
      ],
      "transaction": {
        "from": "0x221ba23331e5395f2018edafc2e0e9ff2acb1ada",
        "to": "0xa42290534f481a16ac46f596051d5ce9f76672e3",
        "gas": "0x66758",
        "value": "0xde0b6b3a7640000",
        "input": "0xf74973da00000000000000000000000027b0decac278c7b4bef69264cc9f1728cce32eb7000000000000000000000000221ba23331e5395f2018edafc2e0e9ff2acb1ada",
        "nonce": "0x32",
        "chainId": "0x4268"
      },
      "additionalContracts": [],
      "isFixedGasLimit": false
    }
  ],
  "receipts": [
    {
      "status": "0x1",
      "cumulativeGasUsed": "0x3d9c41",
      "logs": [
        {
          "address": "0x27b0decac278c7b4bef69264cc9f1728cce32eb7",
          "topics": [
            "0x8c5be1e5ebec7d5bd14f71427d1e84f3dd0314c0f7b2291e5b200ac8c7c3b925",
            "0x000000000000000000000000b6afb1b9172b17b260cb1644f25ab269af7a57b5",
            "0x00000000000000000000000068464666f698180d5e7ec2b7679c9f42847456cb"
          ],
          "data": "0x0000000000000000000000000000000000000000001ca19193e29ef80e158c64",
          "blockHash": "0x1451863f304890fcea432f7ca57c999ca6c1cfe6f06b21e94a6727ecf296fe59",
          "blockNumber": "0x1f9c28",
          "transactionHash": "0x7a3d6075c0a1c1d08a354c9df19dd45acee0e8284c907e0f58568b353bae2d0a",
          "transactionIndex": "0x17",
          "logIndex": "0x23",
          "removed": false
        },
        {
          "address": "0x27b0decac278c7b4bef69264cc9f1728cce32eb7",
          "topics": [
            "0xddf252ad1be2c89b69c2b068fc378daa952ba7f163c4a11628f55a4df523b3ef",
            "0x000000000000000000000000b6afb1b9172b17b260cb1644f25ab269af7a57b5",
            "0x000000000000000000000000221ba23331e5395f2018edafc2e0e9ff2acb1ada"
          ],
          "data": "0x0000000000000000000000000000000000000000001ca19193e29ef80e158c64",
          "blockHash": "0x1451863f304890fcea432f7ca57c999ca6c1cfe6f06b21e94a6727ecf296fe59",
          "blockNumber": "0x1f9c28",
          "transactionHash": "0x7a3d6075c0a1c1d08a354c9df19dd45acee0e8284c907e0f58568b353bae2d0a",
          "transactionIndex": "0x17",
          "logIndex": "0x24",
          "removed": false
        },
        {
          "address": "0x27b0decac278c7b4bef69264cc9f1728cce32eb7",
          "topics": [
            "0x8c5be1e5ebec7d5bd14f71427d1e84f3dd0314c0f7b2291e5b200ac8c7c3b925",
            "0x000000000000000000000000b6afb1b9172b17b260cb1644f25ab269af7a57b5",
            "0x00000000000000000000000068464666f698180d5e7ec2b7679c9f42847456cb"
          ],
          "data": "0x0000000000000000000000000000000000000000000000000000000000000000",
          "blockHash": "0x1451863f304890fcea432f7ca57c999ca6c1cfe6f06b21e94a6727ecf296fe59",
          "blockNumber": "0x1f9c28",
          "transactionHash": "0x7a3d6075c0a1c1d08a354c9df19dd45acee0e8284c907e0f58568b353bae2d0a",
          "transactionIndex": "0x17",
          "logIndex": "0x25",
          "removed": false
        },
        {
          "address": "0xb6afb1b9172b17b260cb1644f25ab269af7a57b5",
          "topics": [
            "0x298c349c742327269dc8de6ad66687767310c948ea309df826f5bd103e19d207"
          ],
          "data": "0x00000000000000000000000000000000000000000000000000000000000000000000000000000000000000000000000000000000001ca19193e29ef80e158c640000000000000000000000000000000000000000000000000dbd2fc137a300000000000000000000000000000000000000000000000000000000000000000000",
          "blockHash": "0x1451863f304890fcea432f7ca57c999ca6c1cfe6f06b21e94a6727ecf296fe59",
          "blockNumber": "0x1f9c28",
          "transactionHash": "0x7a3d6075c0a1c1d08a354c9df19dd45acee0e8284c907e0f58568b353bae2d0a",
          "transactionIndex": "0x17",
          "logIndex": "0x26",
          "removed": false
        },
        {
          "address": "0xa42290534f481a16ac46f596051d5ce9f76672e3",
          "topics": [
            "0x30d10c187c911a5e29925455dfada372e9654a0ded064340fb47c7aa6bc6615d",
            "0x0000000000000000000000000000000000000000000000000000000000000001",
            "0x00000000000000000000000027b0decac278c7b4bef69264cc9f1728cce32eb7",
            "0x000000000000000000000000221ba23331e5395f2018edafc2e0e9ff2acb1ada"
          ],
          "data": "0x000000000000000000000000221ba23331e5395f2018edafc2e0e9ff2acb1ada00000000000000000000000000000000000000000000000000000000000000010000000000000000000000000000000000000000001ca19193e29ef80e158c640000000000000000000000000000000000000000000000000dbd2fc137a30000",
          "blockHash": "0x1451863f304890fcea432f7ca57c999ca6c1cfe6f06b21e94a6727ecf296fe59",
          "blockNumber": "0x1f9c28",
          "transactionHash": "0x7a3d6075c0a1c1d08a354c9df19dd45acee0e8284c907e0f58568b353bae2d0a",
          "transactionIndex": "0x17",
          "logIndex": "0x27",
          "removed": false
        },
        {
          "address": "0xa42290534f481a16ac46f596051d5ce9f76672e3",
          "topics": [
            "0xec7216c180712276759063137d0140fceb9ae5e4a17dfb4e4ada37f5d6d74192",
            "0x000000000000000000000000221ba23331e5395f2018edafc2e0e9ff2acb1ada",
            "0x0000000000000000000000000000000000000000001ca19193e29ef80e158c64"
          ],
          "data": "0x",
          "blockHash": "0x1451863f304890fcea432f7ca57c999ca6c1cfe6f06b21e94a6727ecf296fe59",
          "blockNumber": "0x1f9c28",
          "transactionHash": "0x7a3d6075c0a1c1d08a354c9df19dd45acee0e8284c907e0f58568b353bae2d0a",
          "transactionIndex": "0x17",
          "logIndex": "0x28",
          "removed": false
        },
        {
          "address": "0xa42290534f481a16ac46f596051d5ce9f76672e3",
          "topics": [
            "0x501c4187eb209ae3707c179ec264635ff8cc1ccc3b3d16e434774e989967a3e2",
            "0x00000000000000000000000027b0decac278c7b4bef69264cc9f1728cce32eb7",
            "0x000000000000000000000000b6afb1b9172b17b260cb1644f25ab269af7a57b5"
          ],
          "data": "0x0000000000000000000000000000000000000000000000000000000001ff47640000000000000000000000000000000000000000000000000e55f406e4fa80000000000000000000000000000000000000000000000000001b7a5f826f460000",
          "blockHash": "0x1451863f304890fcea432f7ca57c999ca6c1cfe6f06b21e94a6727ecf296fe59",
          "blockNumber": "0x1f9c28",
          "transactionHash": "0x7a3d6075c0a1c1d08a354c9df19dd45acee0e8284c907e0f58568b353bae2d0a",
          "transactionIndex": "0x17",
          "logIndex": "0x29",
          "removed": false
        }
      ],
      "logsBloom": "0x0000000000000000000000000800000000000000000000000000000000080010000000000000008000000000000000000000000005000000000040000024000000000020280008004000000800000000000000000004000000000000000004000000000100000000000000000040000000000000000000000000001000000000000000001000000000000000000000000000000001400000800000000800000a020000000400000000000000000000010010000102000000000010000000008000000002000000000200000000000000000000008000000000000000000040000010040000000000000000000000000000001200002000000002000000000000",
      "type": "0x0",
      "transactionHash": "0x7a3d6075c0a1c1d08a354c9df19dd45acee0e8284c907e0f58568b353bae2d0a",
      "transactionIndex": "0x17",
      "blockHash": "0x1451863f304890fcea432f7ca57c999ca6c1cfe6f06b21e94a6727ecf296fe59",
      "blockNumber": "0x1f9c28",
      "gasUsed": "0x4a2dc",
      "effectiveGasPrice": "0x11773",
      "from": "0x221ba23331e5395f2018edafc2e0e9ff2acb1ada",
      "to": "0xa42290534f481a16ac46f596051d5ce9f76672e3",
      "contractAddress": null
    }
  ],
  "libraries": [],
  "pending": [],
  "returns": {},
  "timestamp": 1722850214,
  "chain": 17000,
  "commit": "47dc7c3"
}