{
  "transactions": [
    {
      "hash": "0x626b1020c491cb5d20dba745abef3ec1aae62bd8692c77e9a6fa61f1a65d3aac",
      "transactionType": "CALL",
      "contractName": null,
      "contractAddress": "0xf6fc2726013b1a9b3171c78f3599017e7ca0bd79",
      "function": "presaleBuyTokens(address,address)",
      "arguments": [
        "0x193275c4025CCdB3CeBF3AaDb895745465309808",
        "0x221bA23331E5395F2018eDafc2E0E9fF2Acb1aDa"
      ],
      "transaction": {
        "from": "0x221ba23331e5395f2018edafc2e0e9ff2acb1ada",
        "to": "0xf6fc2726013b1a9b3171c78f3599017e7ca0bd79",
        "gas": "0x674ea",
        "value": "0x1bc16d674ec80000",
        "input": "0xf74973da000000000000000000000000193275c4025ccdb3cebf3aadb895745465309808000000000000000000000000221ba23331e5395f2018edafc2e0e9ff2acb1ada",
        "nonce": "0x42",
        "chainId": "0x4268"
      },
      "additionalContracts": [],
      "isFixedGasLimit": false
    }
  ],
  "receipts": [
    {
      "status": "0x1",
      "cumulativeGasUsed": "0x9ac799",
      "logs": [
        {
          "address": "0x193275c4025ccdb3cebf3aadb895745465309808",
          "topics": [
            "0x8c5be1e5ebec7d5bd14f71427d1e84f3dd0314c0f7b2291e5b200ac8c7c3b925",
            "0x000000000000000000000000bd11b9b5c5a6ced1aa8164bf19b35a9842f8f14d",
            "0x000000000000000000000000ff0778ef4ee7c76e9a034b860d36aaa0100c35eb"
          ],
          "data": "0x00000000000000000000000000000000000000000037790a0e8714009b49c000",
          "blockHash": "0x3debf1a6f6e2c9673fb1c0b7bca218ad8d98dcb64bb64913979ae0d0a954d5e6",
          "blockNumber": "0x1fe6a7",
          "transactionHash": "0x626b1020c491cb5d20dba745abef3ec1aae62bd8692c77e9a6fa61f1a65d3aac",
          "transactionIndex": "0x52",
          "logIndex": "0x93",
          "removed": false
        },
        {
          "address": "0x193275c4025ccdb3cebf3aadb895745465309808",
          "topics": [
            "0xddf252ad1be2c89b69c2b068fc378daa952ba7f163c4a11628f55a4df523b3ef",
            "0x000000000000000000000000bd11b9b5c5a6ced1aa8164bf19b35a9842f8f14d",
            "0x000000000000000000000000221ba23331e5395f2018edafc2e0e9ff2acb1ada"
          ],
          "data": "0x00000000000000000000000000000000000000000037790a0e8714009b49c000",
          "blockHash": "0x3debf1a6f6e2c9673fb1c0b7bca218ad8d98dcb64bb64913979ae0d0a954d5e6",
          "blockNumber": "0x1fe6a7",
          "transactionHash": "0x626b1020c491cb5d20dba745abef3ec1aae62bd8692c77e9a6fa61f1a65d3aac",
          "transactionIndex": "0x52",
          "logIndex": "0x94",
          "removed": false
        },
        {
          "address": "0x193275c4025ccdb3cebf3aadb895745465309808",
          "topics": [
            "0x8c5be1e5ebec7d5bd14f71427d1e84f3dd0314c0f7b2291e5b200ac8c7c3b925",
            "0x000000000000000000000000bd11b9b5c5a6ced1aa8164bf19b35a9842f8f14d",
            "0x000000000000000000000000ff0778ef4ee7c76e9a034b860d36aaa0100c35eb"
          ],
          "data": "0x0000000000000000000000000000000000000000000000000000000000000000",
          "blockHash": "0x3debf1a6f6e2c9673fb1c0b7bca218ad8d98dcb64bb64913979ae0d0a954d5e6",
          "blockNumber": "0x1fe6a7",
          "transactionHash": "0x626b1020c491cb5d20dba745abef3ec1aae62bd8692c77e9a6fa61f1a65d3aac",
          "transactionIndex": "0x52",
          "logIndex": "0x95",
          "removed": false
        },
        {
          "address": "0xbd11b9b5c5a6ced1aa8164bf19b35a9842f8f14d",
          "topics": [
            "0x298c349c742327269dc8de6ad66687767310c948ea309df826f5bd103e19d207"
          ],
          "data": "0x000000000000000000000000000000000000000000000000000000000000000000000000000000000000000000000000000000000037790a0e8714009b49c0000000000000000000000000000000000000000000000000001b7a5f826f4600000000000000000000000000000000000000000000000000000000000000000000",
          "blockHash": "0x3debf1a6f6e2c9673fb1c0b7bca218ad8d98dcb64bb64913979ae0d0a954d5e6",
          "blockNumber": "0x1fe6a7",
          "transactionHash": "0x626b1020c491cb5d20dba745abef3ec1aae62bd8692c77e9a6fa61f1a65d3aac",
          "transactionIndex": "0x52",
          "logIndex": "0x96",
          "removed": false
        },
        {
          "address": "0xf6fc2726013b1a9b3171c78f3599017e7ca0bd79",
          "topics": [
            "0x30d10c187c911a5e29925455dfada372e9654a0ded064340fb47c7aa6bc6615d",
            "0x0000000000000000000000000000000000000000000000000000000000000001",
            "0x000000000000000000000000193275c4025ccdb3cebf3aadb895745465309808",
            "0x000000000000000000000000221ba23331e5395f2018edafc2e0e9ff2acb1ada"
          ],
          "data": "0x000000000000000000000000221ba23331e5395f2018edafc2e0e9ff2acb1ada000000000000000000000000000000000000000000000000000000000000000100000000000000000000000000000000000000000037790a0e8714009b49c0000000000000000000000000000000000000000000000000001b7a5f826f460000",
          "blockHash": "0x3debf1a6f6e2c9673fb1c0b7bca218ad8d98dcb64bb64913979ae0d0a954d5e6",
          "blockNumber": "0x1fe6a7",
          "transactionHash": "0x626b1020c491cb5d20dba745abef3ec1aae62bd8692c77e9a6fa61f1a65d3aac",
          "transactionIndex": "0x52",
          "logIndex": "0x97",
          "removed": false
        },
        {
          "address": "0xf6fc2726013b1a9b3171c78f3599017e7ca0bd79",
          "topics": [
            "0xec7216c180712276759063137d0140fceb9ae5e4a17dfb4e4ada37f5d6d74192",
            "0x000000000000000000000000221ba23331e5395f2018edafc2e0e9ff2acb1ada",
            "0x00000000000000000000000000000000000000000037790a0e8714009b49c000"
          ],
          "data": "0x",
          "blockHash": "0x3debf1a6f6e2c9673fb1c0b7bca218ad8d98dcb64bb64913979ae0d0a954d5e6",
          "blockNumber": "0x1fe6a7",
          "transactionHash": "0x626b1020c491cb5d20dba745abef3ec1aae62bd8692c77e9a6fa61f1a65d3aac",
          "transactionIndex": "0x52",
          "logIndex": "0x98",
          "removed": false
        },
        {
          "address": "0xf6fc2726013b1a9b3171c78f3599017e7ca0bd79",
          "topics": [
            "0x850589c8de3d6a3f70010104b19031cc544d9cdedd77c4c847d627524b02a779",
            "0x000000000000000000000000193275c4025ccdb3cebf3aadb895745465309808",
            "0x000000000000000000000000bd11b9b5c5a6ced1aa8164bf19b35a9842f8f14d"
          ],
          "data": "0x0000000000000000000000000000000000000000000000000000000001dff7eb0000000000000000000000000000000000000000000000001d9662b44522000000000000000000000000000000000000000000000000000036f4bf04de8c00000000000000000000000000000000000000000000000000001b7a5f826f460000",
          "blockHash": "0x3debf1a6f6e2c9673fb1c0b7bca218ad8d98dcb64bb64913979ae0d0a954d5e6",
          "blockNumber": "0x1fe6a7",
          "transactionHash": "0x626b1020c491cb5d20dba745abef3ec1aae62bd8692c77e9a6fa61f1a65d3aac",
          "transactionIndex": "0x52",
          "logIndex": "0x99",
          "removed": false
        }
      ],
      "logsBloom": "0x00000080000000000000000008000800000000000100000808000000000000100000000000000080000000000000000000000000000000000000400000244000000000002000000040000008000000000000000000040000000000000000041004000000000000000000000000000000000000000000000000000010000000000000000000000000000000000010000000000000004000000000000000000008020000000000000000040000000000000000000100000000000000000000000000000002000000000000004400401000000000008000800000200080000040400010000000000000000080000000000002000200400000440000000000010000",
      "type": "0x0",
      "transactionHash": "0x626b1020c491cb5d20dba745abef3ec1aae62bd8692c77e9a6fa61f1a65d3aac",
      "transactionIndex": "0x52",
      "blockHash": "0x3debf1a6f6e2c9673fb1c0b7bca218ad8d98dcb64bb64913979ae0d0a954d5e6",
      "blockNumber": "0x1fe6a7",
      "gasUsed": "0x4acaf",
      "effectiveGasPrice": "0x438c36",
      "from": "0x221ba23331e5395f2018edafc2e0e9ff2acb1ada",
      "to": "0xf6fc2726013b1a9b3171c78f3599017e7ca0bd79",
      "contractAddress": null
    }
  ],
  "libraries": [],
  "pending": [],
  "returns": {},
  "timestamp": 1723098261,
  "chain": 17000,
  "commit": "4f3d0be"
}