{
  "transactions": [
    {
      "hash": "0x8949e7976e56a26555aadefbbbb7183c4e2602c9bdfd821327d805e10293b622",
      "transactionType": "CALL",
      "contractName": null,
      "contractAddress": "0xa42290534f481a16ac46f596051d5ce9f76672e3",
      "function": "presaleBuyTokens(address,address)",
      "arguments": [
        "0x5cBb2eA4BC3857011e9a82C7a4E1c2FfA4279a6D",
        "0x221bA23331E5395F2018eDafc2E0E9fF2Acb1aDa"
      ],
      "transaction": {
        "from": "0x221ba23331e5395f2018edafc2e0e9ff2acb1ada",
        "to": "0xa42290534f481a16ac46f596051d5ce9f76672e3",
        "gas": "0x4b865",
        "value": "0xde0b6b3a7640000",
        "input": "0xf74973da0000000000000000000000005cbb2ea4bc3857011e9a82c7a4e1c2ffa4279a6d000000000000000000000000221ba23331e5395f2018edafc2e0e9ff2acb1ada",
        "nonce": "0x34",
        "chainId": "0x4268"
      },
      "additionalContracts": [],
      "isFixedGasLimit": false
    },
    {
      "hash": "0x113eab0530b4882d15c00252951934ff318a4875c765c0098a4b58305e138c6e",
      "transactionType": "CALL",
      "contractName": null,
      "contractAddress": "0x5cbb2ea4bc3857011e9a82c7a4e1c2ffa4279a6d",
      "function": "approve(address,uint256)",
      "arguments": [
        "0x68464666f698180D5E7eC2b7679c9f42847456CB",
        "33913285895227914796184824"
      ],
      "transaction": {
        "from": "0x221ba23331e5395f2018edafc2e0e9ff2acb1ada",
        "to": "0x5cbb2ea4bc3857011e9a82c7a4e1c2ffa4279a6d",
        "gas": "0xf889",
        "value": "0x0",
        "input": "0x095ea7b300000000000000000000000068464666f698180d5e7ec2b7679c9f42847456cb0000000000000000000000000000000000000000001c0d6ae9850c5db264b4f8",
        "nonce": "0x35",
        "chainId": "0x4268"
      },
      "additionalContracts": [],
      "isFixedGasLimit": false
    }
  ],
  "receipts": [
    {
      "status": "0x1",
      "cumulativeGasUsed": "0x5e874c",
      "logs": [
        {
          "address": "0x5cbb2ea4bc3857011e9a82c7a4e1c2ffa4279a6d",
          "topics": [
            "0x8c5be1e5ebec7d5bd14f71427d1e84f3dd0314c0f7b2291e5b200ac8c7c3b925",
            "0x0000000000000000000000004e86397a0b5de4218f0de7821e5192d8a58c195c",
            "0x00000000000000000000000068464666f698180d5e7ec2b7679c9f42847456cb"
          ],
          "data": "0x0000000000000000000000000000000000000000001c0d6ae9850c5db264b4f8",
          "blockHash": "0xc207b69b98502384186497b945de02ad6ebb4251b6cf8dd93ad7b4ee023edfe7",
          "blockNumber": "0x1fb68a",
          "transactionHash": "0x8949e7976e56a26555aadefbbbb7183c4e2602c9bdfd821327d805e10293b622",
          "transactionIndex": "0xf",
          "logIndex": "0xf",
          "removed": false
        },
        {
          "address": "0x5cbb2ea4bc3857011e9a82c7a4e1c2ffa4279a6d",
          "topics": [
            "0xddf252ad1be2c89b69c2b068fc378daa952ba7f163c4a11628f55a4df523b3ef",
            "0x0000000000000000000000004e86397a0b5de4218f0de7821e5192d8a58c195c",
            "0x000000000000000000000000221ba23331e5395f2018edafc2e0e9ff2acb1ada"
          ],
          "data": "0x0000000000000000000000000000000000000000001c0d6ae9850c5db264b4f8",
          "blockHash": "0xc207b69b98502384186497b945de02ad6ebb4251b6cf8dd93ad7b4ee023edfe7",
          "blockNumber": "0x1fb68a",
          "transactionHash": "0x8949e7976e56a26555aadefbbbb7183c4e2602c9bdfd821327d805e10293b622",
          "transactionIndex": "0xf",
          "logIndex": "0x10",
          "removed": false
        },
        {
          "address": "0x5cbb2ea4bc3857011e9a82c7a4e1c2ffa4279a6d",
          "topics": [
            "0x8c5be1e5ebec7d5bd14f71427d1e84f3dd0314c0f7b2291e5b200ac8c7c3b925",
            "0x0000000000000000000000004e86397a0b5de4218f0de7821e5192d8a58c195c",
            "0x00000000000000000000000068464666f698180d5e7ec2b7679c9f42847456cb"
          ],
          "data": "0x0000000000000000000000000000000000000000000000000000000000000000",
          "blockHash": "0xc207b69b98502384186497b945de02ad6ebb4251b6cf8dd93ad7b4ee023edfe7",
          "blockNumber": "0x1fb68a",
          "transactionHash": "0x8949e7976e56a26555aadefbbbb7183c4e2602c9bdfd821327d805e10293b622",
          "transactionIndex": "0xf",
          "logIndex": "0x11",
          "removed": false
        },
        {
          "address": "0x4e86397a0b5de4218f0de7821e5192d8a58c195c",
          "topics": [
            "0x298c349c742327269dc8de6ad66687767310c948ea309df826f5bd103e19d207"
          ],
          "data": "0x00000000000000000000000000000000000000000000000000000000000000000000000000000000000000000000000000000000001c0d6ae9850c5db264b4f80000000000000000000000000000000000000000000000000dbd2fc137a300000000000000000000000000000000000000000000000000000000000000000000",
          "blockHash": "0xc207b69b98502384186497b945de02ad6ebb4251b6cf8dd93ad7b4ee023edfe7",
          "blockNumber": "0x1fb68a",
          "transactionHash": "0x8949e7976e56a26555aadefbbbb7183c4e2602c9bdfd821327d805e10293b622",
          "transactionIndex": "0xf",
          "logIndex": "0x12",
          "removed": false
        },
        {
          "address": "0xa42290534f481a16ac46f596051d5ce9f76672e3",
          "topics": [
            "0x30d10c187c911a5e29925455dfada372e9654a0ded064340fb47c7aa6bc6615d",
            "0x0000000000000000000000000000000000000000000000000000000000000001",
            "0x0000000000000000000000005cbb2ea4bc3857011e9a82c7a4e1c2ffa4279a6d",
            "0x000000000000000000000000221ba23331e5395f2018edafc2e0e9ff2acb1ada"
          ],
          "data": "0x000000000000000000000000221ba23331e5395f2018edafc2e0e9ff2acb1ada00000000000000000000000000000000000000000000000000000000000000010000000000000000000000000000000000000000001c0d6ae9850c5db264b4f80000000000000000000000000000000000000000000000000dbd2fc137a30000",
          "blockHash": "0xc207b69b98502384186497b945de02ad6ebb4251b6cf8dd93ad7b4ee023edfe7",
          "blockNumber": "0x1fb68a",
          "transactionHash": "0x8949e7976e56a26555aadefbbbb7183c4e2602c9bdfd821327d805e10293b622",
          "transactionIndex": "0xf",
          "logIndex": "0x13",
          "removed": false
        },
        {
          "address": "0xa42290534f481a16ac46f596051d5ce9f76672e3",
          "topics": [
            "0xec7216c180712276759063137d0140fceb9ae5e4a17dfb4e4ada37f5d6d74192",
            "0x000000000000000000000000221ba23331e5395f2018edafc2e0e9ff2acb1ada",
            "0x0000000000000000000000000000000000000000001c0d6ae9850c5db264b4f8"
          ],
          "data": "0x",
          "blockHash": "0xc207b69b98502384186497b945de02ad6ebb4251b6cf8dd93ad7b4ee023edfe7",
          "blockNumber": "0x1fb68a",
          "transactionHash": "0x8949e7976e56a26555aadefbbbb7183c4e2602c9bdfd821327d805e10293b622",
          "transactionIndex": "0xf",
          "logIndex": "0x14",
          "removed": false
        },
        {
          "address": "0xa42290534f481a16ac46f596051d5ce9f76672e3",
          "topics": [
            "0x501c4187eb209ae3707c179ec264635ff8cc1ccc3b3d16e434774e989967a3e2",
            "0x0000000000000000000000005cbb2ea4bc3857011e9a82c7a4e1c2ffa4279a6d",
            "0x0000000000000000000000004e86397a0b5de4218f0de7821e5192d8a58c195c"
          ],
          "data": "0x0000000000000000000000000000000000000000000000000000000001f59e9d00000000000000000000000000000000000000000000000012c58c188305c800000000000000000000000000000000000000000000000000267f3a4d7eef0000",
          "blockHash": "0xc207b69b98502384186497b945de02ad6ebb4251b6cf8dd93ad7b4ee023edfe7",
          "blockNumber": "0x1fb68a",
          "transactionHash": "0x8949e7976e56a26555aadefbbbb7183c4e2602c9bdfd821327d805e10293b622",
          "transactionIndex": "0xf",
          "logIndex": "0x15",
          "removed": false
        }
      ],
      "logsBloom": "0x00020000000000000000000008000000000000000000000000000000000800100000002000000080000000000000000000000000010000000000400000240000000000002000080040000048000000020000000000040000000000000000040000000000000000000000000000400010080000000000000000000010000000008000000010000000000000000008000000000000014000000000000000000028020000000400000000000000000000000000400103000000000000000000000000000002000000000000000000000000008000008000000000000000000040000010040000000000080000000000000000000200000000000000000000001080",
      "type": "0x0",
      "transactionHash": "0x8949e7976e56a26555aadefbbbb7183c4e2602c9bdfd821327d805e10293b622",
      "transactionIndex": "0xf",
      "blockHash": "0xc207b69b98502384186497b945de02ad6ebb4251b6cf8dd93ad7b4ee023edfe7",
      "blockNumber": "0x1fb68a",
      "gasUsed": "0x36adc",
      "effectiveGasPrice": "0x32d766",
      "from": "0x221ba23331e5395f2018edafc2e0e9ff2acb1ada",
      "to": "0xa42290534f481a16ac46f596051d5ce9f76672e3",
      "contractAddress": null
    },
    {
      "status": "0x1",
      "cumulativeGasUsed": "0x5f3b3c",
      "logs": [
        {
          "address": "0x5cbb2ea4bc3857011e9a82c7a4e1c2ffa4279a6d",
          "topics": [
            "0x8c5be1e5ebec7d5bd14f71427d1e84f3dd0314c0f7b2291e5b200ac8c7c3b925",
            "0x000000000000000000000000221ba23331e5395f2018edafc2e0e9ff2acb1ada",
            "0x00000000000000000000000068464666f698180d5e7ec2b7679c9f42847456cb"
          ],
          "data": "0x0000000000000000000000000000000000000000001c0d6ae9850c5db264b4f8",
          "blockHash": "0xc207b69b98502384186497b945de02ad6ebb4251b6cf8dd93ad7b4ee023edfe7",
          "blockNumber": "0x1fb68a",
          "transactionHash": "0x113eab0530b4882d15c00252951934ff318a4875c765c0098a4b58305e138c6e",
          "transactionIndex": "0x10",
          "logIndex": "0x16",
          "removed": false
        }
      ],
      "logsBloom": "0x00000000000000000000000000000000000000000000000000000000000000100000002000000000000000000000000000000000000000000000400000200000000000002000000000000000000000000000000000000000000000000000000000000000000000000000000000400000000000000000000000000000000000008000000000000000000000000008000000000000000000000000000000000000020000000400000000000000000000000000000002000000000000000000000000000000000000000000000000000000000000000000000000000000000000000010000000000000000000000000000000000000000000000000000000000000",
      "type": "0x0",
      "transactionHash": "0x113eab0530b4882d15c00252951934ff318a4875c765c0098a4b58305e138c6e",
      "transactionIndex": "0x10",
      "blockHash": "0xc207b69b98502384186497b945de02ad6ebb4251b6cf8dd93ad7b4ee023edfe7",
      "blockNumber": "0x1fb68a",
      "gasUsed": "0xb3f0",
      "effectiveGasPrice": "0x32d766",
      "from": "0x221ba23331e5395f2018edafc2e0e9ff2acb1ada",
      "to": "0x5cbb2ea4bc3857011e9a82c7a4e1c2ffa4279a6d",
      "contractAddress": null
    }
  ],
  "libraries": [],
  "pending": [],
  "returns": {},
  "timestamp": 1722938322,
  "chain": 17000,
  "commit": "9eb6ede"
}