{
  "transactions": [
    {
      "hash": "0x5beeea3992a4921dc8ad578341eb62772650ac3bb68b6cf702bb5391750e2d35",
      "transactionType": "CALL",
      "contractName": null,
      "contractAddress": "0x193275c4025ccdb3cebf3aadb895745465309808",
      "function": "approve(address,uint256)",
      "arguments": [
        "0xfF0778EF4EE7c76E9a034B860d36AAa0100C35EB",
        "67062511937500000000000000"
      ],
      "transaction": {
        "from": "0x221ba23331e5395f2018edafc2e0e9ff2acb1ada",
        "to": "0x193275c4025ccdb3cebf3aadb895745465309808",
        "gas": "0xf868",
        "value": "0x0",
        "input": "0x095ea7b3000000000000000000000000ff0778ef4ee7c76e9a034b860d36aaa0100c35eb00000000000000000000000000000000000000000037790a0e8714009b49c000",
        "nonce": "0x43",
        "chainId": "0x4268"
      },
      "additionalContracts": [],
      "isFixedGasLimit": false
    },
    {
      "hash": "0x58ba317386941a05a742bfb8de551305c86de4192335006f725687eb505bd6e4",
      "transactionType": "CALL",
      "contractName": null,
      "contractAddress": "0xf6fc2726013b1a9b3171c78f3599017e7ca0bd79",
      "function": "presaleSellTokens(uint256,address,address)",
      "arguments": [
        "34062511000000000000000000",
        "0x193275c4025CCdB3CeBF3AaDb895745465309808",
        "0x221bA23331E5395F2018eDafc2E0E9fF2Acb1aDa"
      ],
      "transaction": {
        "from": "0x221ba23331e5395f2018edafc2e0e9ff2acb1ada",
        "to": "0xf6fc2726013b1a9b3171c78f3599017e7ca0bd79",
        "gas": "0x3f47f",
        "value": "0x0",
        "input": "0xa117326c0000000000000000000000000000000000000000001c2d046bdbfe166d5c0000000000000000000000000000193275c4025ccdb3cebf3aadb895745465309808000000000000000000000000221ba23331e5395f2018edafc2e0e9ff2acb1ada",
        "nonce": "0x44",
        "chainId": "0x4268"
      },
      "additionalContracts": [],
      "isFixedGasLimit": false
    }
  ],
  "receipts": [
    {
      "status": "0x1",
      "cumulativeGasUsed": "0x221024",
      "logs": [
        {
          "address": "0x193275c4025ccdb3cebf3aadb895745465309808",
          "topics": [
            "0x8c5be1e5ebec7d5bd14f71427d1e84f3dd0314c0f7b2291e5b200ac8c7c3b925",
            "0x000000000000000000000000221ba23331e5395f2018edafc2e0e9ff2acb1ada",
            "0x000000000000000000000000ff0778ef4ee7c76e9a034b860d36aaa0100c35eb"
          ],
          "data": "0x00000000000000000000000000000000000000000037790a0e8714009b49c000",
          "blockHash": "0xc3adb9ebc498653123ac988126abfea8d79165750518dd219ce391b46461331a",
          "blockNumber": "0x1fe6e8",
          "transactionHash": "0x5beeea3992a4921dc8ad578341eb62772650ac3bb68b6cf702bb5391750e2d35",
          "transactionIndex": "0x19",
          "logIndex": "0x1e",
          "removed": false
        }
      ],
      "logsBloom": "0x00000080000000000000000000000000000000000000000000000000000000100000000000000000000000000000000000000000000000000000400000200000000000002000000000000000000000000000000000000000000000000000000000000000000000000000000000000000000000000000000000000000000000000000000000000000000000000010000000000000000000000000000000000000020000000000000000000000000000000000000000000000000000000000000000000000000000000000004000000000000000000000000000200080000000000010000000000000000000000000000000000000000000040000000000000000",
      "type": "0x0",
      "transactionHash": "0x5beeea3992a4921dc8ad578341eb62772650ac3bb68b6cf702bb5391750e2d35",
      "transactionIndex": "0x19",
      "blockHash": "0xc3adb9ebc498653123ac988126abfea8d79165750518dd219ce391b46461331a",
      "blockNumber": "0x1fe6e8",
      "gasUsed": "0xb3d8",
      "effectiveGasPrice": "0x9402a7",
      "from": "0x221ba23331e5395f2018edafc2e0e9ff2acb1ada",
      "to": "0x193275c4025ccdb3cebf3aadb895745465309808",
      "contractAddress": null
    },
    {
      "status": "0x1",
      "cumulativeGasUsed": "0x24ed2c",
      "logs": [
        {
          "address": "0x193275c4025ccdb3cebf3aadb895745465309808",
          "topics": [
            "0xddf252ad1be2c89b69c2b068fc378daa952ba7f163c4a11628f55a4df523b3ef",
            "0x000000000000000000000000221ba23331e5395f2018edafc2e0e9ff2acb1ada",
            "0x000000000000000000000000bd11b9b5c5a6ced1aa8164bf19b35a9842f8f14d"
          ],
          "data": "0x0000000000000000000000000000000000000000001c2d046bdbfe166d5c0000",
          "blockHash": "0xc3adb9ebc498653123ac988126abfea8d79165750518dd219ce391b46461331a",
          "blockNumber": "0x1fe6e8",
          "transactionHash": "0x58ba317386941a05a742bfb8de551305c86de4192335006f725687eb505bd6e4",
          "transactionIndex": "0x1a",
          "logIndex": "0x1f",
          "removed": false
        },
        {
          "address": "0x193275c4025ccdb3cebf3aadb895745465309808",
          "topics": [
            "0x8c5be1e5ebec7d5bd14f71427d1e84f3dd0314c0f7b2291e5b200ac8c7c3b925",
            "0x000000000000000000000000221ba23331e5395f2018edafc2e0e9ff2acb1ada",
            "0x000000000000000000000000ff0778ef4ee7c76e9a034b860d36aaa0100c35eb"
          ],
          "data": "0x0000000000000000000000000000000000000000001b4c05a2ab15ea2dedc000",
          "blockHash": "0xc3adb9ebc498653123ac988126abfea8d79165750518dd219ce391b46461331a",
          "blockNumber": "0x1fe6e8",
          "transactionHash": "0x58ba317386941a05a742bfb8de551305c86de4192335006f725687eb505bd6e4",
          "transactionIndex": "0x1a",
          "logIndex": "0x20",
          "removed": false
        },
        {
          "address": "0xbd11b9b5c5a6ced1aa8164bf19b35a9842f8f14d",
          "topics": [
            "0x298c349c742327269dc8de6ad66687767310c948ea309df826f5bd103e19d207"
          ],
          "data": "0x0000000000000000000000000000000000000000001c2d046bdbfe166d5c0000000000000000000000000000000000000000000000000000000000000000000000000000000000000000000000000000000000000000000000000000000000000000000000000000000000000000000000000000000000000e1ff0577979aa3d",
          "blockHash": "0xc3adb9ebc498653123ac988126abfea8d79165750518dd219ce391b46461331a",
          "blockNumber": "0x1fe6e8",
          "transactionHash": "0x58ba317386941a05a742bfb8de551305c86de4192335006f725687eb505bd6e4",
          "transactionIndex": "0x1a",
          "logIndex": "0x21",
          "removed": false
        },
        {
          "address": "0xf6fc2726013b1a9b3171c78f3599017e7ca0bd79",
          "topics": [
            "0x30d10c187c911a5e29925455dfada372e9654a0ded064340fb47c7aa6bc6615d",
            "0x0000000000000000000000000000000000000000000000000000000000000001",
            "0x000000000000000000000000193275c4025ccdb3cebf3aadb895745465309808",
            "0x000000000000000000000000221ba23331e5395f2018edafc2e0e9ff2acb1ada"
          ],
          "data": "0x000000000000000000000000221ba23331e5395f2018edafc2e0e9ff2acb1ada00000000000000000000000000000000000000000000000000000000000000000000000000000000000000000000000000000000001c2d046bdbfe166d5c00000000000000000000000000000000000000000000000000000e1ff0577979aa3d",
          "blockHash": "0xc3adb9ebc498653123ac988126abfea8d79165750518dd219ce391b46461331a",
          "blockNumber": "0x1fe6e8",
          "transactionHash": "0x58ba317386941a05a742bfb8de551305c86de4192335006f725687eb505bd6e4",
          "transactionIndex": "0x1a",
          "logIndex": "0x22",
          "removed": false
        },
        {
          "address": "0xf6fc2726013b1a9b3171c78f3599017e7ca0bd79",
          "topics": [
            "0xec7216c180712276759063137d0140fceb9ae5e4a17dfb4e4ada37f5d6d74192",
            "0x000000000000000000000000221ba23331e5395f2018edafc2e0e9ff2acb1ada",
            "0x0000000000000000000000000000000000000000001b4c05a2ab15ea2dedc000"
          ],
          "data": "0x",
          "blockHash": "0xc3adb9ebc498653123ac988126abfea8d79165750518dd219ce391b46461331a",
          "blockNumber": "0x1fe6e8",
          "transactionHash": "0x58ba317386941a05a742bfb8de551305c86de4192335006f725687eb505bd6e4",
          "transactionIndex": "0x1a",
          "logIndex": "0x23",
          "removed": false
        },
        {
          "address": "0xf6fc2726013b1a9b3171c78f3599017e7ca0bd79",
          "topics": [
            "0x850589c8de3d6a3f70010104b19031cc544d9cdedd77c4c847d627524b02a779",
            "0x000000000000000000000000193275c4025ccdb3cebf3aadb895745465309808",
            "0x000000000000000000000000bd11b9b5c5a6ced1aa8164bf19b35a9842f8f14d"
          ],
          "data": "0x00000000000000000000000000000000000000000000000000000000020088620000000000000000000000000000000000000000000000000da2610fb87bf44b0000000000000000000000000000000000000000000000001ab4de55eb98ab86000000000000000000000000000000000000000000000000299a4fd9e8bfaa3d",
          "blockHash": "0xc3adb9ebc498653123ac988126abfea8d79165750518dd219ce391b46461331a",
          "blockNumber": "0x1fe6e8",
          "transactionHash": "0x58ba317386941a05a742bfb8de551305c86de4192335006f725687eb505bd6e4",
          "transactionIndex": "0x1a",
          "logIndex": "0x24",
          "removed": false
        }
      ],
      "logsBloom": "0x00000080000000000000000008000800000000000100000808000000000000100000000000000080000000000000000000000000000000000000400000244000000000002000000040000008000000000000000000040000000000000000240004000000000000000000000000000000000000000000000000000010000000000000000000000000000000000010000000000000004000000000000000000008020000000000000000040000000000000000000100080000000000000000000000000002000000000000004400401000000000008000004000200080000040000010000000000000000080000000000002000200400000440000000000010000",
      "type": "0x0",
      "transactionHash": "0x58ba317386941a05a742bfb8de551305c86de4192335006f725687eb505bd6e4",
      "transactionIndex": "0x1a",
      "blockHash": "0xc3adb9ebc498653123ac988126abfea8d79165750518dd219ce391b46461331a",
      "blockNumber": "0x1fe6e8",
      "gasUsed": "0x2dd08",
      "effectiveGasPrice": "0x9402a7",
      "from": "0x221ba23331e5395f2018edafc2e0e9ff2acb1ada",
      "to": "0xf6fc2726013b1a9b3171c78f3599017e7ca0bd79",
      "contractAddress": null
    }
  ],
  "libraries": [],
  "pending": [],
  "returns": {},
  "timestamp": 1723099155,
  "chain": 17000,
  "commit": "4f3d0be"
}