{
  "transactions": [
    {
      "hash": "0x59b19b725636cba3d7844ca7ae8d54b269c74fe58081de685ee2afadffc7a04c",
      "transactionType": "CALL",
      "contractName": null,
      "contractAddress": "0xe721da2c547fce103c0fde8db6274b1525472127",
      "function": "setGameConfig((uint40,uint40,uint256,uint256,uint256,uint256,uint40,uint256,(uint256,uint256,uint256)))",
      "arguments": [
        "(86400, 1440, 16, 1000000000000000000, 600000000000000000000000000, 100000000000000000, 10, 7000, (200, 300, 500))"
      ],
      "transaction": {
        "from": "0x221ba23331e5395f2018edafc2e0e9ff2acb1ada",
        "to": "0xe721da2c547fce103c0fde8db6274b1525472127",
        "gas": "0x569d0",
        "value": "0x0",
        "input": "0x3ce017a8000000000000000000000000000000000000000000000000000000000001518000000000000000000000000000000000000000000000000000000000000005a000000000000000000000000000000000000000000000000000000000000000100000000000000000000000000000000000000000000000000de0b6b3a7640000000000000000000000000000000000000000000001f04ef12cb04cf158000000000000000000000000000000000000000000000000000000016345785d8a0000000000000000000000000000000000000000000000000000000000000000000a0000000000000000000000000000000000000000000000000000000000001b5800000000000000000000000000000000000000000000000000000000000000c8000000000000000000000000000000000000000000000000000000000000012c00000000000000000000000000000000000000000000000000000000000001f4",
        "nonce": "0x44",
        "chainId": "0xba9304"
      },
      "additionalContracts": [],
      "isFixedGasLimit": false
    }
  ],
  "receipts": [
    {
      "status": "0x1",
      "cumulativeGasUsed": "0x3eb4f",
      "logs": [
        {
          "address": "0xe721da2c547fce103c0fde8db6274b1525472127",
          "topics": [
            "0xdb340365a1fa6f3b9183dd0f199837cf3ef34d811b8be93dfbdccaac15cbf48a"
          ],
          "data": "0x000000000000000000000000000000000000000000000000000000000001518000000000000000000000000000000000000000000000000000000000000005a000000000000000000000000000000000000000000000000000000000000000100000000000000000000000000000000000000000000000000de0b6b3a7640000000000000000000000000000000000000000000001f04ef12cb04cf158000000000000000000000000000000000000000000000000000000016345785d8a0000000000000000000000000000000000000000000000000000000000000000000a0000000000000000000000000000000000000000000000000000000000001b5800000000000000000000000000000000000000000000000000000000000000c8000000000000000000000000000000000000000000000000000000000000012c00000000000000000000000000000000000000000000000000000000000001f4",
          "blockHash": "0x9af19badc6c1821dfacf591e08f64ff7e6143a59ea8b7b34cd75334e74a05d25",
          "blockNumber": "0x5413d",
          "transactionHash": "0x59b19b725636cba3d7844ca7ae8d54b269c74fe58081de685ee2afadffc7a04c",
          "transactionIndex": "0x0",
          "logIndex": "0x0",
          "removed": false
        }
      ],
      "logsBloom": "0x00000000000000000000000000000000000000000000000000000000000000000000000000000000000000000000000000000000000000000000000000000000000000000000000000080000000000000000000000000000000000000000000000000000000010000000000000000000000000000000000000000000000000000000000000000000000000000000000000000000040000000000000000000000000000000000000001000000000000000000000000000000000000000000000000000000000000200000000000000000000000000000000000000000000000000000000000000000000000000000000000000000000000000000000800000000",
      "type": "0x0",
      "transactionHash": "0x59b19b725636cba3d7844ca7ae8d54b269c74fe58081de685ee2afadffc7a04c",
      "transactionIndex": "0x0",
      "blockHash": "0x9af19badc6c1821dfacf591e08f64ff7e6143a59ea8b7b34cd75334e74a05d25",
      "blockNumber": "0x5413d",
      "gasUsed": "0x3eb4f",
      "effectiveGasPrice": "0x9502f9000",
      "from": "0x221ba23331e5395f2018edafc2e0e9ff2acb1ada",
      "to": "0xe721da2c547fce103c0fde8db6274b1525472127",
      "contractAddress": null
    }
  ],
  "libraries": [],
  "pending": [],
  "returns": {},
  "timestamp": 1724639157,
  "chain": 12227332,
  "commit": "e6c51ff"
}