{
  "transactions": [
    {
      "hash": "0xdf4469dfb8df39341594acba77628ccddeb0c435c427ad2d1961b66112e9a5dc",
      "transactionType": "CALL",
      "contractName": null,
      "contractAddress": "0xaca3a01b74f3823614218166c31e55e8d989c17c",
      "function": "setGameConfig((uint40,uint40,uint256,uint256,uint256,uint256,uint40,uint256,(uint256,uint256,uint256)))",
      "arguments": [
        "(1800, 1800, 16, 1000000000000000000, 600000000000000000000000000, 100000000000000000, 10, 7000, (2000, 3000, 5000))"
      ],
      "transaction": {
        "from": "0x221ba23331e5395f2018edafc2e0e9ff2acb1ada",
        "to": "0xaca3a01b74f3823614218166c31e55e8d989c17c",
        "gas": "0x569d0",
        "value": "0x0",
        "input": "0x3ce017a80000000000000000000000000000000000000000000000000000000000000708000000000000000000000000000000000000000000000000000000000000070800000000000000000000000000000000000000000000000000000000000000100000000000000000000000000000000000000000000000000de0b6b3a7640000000000000000000000000000000000000000000001f04ef12cb04cf158000000000000000000000000000000000000000000000000000000016345785d8a0000000000000000000000000000000000000000000000000000000000000000000a0000000000000000000000000000000000000000000000000000000000001b5800000000000000000000000000000000000000000000000000000000000007d00000000000000000000000000000000000000000000000000000000000000bb80000000000000000000000000000000000000000000000000000000000001388",
        "nonce": "0x57",
        "chainId": "0xba9304"
      },
      "additionalContracts": [],
      "isFixedGasLimit": false
    }
  ],
  "receipts": [
    {
      "status": "0x1",
      "cumulativeGasUsed": "0x4c167",
      "logs": [
        {
          "address": "0xaca3a01b74f3823614218166c31e55e8d989c17c",
          "topics": [
            "0xdb340365a1fa6f3b9183dd0f199837cf3ef34d811b8be93dfbdccaac15cbf48a"
          ],
          "data": "0x0000000000000000000000000000000000000000000000000000000000000708000000000000000000000000000000000000000000000000000000000000070800000000000000000000000000000000000000000000000000000000000000100000000000000000000000000000000000000000000000000de0b6b3a7640000000000000000000000000000000000000000000001f04ef12cb04cf158000000000000000000000000000000000000000000000000000000016345785d8a0000000000000000000000000000000000000000000000000000000000000000000a0000000000000000000000000000000000000000000000000000000000001b5800000000000000000000000000000000000000000000000000000000000007d00000000000000000000000000000000000000000000000000000000000000bb80000000000000000000000000000000000000000000000000000000000001388",
          "blockHash": "0xb43c0f361287742356fc98c75e49afb6b880a653ff2d1523e556bfbe1bdba0ff",
          "blockNumber": "0x57ec9",
          "transactionHash": "0xdf4469dfb8df39341594acba77628ccddeb0c435c427ad2d1961b66112e9a5dc",
          "transactionIndex": "0x1",
          "logIndex": "0x1",
          "removed": false
        }
      ],
      "logsBloom": "0x00000000000000000000000000000000000000000000000001400000000000000000000000000000000000000000000000000000000000000000000000000000000000000000000000080000000000000000000000000000000000000000000000000000000000000000000000000000000000000200000000000000000000000000000000000000000000000000000000000000040000000000000000000000000000000000000000000000000000000000000000000000000000000000000000000000000000200000000000000000000000000000000000000000000000000000000000000000000000000000000000000000000000000000000000000000",
      "type": "0x0",
      "transactionHash": "0xdf4469dfb8df39341594acba77628ccddeb0c435c427ad2d1961b66112e9a5dc",
      "transactionIndex": "0x1",
      "blockHash": "0xb43c0f361287742356fc98c75e49afb6b880a653ff2d1523e556bfbe1bdba0ff",
      "blockNumber": "0x57ec9",
      "gasUsed": "0x3eb4f",
      "effectiveGasPrice": "0x9502f9000",
      "from": "0x221ba23331e5395f2018edafc2e0e9ff2acb1ada",
      "to": "0xaca3a01b74f3823614218166c31e55e8d989c17c",
      "contractAddress": null
    }
  ],
  "libraries": [],
  "pending": [],
  "returns": {},
  "timestamp": 1724958099,
  "chain": 12227332,
  "commit": "1ce497a"
}