{
  "transactions": [
    {
      "hash": "0x8dfa2547d1e5b497730ea9134942aab6a023436a304090954965841945329e8d",
      "transactionType": "CALL",
      "contractName": null,
      "contractAddress": "0x6fef16c7d0c89a57e1f45a6abd6c4e3c5895623c",
      "function": "setGameConfig((uint40,uint40,uint256,uint256,uint256,uint256,uint40,uint256,(uint256,uint256,uint256)))",
      "arguments": [
        "(86400, 1200, 16, 1000000000000000000, 600000000000000000000000000, 100000000000000000, 10, 7000, (200, 300, 500))"
      ],
      "transaction": {
        "from": "0x221ba23331e5395f2018edafc2e0e9ff2acb1ada",
        "to": "0x6fef16c7d0c89a57e1f45a6abd6c4e3c5895623c",
        "gas": "0x15ae6",
        "value": "0x0",
        "input": "0x3ce017a8000000000000000000000000000000000000000000000000000000000001518000000000000000000000000000000000000000000000000000000000000004b000000000000000000000000000000000000000000000000000000000000000100000000000000000000000000000000000000000000000000de0b6b3a7640000000000000000000000000000000000000000000001f04ef12cb04cf158000000000000000000000000000000000000000000000000000000016345785d8a0000000000000000000000000000000000000000000000000000000000000000000a0000000000000000000000000000000000000000000000000000000000001b5800000000000000000000000000000000000000000000000000000000000000c8000000000000000000000000000000000000000000000000000000000000012c00000000000000000000000000000000000000000000000000000000000001f4",
        "nonce": "0x2a",
        "chainId": "0xba9304"
      },
      "additionalContracts": [],
      "isFixedGasLimit": false
    }
  ],
  "receipts": [
    {
      "status": "0x1",
      "cumulativeGasUsed": "0xed33",
      "logs": [
        {
          "address": "0x6fef16c7d0c89a57e1f45a6abd6c4e3c5895623c",
          "topics": [
            "0xdb340365a1fa6f3b9183dd0f199837cf3ef34d811b8be93dfbdccaac15cbf48a"
          ],
          "data": "0x000000000000000000000000000000000000000000000000000000000001518000000000000000000000000000000000000000000000000000000000000004b000000000000000000000000000000000000000000000000000000000000000100000000000000000000000000000000000000000000000000de0b6b3a7640000000000000000000000000000000000000000000001f04ef12cb04cf158000000000000000000000000000000000000000000000000000000016345785d8a0000000000000000000000000000000000000000000000000000000000000000000a0000000000000000000000000000000000000000000000000000000000001b5800000000000000000000000000000000000000000000000000000000000000c8000000000000000000000000000000000000000000000000000000000000012c00000000000000000000000000000000000000000000000000000000000001f4",
          "blockHash": "0x64b553a0c943c03e24caf00bfaf0008625c4639bc7c123a031721f6d3cd06bf6",
          "blockNumber": "0x50722",
          "transactionHash": "0x8dfa2547d1e5b497730ea9134942aab6a023436a304090954965841945329e8d",
          "transactionIndex": "0x0",
          "logIndex": "0x0",
          "removed": false
        }
      ],
      "logsBloom": "0x00000000000000000000000000000000000000000000000000000000000000000000000000000000000000000000000000000000000000000000000000000000000000000000000000080000000000000000000000000000000000000000000000000000000400000000000000000000000000000000000000000000000000000000000000020000000000000000000000000000040000000000000000000000000000000000000000000000000000000000000400000000000000000000000000000000000000200000000000000000000000000000000000000000000000000000000000000000000000000000000000000000000000000000000000000000",
      "type": "0x0",
      "transactionHash": "0x8dfa2547d1e5b497730ea9134942aab6a023436a304090954965841945329e8d",
      "transactionIndex": "0x0",
      "blockHash": "0x64b553a0c943c03e24caf00bfaf0008625c4639bc7c123a031721f6d3cd06bf6",
      "blockNumber": "0x50722",
      "gasUsed": "0xed33",
      "effectiveGasPrice": "0x9502f9000",
      "from": "0x221ba23331e5395f2018edafc2e0e9ff2acb1ada",
      "to": "0x6fef16c7d0c89a57e1f45a6abd6c4e3c5895623c",
      "contractAddress": null
    }
  ],
  "libraries": [],
  "pending": [],
  "returns": {},
  "timestamp": 1724382731,
  "chain": 12227332,
  "commit": "e6c51ff"
}