{
  "transactions": [
    {
      "hash": "0x2b898b71b84aefb2f2354acde67d807acda21c5acceb8a613c1d0bfac73808dc",
      "transactionType": "CALL",
      "contractName": null,
      "contractAddress": "0x6fef16c7d0c89a57e1f45a6abd6c4e3c5895623c",
      "function": "setGameConfig((uint40,uint40,uint256,uint256,uint256,uint256,uint40,uint256,(uint256,uint256,uint256)))",
      "arguments": [
        "(86400, 86400, 16, 1000000000000000000, 600000000000000000000000000, 100000000000000000, 10, 7000, (200, 300, 500))"
      ],
      "transaction": {
        "from": "0x221ba23331e5395f2018edafc2e0e9ff2acb1ada",
        "to": "0x6fef16c7d0c89a57e1f45a6abd6c4e3c5895623c",
        "gas": "0x56a4a",
        "value": "0x0",
        "input": "0x3ce017a80000000000000000000000000000000000000000000000000000000000015180000000000000000000000000000000000000000000000000000000000001518000000000000000000000000000000000000000000000000000000000000000100000000000000000000000000000000000000000000000000de0b6b3a7640000000000000000000000000000000000000000000001f04ef12cb04cf158000000000000000000000000000000000000000000000000000000016345785d8a0000000000000000000000000000000000000000000000000000000000000000000a0000000000000000000000000000000000000000000000000000000000001b5800000000000000000000000000000000000000000000000000000000000000c8000000000000000000000000000000000000000000000000000000000000012c00000000000000000000000000000000000000000000000000000000000001f4",
        "nonce": "0x10",
        "chainId": "0xba9304"
      },
      "additionalContracts": [],
      "isFixedGasLimit": false
    },
    {
      "hash": "0x47dbea8a340f201ea78a9972440d74362204c3c9b65fada7d068d945985d52b2",
      "transactionType": "CALL",
      "contractName": null,
      "contractAddress": "0x6fef16c7d0c89a57e1f45a6abd6c4e3c5895623c",
      "function": "startGame()",
      "arguments": [],
      "transaction": {
        "from": "0x221ba23331e5395f2018edafc2e0e9ff2acb1ada",
        "to": "0x6fef16c7d0c89a57e1f45a6abd6c4e3c5895623c",
        "gas": "0x47fad",
        "value": "0x0",
        "input": "0xd65ab5f2",
        "nonce": "0x11",
        "chainId": "0xba9304"
      },
      "additionalContracts": [],
      "isFixedGasLimit": false
    }
  ],
  "receipts": [
    {
      "status": "0x1",
      "cumulativeGasUsed": "0x3eba7",
      "logs": [
        {
          "address": "0x6fef16c7d0c89a57e1f45a6abd6c4e3c5895623c",
          "topics": [
            "0xdb340365a1fa6f3b9183dd0f199837cf3ef34d811b8be93dfbdccaac15cbf48a"
          ],
          "data": "0x0000000000000000000000000000000000000000000000000000000000015180000000000000000000000000000000000000000000000000000000000001518000000000000000000000000000000000000000000000000000000000000000100000000000000000000000000000000000000000000000000de0b6b3a7640000000000000000000000000000000000000000000001f04ef12cb04cf158000000000000000000000000000000000000000000000000000000016345785d8a0000000000000000000000000000000000000000000000000000000000000000000a0000000000000000000000000000000000000000000000000000000000001b5800000000000000000000000000000000000000000000000000000000000000c8000000000000000000000000000000000000000000000000000000000000012c00000000000000000000000000000000000000000000000000000000000001f4",
          "blockHash": "0x3de18cc8bdef7e0d3a1dac1a9044046ef2c48be9ac78772bae111b51d0881e28",
          "blockNumber": "0x4af54",
          "transactionHash": "0x2b898b71b84aefb2f2354acde67d807acda21c5acceb8a613c1d0bfac73808dc",
          "transactionIndex": "0x0",
          "logIndex": "0x0",
          "removed": false
        }
      ],
      "logsBloom": "0x00000000000000000000000000000000000000000000000000000000000000000000000000000000000000000000000000000000000000000000000000000000000000000000000000080000000000000000000000000000000000000000000000000000000400000000000000000000000000000000000000000000000000000000000000020000000000000000000000000000040000000000000000000000000000000000000000000000000000000000000400000000000000000000000000000000000000200000000000000000000000000000000000000000000000000000000000000000000000000000000000000000000000000000000000000000",
      "type": "0x0",
      "transactionHash": "0x2b898b71b84aefb2f2354acde67d807acda21c5acceb8a613c1d0bfac73808dc",
      "transactionIndex": "0x0",
      "blockHash": "0x3de18cc8bdef7e0d3a1dac1a9044046ef2c48be9ac78772bae111b51d0881e28",
      "blockNumber": "0x4af54",
      "gasUsed": "0x3eba7",
      "effectiveGasPrice": "0x9502f9000",
      "from": "0x221ba23331e5395f2018edafc2e0e9ff2acb1ada",
      "to": "0x6fef16c7d0c89a57e1f45a6abd6c4e3c5895623c",
      "contractAddress": null
    },
    {
      "status": "0x1",
      "cumulativeGasUsed": "0x72d73",
      "logs": [
        {
          "address": "0x6fef16c7d0c89a57e1f45a6abd6c4e3c5895623c",
          "topics": [
            "0xdb9e40af5354afdd91663c104f930b000f6777440e2a1b87b4d869f7e4a24b62",
            "0x0000000000000000000000000000000000000000000000000000000000000001"
          ],
          "data": "0x",
          "blockHash": "0x3de18cc8bdef7e0d3a1dac1a9044046ef2c48be9ac78772bae111b51d0881e28",
          "blockNumber": "0x4af54",
          "transactionHash": "0x47dbea8a340f201ea78a9972440d74362204c3c9b65fada7d068d945985d52b2",
          "transactionIndex": "0x1",
          "logIndex": "0x1",
          "removed": false
        }
      ],
      "logsBloom": "0x00000000000000000000000000000000000000000000000000000000000000000000000000000000000000000000000000000000000020000000000000040000000000000000000000000000000000000000000000040000000000000000000000000000000400000000000000000000000000000000000000000000000000000000000000020000000000000000000000000008000000000000000000000000000000000000000000000000000000000000000400000000000000000000000000000000000000000000000000000000000000000000000000000000000040800000000000000000000000000000000000000000000000000000000000000000",
      "type": "0x0",
      "transactionHash": "0x47dbea8a340f201ea78a9972440d74362204c3c9b65fada7d068d945985d52b2",
      "transactionIndex": "0x1",
      "blockHash": "0x3de18cc8bdef7e0d3a1dac1a9044046ef2c48be9ac78772bae111b51d0881e28",
      "blockNumber": "0x4af54",
      "gasUsed": "0x341cc",
      "effectiveGasPrice": "0x9502f9000",
      "from": "0x221ba23331e5395f2018edafc2e0e9ff2acb1ada",
      "to": "0x6fef16c7d0c89a57e1f45a6abd6c4e3c5895623c",
      "contractAddress": null
    }
  ],
  "libraries": [],
  "pending": [],
  "returns": {},
  "timestamp": 1724137635,
  "chain": 12227332,
  "commit": "63b0347"
}