{
  "transactions": [
    {
      "hash": "0xe4b022c27e939580f7bfc42f2b8c75df9303ee554b402e2ef622825d6f63bb1e",
      "transactionType": "CALL",
      "contractName": null,
      "contractAddress": "0xaca3a01b74f3823614218166c31e55e8d989c17c",
      "function": "setGameConfig((uint40,uint40,uint256,uint256,uint256,uint256,uint40,uint256,(uint256,uint256,uint256)))",
      "arguments": [
        "(1800, 1800, 16, 1000000000000000000, 600000000000000000000000000, 100000000000000000, 10, 7000, (2000, 3000, 5000))"
      ],
      "transaction": {
        "from": "0x221ba23331e5395f2018edafc2e0e9ff2acb1ada",
        "to": "0xaca3a01b74f3823614218166c31e55e8d989c17c",
        "gas": "0x1381c",
        "value": "0x0",
        "input": "0x3ce017a80000000000000000000000000000000000000000000000000000000000000708000000000000000000000000000000000000000000000000000000000000070800000000000000000000000000000000000000000000000000000000000000100000000000000000000000000000000000000000000000000de0b6b3a7640000000000000000000000000000000000000000000001f04ef12cb04cf158000000000000000000000000000000000000000000000000000000016345785d8a0000000000000000000000000000000000000000000000000000000000000000000a0000000000000000000000000000000000000000000000000000000000001b5800000000000000000000000000000000000000000000000000000000000007d00000000000000000000000000000000000000000000000000000000000000bb80000000000000000000000000000000000000000000000000000000000001388",
        "nonce": "0x58",
        "chainId": "0xba9304"
      },
      "additionalContracts": [],
      "isFixedGasLimit": false
    },
    {
      "hash": "0xba252d0cc5bf5a085a321adbf0c9a9bc0fd4be09b609dfdfbb65be067774e6c3",
      "transactionType": "CALL",
      "contractName": null,
      "contractAddress": "0xaca3a01b74f3823614218166c31e55e8d989c17c",
      "function": "startGame()",
      "arguments": [],
      "transaction": {
        "from": "0x221ba23331e5395f2018edafc2e0e9ff2acb1ada",
        "to": "0xaca3a01b74f3823614218166c31e55e8d989c17c",
        "gas": "0x47f45",
        "value": "0x0",
        "input": "0xd65ab5f2",
        "nonce": "0x59",
        "chainId": "0xba9304"
      },
      "additionalContracts": [],
      "isFixedGasLimit": false
    }
  ],
  "receipts": [
    {
      "status": "0x1",
      "cumulativeGasUsed": "0xe1f7",
      "logs": [
        {
          "address": "0xaca3a01b74f3823614218166c31e55e8d989c17c",
          "topics": [
            "0xdb340365a1fa6f3b9183dd0f199837cf3ef34d811b8be93dfbdccaac15cbf48a"
          ],
          "data": "0x0000000000000000000000000000000000000000000000000000000000000708000000000000000000000000000000000000000000000000000000000000070800000000000000000000000000000000000000000000000000000000000000100000000000000000000000000000000000000000000000000de0b6b3a7640000000000000000000000000000000000000000000001f04ef12cb04cf158000000000000000000000000000000000000000000000000000000016345785d8a0000000000000000000000000000000000000000000000000000000000000000000a0000000000000000000000000000000000000000000000000000000000001b5800000000000000000000000000000000000000000000000000000000000007d00000000000000000000000000000000000000000000000000000000000000bb80000000000000000000000000000000000000000000000000000000000001388",
          "blockHash": "0x3e05ae29565bd57e2686d78a460a5f55b5572a02fb0826308049432af1b55a7b",
          "blockNumber": "0x584e6",
          "transactionHash": "0xe4b022c27e939580f7bfc42f2b8c75df9303ee554b402e2ef622825d6f63bb1e",
          "transactionIndex": "0x0",
          "logIndex": "0x0",
          "removed": false
        }
      ],
      "logsBloom": "0x00000000000000000000000000000000000000000000000001400000000000000000000000000000000000000000000000000000000000000000000000000000000000000000000000080000000000000000000000000000000000000000000000000000000000000000000000000000000000000200000000000000000000000000000000000000000000000000000000000000040000000000000000000000000000000000000000000000000000000000000000000000000000000000000000000000000000200000000000000000000000000000000000000000000000000000000000000000000000000000000000000000000000000000000000000000",
      "type": "0x0",
      "transactionHash": "0xe4b022c27e939580f7bfc42f2b8c75df9303ee554b402e2ef622825d6f63bb1e",
      "transactionIndex": "0x0",
      "blockHash": "0x3e05ae29565bd57e2686d78a460a5f55b5572a02fb0826308049432af1b55a7b",
      "blockNumber": "0x584e6",
      "gasUsed": "0xe1f7",
      "effectiveGasPrice": "0x9502f9000",
      "from": "0x221ba23331e5395f2018edafc2e0e9ff2acb1ada",
      "to": "0xaca3a01b74f3823614218166c31e55e8d989c17c",
      "contractAddress": null
    },
    {
      "status": "0x1",
      "cumulativeGasUsed": "0x42377",
      "logs": [
        {
          "address": "0xaca3a01b74f3823614218166c31e55e8d989c17c",
          "topics": [
            "0xdb9e40af5354afdd91663c104f930b000f6777440e2a1b87b4d869f7e4a24b62",
            "0x0000000000000000000000000000000000000000000000000000000000000001"
          ],
          "data": "0x",
          "blockHash": "0x3e05ae29565bd57e2686d78a460a5f55b5572a02fb0826308049432af1b55a7b",
          "blockNumber": "0x584e6",
          "transactionHash": "0xba252d0cc5bf5a085a321adbf0c9a9bc0fd4be09b609dfdfbb65be067774e6c3",
          "transactionIndex": "0x1",
          "logIndex": "0x1",
          "removed": false
        }
      ],
      "logsBloom": "0x00000000000000000000000000000000000000000000000001400000000000000000000000000000000000000000000000000000000020000000000000040000000000000000000000000000000000000000000000040000000000000000000000000000000000000000000000000000000000000200000000000000000000000000000000000000000000000000000000000008000000000000000000000000000000000000000000000000000000000000000000000000000000000000000000000000000000000000000000000000000000000000000000000000000040800000000000000000000000000000000000000000000000000000000000000000",
      "type": "0x0",
      "transactionHash": "0xba252d0cc5bf5a085a321adbf0c9a9bc0fd4be09b609dfdfbb65be067774e6c3",
      "transactionIndex": "0x1",
      "blockHash": "0x3e05ae29565bd57e2686d78a460a5f55b5572a02fb0826308049432af1b55a7b",
      "blockNumber": "0x584e6",
      "gasUsed": "0x34180",
      "effectiveGasPrice": "0x9502f9000",
      "from": "0x221ba23331e5395f2018edafc2e0e9ff2acb1ada",
      "to": "0xaca3a01b74f3823614218166c31e55e8d989c17c",
      "contractAddress": null
    }
  ],
  "libraries": [],
  "pending": [],
  "returns": {},
  "timestamp": 1724985907,
  "chain": 12227332,
  "commit": "1ce497a"
}