{
  "transactions": [
    {
      "hash": "0xfe8fb6dd2c1cf3c647c6eefae8ac386e2c3f3a2ce326b7d778159120060809c9",
      "transactionType": "CALL",
      "contractName": null,
      "contractAddress": "0x36116821b2c8ee41cc08c3bfd1adf8887a61e060",
      "function": "setGameConfig((uint40,uint40,uint40,uint256,uint256,uint256,uint256,uint256,(uint256,uint256,uint256)))",
      "arguments": [
        "(1800, 1800, 10, 16, 1000000000000000000, 600000000000000000000000000, 100000000000000000, 7000, (2000, 3000, 5000))"
      ],
      "transaction": {
        "from": "0x221ba23331e5395f2018edafc2e0e9ff2acb1ada",
        "to": "0x36116821b2c8ee41cc08c3bfd1adf8887a61e060",
        "gas": "0x4f537",
        "value": "0x0",
        "input": "0xdf7ac21800000000000000000000000000000000000000000000000000000000000007080000000000000000000000000000000000000000000000000000000000000708000000000000000000000000000000000000000000000000000000000000000a00000000000000000000000000000000000000000000000000000000000000100000000000000000000000000000000000000000000000000de0b6b3a7640000000000000000000000000000000000000000000001f04ef12cb04cf158000000000000000000000000000000000000000000000000000000016345785d8a00000000000000000000000000000000000000000000000000000000000000001b5800000000000000000000000000000000000000000000000000000000000007d00000000000000000000000000000000000000000000000000000000000000bb80000000000000000000000000000000000000000000000000000000000001388",
        "nonce": "0x69",
        "chainId": "0xba9304"
      },
      "additionalContracts": [],
      "isFixedGasLimit": false
    },
    {
      "hash": "0xe2adf0c6356f024f9573773346da1857672243c19ef118244e0ed26f7c095855",
      "transactionType": "CALL",
      "contractName": null,
      "contractAddress": "0x36116821b2c8ee41cc08c3bfd1adf8887a61e060",
      "function": "startGame()",
      "arguments": [],
      "transaction": {
        "from": "0x221ba23331e5395f2018edafc2e0e9ff2acb1ada",
        "to": "0x36116821b2c8ee41cc08c3bfd1adf8887a61e060",
        "gas": "0x3fc9c",
        "value": "0x0",
        "input": "0xd65ab5f2",
        "nonce": "0x6a",
        "chainId": "0xba9304"
      },
      "additionalContracts": [],
      "isFixedGasLimit": false
    }
  ],
  "receipts": [
    {
      "status": "0x1",
      "cumulativeGasUsed": "0x396e4",
      "logs": [
        {
          "address": "0x36116821b2c8ee41cc08c3bfd1adf8887a61e060",
          "topics": [
            "0x8675da0d60156547f55de78c6092053edb1e58bf9ed56db17444258eb1fabdef"
          ],
          "data": "0x00000000000000000000000000000000000000000000000000000000000007080000000000000000000000000000000000000000000000000000000000000708000000000000000000000000000000000000000000000000000000000000000a00000000000000000000000000000000000000000000000000000000000000100000000000000000000000000000000000000000000000000de0b6b3a7640000000000000000000000000000000000000000000001f04ef12cb04cf158000000000000000000000000000000000000000000000000000000016345785d8a00000000000000000000000000000000000000000000000000000000000000001b5800000000000000000000000000000000000000000000000000000000000007d00000000000000000000000000000000000000000000000000000000000000bb80000000000000000000000000000000000000000000000000000000000001388",
          "blockHash": "0x29b2d5dee16788e267ca202680d6d7f45505eb3ae15443c478e9fdc067d73a1f",
          "blockNumber": "0x64e01",
          "transactionHash": "0xfe8fb6dd2c1cf3c647c6eefae8ac386e2c3f3a2ce326b7d778159120060809c9",
          "transactionIndex": "0x0",
          "logIndex": "0x0",
          "removed": false
        }
      ],
      "logsBloom": "0x00000000000000000000000040000000000000000000000000000000000000000000000000000000000000000000000000000000000000000000000000000000000000000000080000000000000000000000000000000000000000000000000000000000000000000000000000000000000000000000004000000000000000000000000000000000000000000000000000000000000000000000000000200000000040000000000002000000000000000000000000000000000000000000000000000000000000000000000000000000000000000000000000000000000000000000000000000000000000000000000000000000000000000000000000000000",
      "type": "0x0",
      "transactionHash": "0xfe8fb6dd2c1cf3c647c6eefae8ac386e2c3f3a2ce326b7d778159120060809c9",
      "transactionIndex": "0x0",
      "blockHash": "0x29b2d5dee16788e267ca202680d6d7f45505eb3ae15443c478e9fdc067d73a1f",
      "blockNumber": "0x64e01",
      "gasUsed": "0x396e4",
      "effectiveGasPrice": "0x9502f9000",
      "from": "0x221ba23331e5395f2018edafc2e0e9ff2acb1ada",
      "to": "0x36116821b2c8ee41cc08c3bfd1adf8887a61e060",
      "contractAddress": null
    },
    {
      "status": "0x1",
      "cumulativeGasUsed": "0x2e2e8",
      "logs": [
        {
          "address": "0x36116821b2c8ee41cc08c3bfd1adf8887a61e060",
          "topics": [
            "0xdb9e40af5354afdd91663c104f930b000f6777440e2a1b87b4d869f7e4a24b62",
            "0x0000000000000000000000000000000000000000000000000000000000000001"
          ],
          "data": "0x",
          "blockHash": "0x8cf3dbe0ad50995d580b91b2c6f7488c2cda6fbd098e4acd48f099147ada5e27",
          "blockNumber": "0x64e02",
          "transactionHash": "0xe2adf0c6356f024f9573773346da1857672243c19ef118244e0ed26f7c095855",
          "transactionIndex": "0x0",
          "logIndex": "0x0",
          "removed": false
        }
      ],
      "logsBloom": "0x00000000000000000000000040000000000000000000000000000000000000000000000000000000000000000000000000000000000020000000000000040000000000000000000000000000000000000000000000040000000000000000000000000000000000000000000000000000000000000000000000000000000000000000000000000000000000000000000000000008000000000000000000200000000040000000000000000000000000000000000000000000000000000000000000000000000000000000000000000000000000000000000000000000000040800000000000000000000000000000000000000000000000000000000000000000",
      "type": "0x0",
      "transactionHash": "0xe2adf0c6356f024f9573773346da1857672243c19ef118244e0ed26f7c095855",
      "transactionIndex": "0x0",
      "blockHash": "0x8cf3dbe0ad50995d580b91b2c6f7488c2cda6fbd098e4acd48f099147ada5e27",
      "blockNumber": "0x64e02",
      "gasUsed": "0x2e2e8",
      "effectiveGasPrice": "0x9502f9000",
      "from": "0x221ba23331e5395f2018edafc2e0e9ff2acb1ada",
      "to": "0x36116821b2c8ee41cc08c3bfd1adf8887a61e060",
      "contractAddress": null
    }
  ],
  "libraries": [],
  "pending": [],
  "returns": {},
  "timestamp": 1725932340,
  "chain": 12227332,
  "commit": "65e5b8f"
}