{
  "transactions": [
    {
      "hash": "0xc9fdad399ff1ef725ca196a720ef5f3113f512d7078b8e62bf0049968455cde4",
      "transactionType": "CALL",
      "contractName": null,
      "contractAddress": "0x6fef16c7d0c89a57e1f45a6abd6c4e3c5895623c",
      "function": "setGameConfig((uint40,uint40,uint256,uint256,uint256,uint256,uint40,uint256,(uint256,uint256,uint256)))",
      "arguments": [
        "(1800, 1800, 16, 1000000000000000000, 600000000000000000000000000, 100000000000000000, 10, 7000, (200, 300, 500))"
      ],
      "transaction": {
        "from": "0x221ba23331e5395f2018edafc2e0e9ff2acb1ada",
        "to": "0x6fef16c7d0c89a57e1f45a6abd6c4e3c5895623c",
        "gas": "0x14790",
        "value": "0x0",
        "input": "0x3ce017a80000000000000000000000000000000000000000000000000000000000000708000000000000000000000000000000000000000000000000000000000000070800000000000000000000000000000000000000000000000000000000000000100000000000000000000000000000000000000000000000000de0b6b3a7640000000000000000000000000000000000000000000001f04ef12cb04cf158000000000000000000000000000000000000000000000000000000016345785d8a0000000000000000000000000000000000000000000000000000000000000000000a0000000000000000000000000000000000000000000000000000000000001b5800000000000000000000000000000000000000000000000000000000000000c8000000000000000000000000000000000000000000000000000000000000012c00000000000000000000000000000000000000000000000000000000000001f4",
        "nonce": "0x48",
        "chainId": "0xba9304"
      },
      "additionalContracts": [],
      "isFixedGasLimit": false
    }
  ],
  "receipts": [
    {
      "status": "0x1",
      "cumulativeGasUsed": "0xed27",
      "logs": [
        {
          "address": "0x6fef16c7d0c89a57e1f45a6abd6c4e3c5895623c",
          "topics": [
            "0xdb340365a1fa6f3b9183dd0f199837cf3ef34d811b8be93dfbdccaac15cbf48a"
          ],
          "data": "0x0000000000000000000000000000000000000000000000000000000000000708000000000000000000000000000000000000000000000000000000000000070800000000000000000000000000000000000000000000000000000000000000100000000000000000000000000000000000000000000000000de0b6b3a7640000000000000000000000000000000000000000000001f04ef12cb04cf158000000000000000000000000000000000000000000000000000000016345785d8a0000000000000000000000000000000000000000000000000000000000000000000a0000000000000000000000000000000000000000000000000000000000001b5800000000000000000000000000000000000000000000000000000000000000c8000000000000000000000000000000000000000000000000000000000000012c00000000000000000000000000000000000000000000000000000000000001f4",
          "blockHash": "0x28dd500cc50e65705f80ebe504033289b44fb7205d408ad1b99e44a5c0a024b4",
          "blockNumber": "0x57eb2",
          "transactionHash": "0xc9fdad399ff1ef725ca196a720ef5f3113f512d7078b8e62bf0049968455cde4",
          "transactionIndex": "0x0",
          "logIndex": "0x0",
          "removed": false
        }
      ],
      "logsBloom": "0x00000000000000000000000000000000000000000000000000000000000000000000000000000000000000000000000000000000000000000000000000000000000000000000000000080000000000000000000000000000000000000000000000000000000400000000000000000000000000000000000000000000000000000000000000020000000000000000000000000000040000000000000000000000000000000000000000000000000000000000000400000000000000000000000000000000000000200000000000000000000000000000000000000000000000000000000000000000000000000000000000000000000000000000000000000000",
      "type": "0x0",
      "transactionHash": "0xc9fdad399ff1ef725ca196a720ef5f3113f512d7078b8e62bf0049968455cde4",
      "transactionIndex": "0x0",
      "blockHash": "0x28dd500cc50e65705f80ebe504033289b44fb7205d408ad1b99e44a5c0a024b4",
      "blockNumber": "0x57eb2",
      "gasUsed": "0xed27",
      "effectiveGasPrice": "0x9502f9000",
      "from": "0x221ba23331e5395f2018edafc2e0e9ff2acb1ada",
      "to": "0x6fef16c7d0c89a57e1f45a6abd6c4e3c5895623c",
      "contractAddress": null
    }
  ],
  "libraries": [],
  "pending": [],
  "returns": {},
  "timestamp": 1724957654,
  "chain": 12227332,
  "commit": "1ce497a"
}