{
  "transactions": [
    {
      "hash": "0x52f439c73ce9228b9fd1b860a097ebe6a8bce2b883c77fcda072574781e4ae2e",
      "transactionType": "CALL",
      "contractName": null,
      "contractAddress": "0xe721da2c547fce103c0fde8db6274b1525472127",
      "function": "setGameConfig((uint40,uint40,uint256,uint256,uint256,uint256,uint40,uint256,(uint256,uint256,uint256)))",
      "arguments": [
        "(1800, 1800, 16, 1000000000000000000, 600000000000000000000000000, 100000000000000000, 10, 7000, (200, 300, 500))"
      ],
      "transaction": {
        "from": "0x221ba23331e5395f2018edafc2e0e9ff2acb1ada",
        "to": "0xe721da2c547fce103c0fde8db6274b1525472127",
        "gas": "0x15a66",
        "value": "0x0",
        "input": "0x3ce017a80000000000000000000000000000000000000000000000000000000000000708000000000000000000000000000000000000000000000000000000000000070800000000000000000000000000000000000000000000000000000000000000100000000000000000000000000000000000000000000000000de0b6b3a7640000000000000000000000000000000000000000000001f04ef12cb04cf158000000000000000000000000000000000000000000000000000000016345785d8a0000000000000000000000000000000000000000000000000000000000000000000a0000000000000000000000000000000000000000000000000000000000001b5800000000000000000000000000000000000000000000000000000000000000c8000000000000000000000000000000000000000000000000000000000000012c00000000000000000000000000000000000000000000000000000000000001f4",
        "nonce": "0x45",
        "chainId": "0xba9304"
      },
      "additionalContracts": [],
      "isFixedGasLimit": false
    },
    {
      "hash": "0x4be7586eea420f86b101e4c6d6751da05cb4ce10f67d2e319b95d5d31432b2c0",
      "transactionType": "CALL",
      "contractName": null,
      "contractAddress": "0xe721da2c547fce103c0fde8db6274b1525472127",
      "function": "startGame()",
      "arguments": [],
      "transaction": {
        "from": "0x221ba23331e5395f2018edafc2e0e9ff2acb1ada",
        "to": "0xe721da2c547fce103c0fde8db6274b1525472127",
        "gas": "0x47f45",
        "value": "0x0",
        "input": "0xd65ab5f2",
        "nonce": "0x46",
        "chainId": "0xba9304"
      },
      "additionalContracts": [],
      "isFixedGasLimit": false
    }
  ],
  "receipts": [
    {
      "status": "0x1",
      "cumulativeGasUsed": "0xecdb",
      "logs": [
        {
          "address": "0xe721da2c547fce103c0fde8db6274b1525472127",
          "topics": [
            "0xdb340365a1fa6f3b9183dd0f199837cf3ef34d811b8be93dfbdccaac15cbf48a"
          ],
          "data": "0x0000000000000000000000000000000000000000000000000000000000000708000000000000000000000000000000000000000000000000000000000000070800000000000000000000000000000000000000000000000000000000000000100000000000000000000000000000000000000000000000000de0b6b3a7640000000000000000000000000000000000000000000001f04ef12cb04cf158000000000000000000000000000000000000000000000000000000016345785d8a0000000000000000000000000000000000000000000000000000000000000000000a0000000000000000000000000000000000000000000000000000000000001b5800000000000000000000000000000000000000000000000000000000000000c8000000000000000000000000000000000000000000000000000000000000012c00000000000000000000000000000000000000000000000000000000000001f4",
          "blockHash": "0x0bb5bfc9618485e00b219e6fb0237d2b46ed0cd1b2268a2e455d5a0a69d53562",
          "blockNumber": "0x567bd",
          "transactionHash": "0x52f439c73ce9228b9fd1b860a097ebe6a8bce2b883c77fcda072574781e4ae2e",
          "transactionIndex": "0x0",
          "logIndex": "0x0",
          "removed": false
        }
      ],
      "logsBloom": "0x00000000000000000000000000000000000000000000000000000000000000000000000000000000000000000000000000000000000000000000000000000000000000000000000000080000000000000000000000000000000000000000000000000000000010000000000000000000000000000000000000000000000000000000000000000000000000000000000000000000040000000000000000000000000000000000000001000000000000000000000000000000000000000000000000000000000000200000000000000000000000000000000000000000000000000000000000000000000000000000000000000000000000000000000800000000",
      "type": "0x0",
      "transactionHash": "0x52f439c73ce9228b9fd1b860a097ebe6a8bce2b883c77fcda072574781e4ae2e",
      "transactionIndex": "0x0",
      "blockHash": "0x0bb5bfc9618485e00b219e6fb0237d2b46ed0cd1b2268a2e455d5a0a69d53562",
      "blockNumber": "0x567bd",
      "gasUsed": "0xecdb",
      "effectiveGasPrice": "0x9502f9000",
      "from": "0x221ba23331e5395f2018edafc2e0e9ff2acb1ada",
      "to": "0xe721da2c547fce103c0fde8db6274b1525472127",
      "contractAddress": null
    },
    {
      "status": "0x1",
      "cumulativeGasUsed": "0x42e5b",
      "logs": [
        {
          "address": "0xe721da2c547fce103c0fde8db6274b1525472127",
          "topics": [
            "0xdb9e40af5354afdd91663c104f930b000f6777440e2a1b87b4d869f7e4a24b62",
            "0x0000000000000000000000000000000000000000000000000000000000000001"
          ],
          "data": "0x",
          "blockHash": "0x0bb5bfc9618485e00b219e6fb0237d2b46ed0cd1b2268a2e455d5a0a69d53562",
          "blockNumber": "0x567bd",
          "transactionHash": "0x4be7586eea420f86b101e4c6d6751da05cb4ce10f67d2e319b95d5d31432b2c0",
          "transactionIndex": "0x1",
          "logIndex": "0x1",
          "removed": false
        }
      ],
      "logsBloom": "0x00000000000000000000000000000000000000000000000000000000000000000000000000000000000000000000000000000000000020000000000000040000000000000000000000000000000000000000000000040000000000000000000000000000000010000000000000000000000000000000000000000000000000000000000000000000000000000000000000000008000000000000000000000000000000000000000001000000000000000000000000000000000000000000000000000000000000000000000000000000000000000000000000000000000040800000000000000000000000000000000000000000000000000000000800000000",
      "type": "0x0",
      "transactionHash": "0x4be7586eea420f86b101e4c6d6751da05cb4ce10f67d2e319b95d5d31432b2c0",
      "transactionIndex": "0x1",
      "blockHash": "0x0bb5bfc9618485e00b219e6fb0237d2b46ed0cd1b2268a2e455d5a0a69d53562",
      "blockNumber": "0x567bd",
      "gasUsed": "0x34180",
      "effectiveGasPrice": "0x9502f9000",
      "from": "0x221ba23331e5395f2018edafc2e0e9ff2acb1ada",
      "to": "0xe721da2c547fce103c0fde8db6274b1525472127",
      "contractAddress": null
    }
  ],
  "libraries": [],
  "pending": [],
  "returns": {},
  "timestamp": 1724817225,
  "chain": 12227332,
  "commit": "1ce497a"
}