{
  "transactions": [
    {
      "hash": "0xc3c4158a7da512ff17dff435478e83616c719dd8ea3f635cab4c60e2e46d6db3",
      "transactionType": "CALL",
      "contractName": null,
      "contractAddress": "0x34925d9406fa4d4a5e2c20bbbcbee4e3e14d34f8",
      "function": "setOperator(address,bool)",
      "arguments": [
        "0x221bA23331E5395F2018eDafc2E0E9fF2Acb1aDa",
        "true"
      ],
      "transaction": {
        "from": "0x221ba23331e5395f2018edafc2e0e9ff2acb1ada",
        "to": "0x34925d9406fa4d4a5e2c20bbbcbee4e3e14d34f8",
        "gas": "0x10301",
        "value": "0x0",
        "input": "0x558a7297000000000000000000000000221ba23331e5395f2018edafc2e0e9ff2acb1ada0000000000000000000000000000000000000000000000000000000000000001",
        "nonce": "0x1f",
        "chainId": "0x4268"
      },
      "additionalContracts": [],
      "isFixedGasLimit": false
    },
    {
      "hash": "0xf5abfb09e3faaa37b8631e418a06bcafd0ad7967130a51b0208cdb385a6cd1f1",
      "transactionType": "CALL",
      "contractName": null,
      "contractAddress": "0x34925d9406fa4d4a5e2c20bbbcbee4e3e14d34f8",
      "function": "setOperator(address,bool)",
      "arguments": [
        "0x9035417DFF05753D6934cfe6370F549df38F2aCA",
        "true"
      ],
      "transaction": {
        "from": "0x221ba23331e5395f2018edafc2e0e9ff2acb1ada",
        "to": "0x34925d9406fa4d4a5e2c20bbbcbee4e3e14d34f8",
        "gas": "0x10301",
        "value": "0x0",
        "input": "0x558a72970000000000000000000000009035417dff05753d6934cfe6370f549df38f2aca0000000000000000000000000000000000000000000000000000000000000001",
        "nonce": "0x20",
        "chainId": "0x4268"
      },
      "additionalContracts": [],
      "isFixedGasLimit": false
    }
  ],
  "receipts": [
    {
      "status": "0x1",
      "cumulativeGasUsed": "0x8daa19",
      "logs": [
        {
          "address": "0x34925d9406fa4d4a5e2c20bbbcbee4e3e14d34f8",
          "topics": [
            "0x966c160e1c4dbc7df8d69af4ace01e9297c3cf016397b7914971f2fbfa32672d",
            "0x000000000000000000000000221ba23331e5395f2018edafc2e0e9ff2acb1ada"
          ],
          "data": "0x0000000000000000000000000000000000000000000000000000000000000001",
          "blockHash": "0x675754841050aa16f49c6d66e168102f72ca11267e885fbb2453081e4f3e4133",
          "blockNumber": "0x1f949e",
          "transactionHash": "0xc3c4158a7da512ff17dff435478e83616c719dd8ea3f635cab4c60e2e46d6db3",
          "transactionIndex": "0x15",
          "logIndex": "0x23",
          "removed": false
        }
      ],
      "logsBloom": "0x00400000000000000000100000000000000000000000000000000000000000108000000000000000000000000000000000000000000001000000400000000000000000002000000000000000000000000000000000000000000000000000000000000000000000000000000000000000020000000000000000000000000000000000000000000000000000000000000000000000000000000000000000000000000000000000000000000000000000000000000000000000000000000000000000000000000000000000000000000000000000000000000000000000000000000000000000000000000000100000000000000000000000000000000000000000",
      "type": "0x0",
      "transactionHash": "0xc3c4158a7da512ff17dff435478e83616c719dd8ea3f635cab4c60e2e46d6db3",
      "transactionIndex": "0x15",
      "blockHash": "0x675754841050aa16f49c6d66e168102f72ca11267e885fbb2453081e4f3e4133",
      "blockNumber": "0x1f949e",
      "gasUsed": "0xbb84",
      "effectiveGasPrice": "0x12584",
      "from": "0x221ba23331e5395f2018edafc2e0e9ff2acb1ada",
      "to": "0x34925d9406fa4d4a5e2c20bbbcbee4e3e14d34f8",
      "contractAddress": null
    },
    {
      "status": "0x1",
      "cumulativeGasUsed": "0x8e659d",
      "logs": [
        {
          "address": "0x34925d9406fa4d4a5e2c20bbbcbee4e3e14d34f8",
          "topics": [
            "0x966c160e1c4dbc7df8d69af4ace01e9297c3cf016397b7914971f2fbfa32672d",
            "0x0000000000000000000000009035417dff05753d6934cfe6370f549df38f2aca"
          ],
          "data": "0x0000000000000000000000000000000000000000000000000000000000000001",
          "blockHash": "0x675754841050aa16f49c6d66e168102f72ca11267e885fbb2453081e4f3e4133",
          "blockNumber": "0x1f949e",
          "transactionHash": "0xf5abfb09e3faaa37b8631e418a06bcafd0ad7967130a51b0208cdb385a6cd1f1",
          "transactionIndex": "0x16",
          "logIndex": "0x24",
          "removed": false
        }
      ],
      "logsBloom": "0x00400000000000000000100000000000000000000000000000002000000000008000000000080000000000000000000000000000000001000000000000000000000000000000000000000000000000000000000000000000000000000000000000000000000000000000000000000000020000000000000000000000000000000010000000000000000000000000000000000000000000000000000000000000000000000000000000000000000000000000000000000000000000000000000000000000000000000000000000000000000000000000000000000000000000000000000000000000000000100000000000000000000000000000000000000000",
      "type": "0x0",
      "transactionHash": "0xf5abfb09e3faaa37b8631e418a06bcafd0ad7967130a51b0208cdb385a6cd1f1",
      "transactionIndex": "0x16",
      "blockHash": "0x675754841050aa16f49c6d66e168102f72ca11267e885fbb2453081e4f3e4133",
      "blockNumber": "0x1f949e",
      "gasUsed": "0xbb84",
      "effectiveGasPrice": "0x12584",
      "from": "0x221ba23331e5395f2018edafc2e0e9ff2acb1ada",
      "to": "0x34925d9406fa4d4a5e2c20bbbcbee4e3e14d34f8",
      "contractAddress": null
    }
  ],
  "libraries": [],
  "pending": [],
  "returns": {},
  "timestamp": 1722824933,
  "chain": 17000,
  "commit": "47dc7c3"
}