{
  "transactions": [
    {
      "hash": "0xeeec25a7fa2385809a079e8167aedc00e17dc9c3858230c9b02e94628c1523a2",
      "transactionType": "CALL",
      "contractName": null,
      "contractAddress": "0x5de23b2917b9dc03425f72281c189b140a7d5524",
      "function": "setOperator(address,bool)",
      "arguments": [
        "0x221bA23331E5395F2018eDafc2E0E9fF2Acb1aDa",
        "true"
      ],
      "transaction": {
        "from": "0x221ba23331e5395f2018edafc2e0e9ff2acb1ada",
        "to": "0x5de23b2917b9dc03425f72281c189b140a7d5524",
        "gas": "0xa0d5",
        "value": "0x0",
        "input": "0x558a7297000000000000000000000000221ba23331e5395f2018edafc2e0e9ff2acb1ada0000000000000000000000000000000000000000000000000000000000000001",
        "nonce": "0x50",
        "chainId": "0x4268"
      },
      "additionalContracts": [],
      "isFixedGasLimit": false
    },
    {
      "hash": "0xd974e1ab7389618a0adaf282f4013367a6c430dd0f6163037c6f790cf52ed139",
      "transactionType": "CALL",
      "contractName": null,
      "contractAddress": "0x5de23b2917b9dc03425f72281c189b140a7d5524",
      "function": "setOperator(address,bool)",
      "arguments": [
        "0x9035417DFF05753D6934cfe6370F549df38F2aCA",
        "true"
      ],
      "transaction": {
        "from": "0x221ba23331e5395f2018edafc2e0e9ff2acb1ada",
        "to": "0x5de23b2917b9dc03425f72281c189b140a7d5524",
        "gas": "0xa0d5",
        "value": "0x0",
        "input": "0x558a72970000000000000000000000009035417dff05753d6934cfe6370f549df38f2aca0000000000000000000000000000000000000000000000000000000000000001",
        "nonce": "0x51",
        "chainId": "0x4268"
      },
      "additionalContracts": [],
      "isFixedGasLimit": false
    },
    {
      "hash": "0xe60008da28e228f47062604a7b35890feae1e9341a3f4ed0ecd4ee23671b0889",
      "transactionType": "CALL",
      "contractName": null,
      "contractAddress": "0xcb70410b93a4e9e5ebbfd1c9962818cd76f2431c",
      "function": "setFeeTo(address)",
      "arguments": [
        "0x5dE23b2917b9dC03425f72281c189B140a7d5524"
      ],
      "transaction": {
        "from": "0x221ba23331e5395f2018edafc2e0e9ff2acb1ada",
        "to": "0xcb70410b93a4e9e5ebbfd1c9962818cd76f2431c",
        "gas": "0x93b2",
        "value": "0x0",
        "input": "0xf46901ed0000000000000000000000005de23b2917b9dc03425f72281c189b140a7d5524",
        "nonce": "0x52",
        "chainId": "0x4268"
      },
      "additionalContracts": [],
      "isFixedGasLimit": false
    }
  ],
  "receipts": [
    {
      "status": "0x1",
      "cumulativeGasUsed": "0x4d1a38",
      "logs": [
        {
          "address": "0x5de23b2917b9dc03425f72281c189b140a7d5524",
          "topics": [
            "0x966c160e1c4dbc7df8d69af4ace01e9297c3cf016397b7914971f2fbfa32672d",
            "0x000000000000000000000000221ba23331e5395f2018edafc2e0e9ff2acb1ada"
          ],
          "data": "0x0000000000000000000000000000000000000000000000000000000000000001",
          "blockHash": "0x170e4a3a8a98981ad8bca1949387f87f711b68a2e90166bd9bd4fe639db82962",
          "blockNumber": "0x209c3d",
          "transactionHash": "0xeeec25a7fa2385809a079e8167aedc00e17dc9c3858230c9b02e94628c1523a2",
          "transactionIndex": "0x2a",
          "logIndex": "0x70",
          "removed": false
        }
      ],
      "logsBloom": "0x00000000000000000000100000000000000000000000000000000000000000100000000000000000000000000000000000000000000000000000400000000000000000002000000000000000000000000000000000000000000000000000000000000000000000000000000000000000020000000000000000000000000000000000000000800000000000000000000000000000000000000000000000000000000000000000000000000000000000000000000000000000000000000000000000000000000000000000000000000000000000000000000000000000000000008000000000000000000000100000000000000000000000000004000000000000",
      "type": "0x0",
      "transactionHash": "0xeeec25a7fa2385809a079e8167aedc00e17dc9c3858230c9b02e94628c1523a2",
      "transactionIndex": "0x2a",
      "blockHash": "0x170e4a3a8a98981ad8bca1949387f87f711b68a2e90166bd9bd4fe639db82962",
      "blockNumber": "0x209c3d",
      "gasUsed": "0x6df9",
      "effectiveGasPrice": "0x10f0e",
      "from": "0x221ba23331e5395f2018edafc2e0e9ff2acb1ada",
      "to": "0x5de23b2917b9dc03425f72281c189b140a7d5524",
      "contractAddress": null
    },
    {
      "status": "0x1",
      "cumulativeGasUsed": "0x4d8831",
      "logs": [
        {
          "address": "0x5de23b2917b9dc03425f72281c189b140a7d5524",
          "topics": [
            "0x966c160e1c4dbc7df8d69af4ace01e9297c3cf016397b7914971f2fbfa32672d",
            "0x0000000000000000000000009035417dff05753d6934cfe6370f549df38f2aca"
          ],
          "data": "0x0000000000000000000000000000000000000000000000000000000000000001",
          "blockHash": "0x170e4a3a8a98981ad8bca1949387f87f711b68a2e90166bd9bd4fe639db82962",
          "blockNumber": "0x209c3d",
          "transactionHash": "0xd974e1ab7389618a0adaf282f4013367a6c430dd0f6163037c6f790cf52ed139",
          "transactionIndex": "0x2b",
          "logIndex": "0x71",
          "removed": false
        }
      ],
      "logsBloom": "0x00000000000000000000100000000000000000000000000000002000000000000000000000080000000000000000000000000000000000000000000000000000000000000000000000000000000000000000000000000000000000000000000000000000000000000000000000000000020000000000000000000000000000000010000000800000000000000000000000000000000000000000000000000000000000000000000000000000000000000000000000000000000000000000000000000000000000000000000000000000000000000000000000000000000000008000000000000000000000100000000000000000000000000004000000000000",
      "type": "0x0",
      "transactionHash": "0xd974e1ab7389618a0adaf282f4013367a6c430dd0f6163037c6f790cf52ed139",
      "transactionIndex": "0x2b",
      "blockHash": "0x170e4a3a8a98981ad8bca1949387f87f711b68a2e90166bd9bd4fe639db82962",
      "blockNumber": "0x209c3d",
      "gasUsed": "0x6df9",
      "effectiveGasPrice": "0x10f0e",
      "from": "0x221ba23331e5395f2018edafc2e0e9ff2acb1ada",
      "to": "0x5de23b2917b9dc03425f72281c189b140a7d5524",
      "contractAddress": null
    },
    {
      "status": "0x1",
      "cumulativeGasUsed": "0x4df320",
      "logs": [
        {
          "address": "0xcb70410b93a4e9e5ebbfd1c9962818cd76f2431c",
          "topics": [
            "0x9887df018dfa75103faf0f1388028e55a1124783c285d8d2cbcf62a067a6b844",
            "0x0000000000000000000000005de23b2917b9dc03425f72281c189b140a7d5524"
          ],
          "data": "0x",
          "blockHash": "0x170e4a3a8a98981ad8bca1949387f87f711b68a2e90166bd9bd4fe639db82962",
          "blockNumber": "0x209c3d",
          "transactionHash": "0xe60008da28e228f47062604a7b35890feae1e9341a3f4ed0ecd4ee23671b0889",
          "transactionIndex": "0x2c",
          "logIndex": "0x72",
          "removed": false
        }
      ],
      "logsBloom": "0x00000000000000000000000000000000000620000000000000000000000000000000004000000000000000000000000000000000000000000000000200000000000400001000000000000000000000000000000000000000000000000000000000000000000000000000000000000000000000000000000000000000000000000000200000000000000000000000000000000000000000000000000000000000000000000000000000000000000000000000000000000000000000000000000000000000000000000000000000000000200000000000000000000000000000000000000000000000000000000000000000000000000000000000000000000000",
      "type": "0x0",
      "transactionHash": "0xe60008da28e228f47062604a7b35890feae1e9341a3f4ed0ecd4ee23671b0889",
      "transactionIndex": "0x2c",
      "blockHash": "0x170e4a3a8a98981ad8bca1949387f87f711b68a2e90166bd9bd4fe639db82962",
      "blockNumber": "0x209c3d",
      "gasUsed": "0x6aef",
      "effectiveGasPrice": "0x10f0e",
      "from": "0x221ba23331e5395f2018edafc2e0e9ff2acb1ada",
      "to": "0xcb70410b93a4e9e5ebbfd1c9962818cd76f2431c",
      "contractAddress": null
    }
  ],
  "libraries": [],
  "pending": [],
  "returns": {},
  "timestamp": 1723715787,
  "chain": 17000,
  "commit": "63b0347"
}